:020000040000FA
:06000000021376020878ED
:03002B000210D5EB
:03003300020E2F8B
:030053000207A7FA
:03007B00020E046E
:1000830002080901010000000000F8FF07FFFF005C
:10009300000504000000030001FFFFFFFF004510FF
:1000A3001410270000800000002801000038AD0B69
:1000B3000010000080110018000020FD000206FF60
:1000C300FF1E202F1E0000000000000000000000A3
:1000D3000000000000000000000000FF14001400F6
:1000E300450032000100E8030A000A000A000A0082
:1000F3000A001E001032302F30382F3230323120B8
:1001030031333A34370104010C000201A4C304580B
:10011300C20304010701020000000298C3040401A2
:100123000C000200000001AAC3010400007F1400B8
:100133000000E8030000FFFFD0140188130000E86B
:1001430003000064006400B801A0BB0D00A0BB0D58
:1001530000020202070401051E02051E020A0A012B
:100163000108080103B80B02803E0102FEFFE80309
:100173000A050001FFFF020A011401E00100B04279
:100183003BAAB83F8C906339AA0CA33A00941E3C57
:100193008042633DCFFE753E1572313FF304353F18
:1001A3008096184B000080BF2292D43EDD9B2A3FED
:1001B30004000040FFFF7F7FFFFF7FFF01008034CB
:1001C3001872313F02000000050301010F03000311
:1001D3000003000300030003000300030003000502
:1001E300000A00140028004F009E00000049300060
:1001F3000000007F2F00000000FF000000FF00123E
:1002030013A460461213C2603DE9687008F618F63D
:1002130018F618F622748067F71202360909097472
:100223008067F7221213C2601D1213A470051919F7
:1002330019801A121262701F121276C37003E667D6
:100243003319191940071818182208080874FFF6FB
:1002530018F618F618F62212127660171214427066
:100263002192F01214307019501720F01408080866
:10027300090909E7F61819E7F61819E7F61819E74F
:10028300F62212143060E6E869701F0808E624803D
:10029300F608E436F618547FB47F0CE65480600702
:1002A300F6E418F618F622181822E9C6CC08C6CDCB
:1002B30008C6CE08C6CFC0E0E8C0E0EAC0E0EBC0A5
:1002C300E009E9F809E7FA09E7FBE6F918E6F8C3F4
:1002D300EC98ED99EE9AEBC2E7F5F0EFC2E795F0F3
:1002E300500E600CEBCFFBEACEFAE9CDF9E8CCF87F
:1002F300EAA2E7D2E7FAEB33FB13F5F0EEA2E7D27B
:10030300E7FEEF33FFC5F013A2E730E601B313C5F1
:10031300F0C3C0E0C0F07F00C39BFB605E94186035
:100323000F401D14601AD0E023F9D0E0F80204084E
:100333008AF0E9486003D2F0E4AFF0FAF9F8803BC1
:10034300EB30E40D89F0EA6003D2F0E4AFF0F9CAD0
:10035300F8EB30E30D88F0EF6002D2F0AFF0E4CABF
:10036300C9F8EB54076014FBC3EA13FAE913F9E87D
:1003730013F8EF135002D2E0FFDBEDD0E0C0E03022
:10038300E739C3E49FFFF5F0EC98FC42F0ED99FDEB
:1003930042F0EE9AFE42F0D0E0F9D0E0F8E5F060EA
:1003A3007AE923F9EE20E742D8028067C3EF33FFEF
:1003B300EC33FCED33FDEE33FE80EAEC28FCED3943
:1003C300FDEE3AFED0E023F9D0E0F84002801BC3F3
:1003D300EE13FEED13FDEC13FCEF135002D2E0FF1E
:1003E30008B800067F7F74FF802EEF3350178CF020
:1003F30020F00260100CBC000C0DBD00080EBE0006
:100403000408E860DFE933E813FFEE2313FE4F4DE2
:100413004C8008E95480FFE4FEFDFCEE33EF33F437
:100423007004FCFD7E80D0E0FBD0E0FAD0E0F8D091
:10043300E0CFC618CEC618CDC618CCC6F922121303
:10044300C27004181818221213A4700D74FFF61842
:1004530019F61819F61819F622E7548066F61214DD
:1004630030700F12144270F014F608F608F608F60E
:1004730080D1121442700CF608F608768008E64420
:100483007F80EC121279700C12126560BFE6548003
:10049300F6E480BB121265700519191980A5E86985
:1004A300700C763F18768018F618F6E8F922E6CD38
:1004B300C0E018ECC0E0E633CD33CDD313F6E71933
:1004C300FCE7191933CC33C3947F400ECD9D5024E0
:1004D30008E65480F6E418F6800FF4043D14501433
:1004E30008E6447FF6187680E418F618F6D0E0FCA8
:1004F300D0E0FD22CCD313CCFD18E4C6CBC0E0186A
:10050300E4C6CAC0E00808ED08C633E613F618E4EB
:1005130033C675F003C3CA97CA09CB97CB199C405E
:10052300047D08802EBD00030205EA16B6FF05060A
:1005330006081618C3CA33CACB33CB33CA27CA0932
:10054300CB37CB193CC37D08803E187D0820E75C80
:10055300C633C6CA33CACB33CB33DDF1D5F0EB3068
:10056300E77BCA97CA09CB974ACB199C406F4B705C
:1005730025E620E0218066187D08C3CA97CA09CB07
:1005830097CB199CD3C633C6CA33CACB33CB3350AC
:10059300C9DDE7D5F0E1D3E4C636C608C636C608DA
:1005A300C636C608C636C61818188031C3CA97CAD5
:1005B30009CB97CB199CB34097C633C6CA33CACB72
:1005C30033CB33DD34D5F02EC6A2E0C640C8CA27EC
:1005D300CA09CB37194A70BECB3CB480B90808E6C8
:1005E3003308E633601F181818D0E0FAD0E0FBD0C8
:1005F300E0FCD0E0FD22187D08CA27CA09CB37CB1F
:10060300193CD3808013F618E4B67F11F618B6FFB1
:100613000EF618C60470D20808768080CAF618F65B
:1006230018F680C5001213C2604F1213A46012E7BC
:10063300548066F61212627011121442703B09095B
:1006430009F4F618F618F618F62212127670151237
:10065300143008080860EAE6447FF618768018E448
:10066300F618F62212143060161214427012E4F6D1
:1006730008F608F608E65480F6090909181818223E
:10068300EAC0E0EBC0E0ECC0E0EDC0E0E687F0A438
:10069300FBACF008E687F0A42CFCE435F0FA18096B
:1006A300E687F0A42C4B60027401CA35F0FCE433F6
:1006B300FB09E687F0D2F7A42CCB35F0FC1908E64A
:1006C30087F0A42BCC35F0FBE433FD0819E687F063
:1006D300D2E7A42C4ACB35F0CD3400FC09E687F0F1
:1006E300D2E7A42DCC35F0FDE433FA0918E687F000
:1006F300D2F7A42CCD35F0CA3400FC08E687F0D23B
:10070300E7D2F7A42ACC35F07A7E20E70B0ACB3365
:10071300CBCD33CDCC33CC33CB3350147004ED304D
:10072300E00ED2F1E4CD3DCDCC3CCC3B5005DA0517
:10073300C2F1EB547FC63308E63392F0FBE733098B
:10074300E733C39A502D2B70190C0D4C4D701518AF
:1007530006E608C333700D20F10AA2F013F6E4187D
:10076300800B4024E4F630F002768018F618F61871
:10077300F68024D33B14501074FFA2F013F61876BE
:1007830080E418F618F6800FA2F013F618E6330388
:10079300F618ECF618EDF6D0E0FDD0E0FCD0E0FB67
:1007A300D0E0FA22C0E074F1120C13A2AFE433F5E7
:1007B30009D2AF85A708AFA1EF5508FE74105E609C
:1007C3000612187775A1EF74085E600812187D751C
:1007D300A1F78024EFA2E092F0E508A2E082F050B6
:1007E30017906198E0F8900661E0C398A2D265D0B3
:1007F300335002E8F075A1FE752300E509A2E092EB
:10080300AF7F02020C72C0E074F2120C13A2AFE4C9
:1008130033FED2AF9061A4E0F8759B00E591585484
:100823000860087591F71218CB8023E5915854108E
:1008330060087591EF1218D18014E591A2E092F04F
:10084300E8A2E082F05007E0C2E0F0121A279061BC
:10085300A3E0F8E5E9585404600E1219FD75E9FBAD
:10086300906193E0A2E640F2752300EEA2E092AF1E
:100873007F01020C72C0E074F2120C13A2AFE433D6
:10088300FED2AF9061A5E0F8E5BF58540460067549
:10089300BFFB121A3F80D11208EF30F04312093424
:1008A300803E8A088B098C0A8D0B78081208EF208A
:1008B300F01430E72B74FFFCFBFA747F8022E4FC16
:1008C300FBFA7480801AB48008BC00F2BB00EF808E
:1008D3000F50EBF9E4C39AFAE49BFBE49CFCE49924
:1008E300C6CC18C6CB18C6CA18C6F922E4C9C608AE
:1008F300CAC608CBC6D3330308CCC63392F0C3941D
:100903007F402E94184019C9B90704CACBCC225092
:1009130025C309CA33CACB33CBCC33CC33D9F42266
:10092300F4600DC9CCC313CB13CBCA13CAD9F6CC0D
:1009330022E4FCFBFA2214FCFBFA22C3E498F8E459
:1009430099F912097F8026C3E49AFAE49BFBE92014
:10095300E7E912097FE498F8E499F922C3E498F8E7
:10096300E499F912097FE498F8E499F9C3E49AFA4F
:10097300E49BFB22EB20E7CFE920E7E0B90010BBC3
:100983000008E88AF084F8AAF022E4FBC8FA22EB14
:1009930070227B10C833C8C933C9335007C39AC305
:1009A300DBF280069A50012ADBEAC833F4C8C93364
:1009B300F4C9FA2275F008E4C833C8C933C933C986
:1009C3009AC99B5004C92AC93BD5F0ECFBC833F440
:1009D300C8E4C9FA22080808EAC0E0EBC0E086F0E0
:1009E300E7A4FA180986F0E7A42AFA180986F0E7BB
:1009F300A42AFA180986F0E7A42AFA1986F0E7A4CC
:100A0300FBE5F02AFA190886F0E7A42BFBE5F03A98
:100A1300FA190886F0E7A42BFBE5F03AFA1818094F
:100A230086F0E7A4C5F02BFBE43AFA1908E7C5F012
:100A3300C6A426F6E5F03BFBE43AFA1886F0E7A4F1
:100A4300F6E5F00826F6E43B08F6E43A08F6D0E0CB
:100A5300FBD0E0FA22080808E630E711121226124A
:100A63000A70080808C64480C618181822181818EF
:100A7300E9799EC608CAC608CBC608CCC6C370208F
:100A83007996CACBCC7019798ECBCC70137986CC7E
:100A9300700EF9802ACA33CACB33CBCC33CC33198B
:100AA30030E7F2CCCBCA3350147004EA30E00DE4E3
:100AB300CA3ACACB3BCBCC3CCC500209C3E913C6E0
:100AC300CC182313C6CB18C6CA18C6F922E4CFC064
:100AD300E0E4CEC0E0E4CDC0E0E4CCC0E075F020BB
:100AE300E626F608E633F608E633F608E633F618A4
:100AF3001818EC33FCED33FDEE33FEEF33FFC3EC9C
:100B03009709ED9709EE9709EF97191919400FFF08
:100B1300EC97FC09ED97FD09EE97FE191906D5F040
:100B2300BFECF709EDF709EEF709EFF7191919D03B
:100B3300E0FCD0E0FDD0E0FED0E0FF222521C5821D
:100B4300C0E0E52234FFC583C0E0E521C3958224DC
:100B5300F810AF088583228582218008858322854A
:100B63008221D2AFCEF0A3E520F0A37808E608F007
:100B7300A3DEFAEFF0A3E58124FAF8E608F0A3E692
:100B830008F0A3E608F0A30808E608F0A3E608F0D7
:100B9300A315811581D0E0FED0E0F81581158115EC
:100BA30081E8C0E0EEC0E02212141BB90003020B7F
:100BB300FDE4900501786D79138002F0A3D8FCD988
:100BC300FA78239000867A01BA00028007E493A39F
:100BD300F608DAF97A6D7B17900087787C790280C2
:100BE30015E493A3AD82AE838A828B83F0A3AA829A
:100BF300AB838D828E83D8E9D9E77582FF75837DB8
:100C030074001210997582B175832C7400121099B7
:100C1300C0D02521C582C0E0E52234FFC583C0E0F2
:100C2300E521C3958224F310AF08858322858221B1
:100C33008008858322858221D2AFC8F0A3E9F0A37F
:100C4300EAF0A3EBF0A37908E709F0A3D8FAECF0F4
:100C5300A3EDF0A3EEF0A3EFF0A3D0E0F0A3D0E078
:100C6300F0A3D0E0F0A3E520F0A3E5F0F0A3228504
:100C73002283852182E0C0E0A3E0F9A3E0FAA3E0A8
:100C8300FBA37808E0F608A3DFFAE0FCA3E0FDA3EA
:100C9300E0FEA3E0FFA3E0C0E0A3E0C0E0A3E0F533
:100CA300D0A3E0F520A3E0A3F5F010AF08858322DD
:100CB3008582218008858322858221D2AFD082D08C
:100CC30083D0E0F8D0E032E47375F0108E248F25E2
:100CD300858229858328852182852283E0CEA3E02E
:100CE300CF852982852883EBC9EAC8EDCBECCAC33B
:100CF300E833C8E933C9EA33CAEB33CBC3EA9EF519
:100D030027EB9FF526B35004AB26AA27EC33CCED93
:100D130033CDD5F0DAAE24AF25221213C2601C12F4
:100D230013A4601712143070071214427001D322F7
:100D3300C0D01214427006D0D0B322C32233D0D015
:100D4300501430E0F6C3E7960809E7960809E796DA
:100D53000809E796B32220E0D5E6970809E6970845
:100D630009E6970809E697B322D083D082ECC0E066
:100D7300EDC0E0E493A3FCE493A3FDED4C600D12FE
:100D83000EDBEC24FFFCED34FFFD80EFE493A3FCCA
:100D9300E493A3FDED4C600D120FA4EC24FFFCEDD6
:100DA30034FFFD80EFD0E0FDD0E0FCE493A3C0E08E
:100DB300E493C0E0221213C2601B1213A460161244
:100DC30014307007121442600CB322C0D0121442C4
:100DD3007005D0D022C32233D0D0501330E0EBC300
:100DE300E7960809E7960809E7960809E796222097
:100DF300E0E4E6970809E6970809E6970809E69705
:100E030022C0E074F2120C13A2AFE433FED2AFE5BA
:100E13008AA2E3500579021217B1758A00C2EB75F5
:100E23002300EEA2E092AF7F01020C72C0E074F2E5
:100E3300120C13A2AFE433FED2AFE58BA2E0500550
:100E430079041217B1758B00C2E880D3852283859C
:100E53002182E0A3FEE0A3F5207808E0A3F608DFF3
:100E6300FAE0A3FFE0A3C0E0E0A3C0E0E0A3C0E09A
:100E7300E0A3C0E0E0A3C0E010AF08858221858332
:100E8300228008858221858322D2AFD083D082023B
:100E9300109FD083D082E9C0E0E493A3C386F0C55A
:100EA300F095F0F908E493A386F0C5F095F0700B84
:100EB300E493A3C3994005E9048002A3E475F00217
:100EC300A42582F582E5F03583F583D0E0F9E49338
:100ED300A3C0E0E493C0E022C0E0C3E493960874A7
:100EE30001939618400FE4936670080874019366A3
:100EF3001870007019A3A3C3E49396087401939622
:100F030018A3A3400DD0E0D0E0D0E0020DA8A3A326
:100F1300A3A3A3A3D0E0227404800474028000CCB2
:100F2300C0E0EDC0E0E521C39CCCAD2250011D1013
:100F3300AF068C218D2280068C218D22D2AF121018
:100F43001BD0E0FDD0E0FC2274028000CCC0E0EDB9
:100F5300C0E0E521C39CCCAD2250011D10AF068C2F
:100F6300218D2280068C218D22D2AF120FF9D0E081
:100F7300FDD0E0FC221213C260251213A4602012DC
:100F830014307003021442080808E7667010181939
:100F9300E766700A1819E76670041819E76622F401
:100FA30022C0E0C0F088F0E49366700808740193EF
:100FB30066187000A8F0A3A3700BD0F0D0E0D0E0C7
:100FC300D0E0020DA8A3A3D0F0D0E022D083D0823A
:100FD300CCC0E0E493A3600612103C1470FAE493CF
:100FE300A360061211BC1470FAD0E0FCE493A3C012
:100FF300E0E493C0E022CAC0E0E493A3C582CCC579
:1010030082C583CDC583F0A3C582CCC582C583CDFC
:10101300C583DAE5D0E0CA22CAC0E0E0A3C582CC2A
:10102300C582C583CDC583F0A3C582CCC582C583E4
:10103300CDC583DAE6D0E0CA22C0E0E493A3D39C13
:101043005010E493A3C39C400AD0E0D0E0D0E00268
:101053000FECA3A3A3D0E022C008C3E096F50808D1
:10106300A3E096420808A3E096420808A3E0964549
:10107300087001D3D00822700908080822601618E6
:101083001818C6C333C608C633C608C633C608C64F
:1010930033C6D5E0EA22C09FF59FE473D09F22D0E8
:1010A30083D082C09FE493C0E0740193C0E07402D4
:1010B30093F59F22C5822521C582C583352210AFB2
:1010C30007F5228582218007F522858221D2AFC5CB
:1010D3008322C0E0C0D0E8C0E0A8A8D2AFC2C775E1
:1010E3002300E8A2E792AFD0E0F8D0D0D0E03225D9
:1010F30021F58210AF08F521400C15228008F52157
:1011030040021522D2AF852283227404800A74031D
:101113008006740280027401C0E0F4041210F2D05D
:10112300E01213DE2200C0D0252110AF08F52150B4
:101133000C05228008F52150020522D2AFD0D0221F
:10114300BB0102E722C082C08389828A83BB00037A
:10115300E08002E493D083D082226016080808C698
:10116300C313C618C613C618C613C618C613C6D5E6
:10117300E0EA22C3E0C696F608A3E0C696F608A303
:10118300E0C696F608A3E0C696F6222521F8E435D4
:1011930022F9222521FAE43522FB222521FCE4351C
:1011A30022FD22252110AF08F521400C15228008CD
:1011B300F52140021522D2AF22C0E0E493A36C7064
:1011C30009D0E0D0E0D0E0020FECA3A3D0E022E00E
:1011D30066701008A3E066700A08A3E0667004084E
:1011E300A3E06622C3E7960809E7960809E796088D
:1011F30009E796A2D265D03322E76670100809E7A3
:1012030066700A0809E76670040809E76622C3E006
:101213009608A3E09608A3E09608A3E096A2D265F9
:10122300D03322181818E4C396F608E496F608E4B7
:1012330096F608E496F622C3E096F008A3E096F04B
:1012430008A3E096F008A3E096F022C3E697F60819
:1012530009E697F60809E697F60809E697F62218CD
:101263001818E60846087009E626087005E633F400
:10127300220822191919E70947097009E727097094
:1012830005E733F4220922C3E49396087401939685
:101293000874029396087403939622E627F60809C6
:1012A300E637F60809E637F60809E637F62270044A
:1012B30022600D18C6C333C608C633C6D5E0F4187A
:1012C30022E657F60809E657F60809E657F608092D
:1012D300E657F622E026F608A3E036F608A3E03642
:1012E300F608A3E036F622E026F008A3E036F0087D
:1012F300A3E036F008A3E036F022E056F008A3E0BE
:1013030056F008A3E056F008A3E056F022E647F6AD
:101313000809E647F60809E647F60809E647F6220C
:10132300E056F608A3E056F608A3E056F608A3E055
:1013330056F622600D08C6A2E713C618C613C6D513
:10134300E0F322C6F4C608C6F4C608C6F4C608C647
:10135300F4C622C3E09608A3E09608A3E09608A388
:10136300E09622C3E7960809E7960809E796080975
:10137300E7962275D00075813F752101752205001E
:10138300020BAB600C08C6C313C618C613C6D5E060
:10139300F422E6F008A3E6F008A3E6F008A3E6F0DB
:1013A30022E7094709C3134709336002E733F422ED
:1013B300E0F608A3E0F608A3E0F608A3E0F622E6C9
:1013C300084608C3134608336002E633F42280015B
:1013D30000E9F874FF28F90470F622CAC0E0E6F0C9
:1013E300A308DAFAD0E0FA22E0F8A3E0F9A3E0FADE
:1013F300A3E0FB22E8F0A3E9F0A3EAF0A3EBF022D9
:10140300EAF0A3EBF0A3ECF0A3EDF022E0FAA3E003
:10141300FBA3E0FCA3E0FD22E5C754F84401F5C7B4
:101423007901222521F582E43522F58322E6261867
:10143300461846184622C2AF75D69F02000022E71F
:1014430027194719471947221210A2A5AE031210F4
:10145300A22DAF031210A2E8AF031210A24BB003E8
:101463001210A28FB0031210A229B1031210A2A767
:10147300B1031210A2DAB1031210A2E8B2031210E0
:10148300A208B3031210A25CB3031210A244B40364
:101493001210A246B6031210A2E8B6031210A23825
:1014A300B9031210A2BCB9031210A2C1BC031210DB
:1014B300A2F5BE031210A22DBF031210A28CC0030B
:1014C3001210A296C0031210A2E5C0031210A2B715
:1014D300C2031210A2FFCC051210A233CD051210C5
:1014E300A286CD051210A289CE051210A270C205E4
:1014F3001210A2CEC2051210A210C3051210A232FE
:10150300C3051210A20DC4051210A251C405121076
:10151300A286C4051210A24570001210A2C1700069
:101523001210A2F470001210A22271001210A26015
:1015330071001210A29B73001210A2BA7300121052
:10154300A2FF73001210A29574001210A2E174009E
:101553001210A27575001210A24D76001210A2A9E6
:1015630076001210A20777001210A28477001210DF
:10157300A2BA77001210A20578001210A22B7800ED
:101583001210A2BB78001210A25279001210A29E70
:1015930079001210A2CF79001210A2067A0012105D
:1015A300A28C7B001210A2567C001210A2267D0092
:1015B3001210A21AE2041210A224E2041210A2359D
:1015C300E2041210A24DE2041210A2B9E2041210B6
:1015D300A2DCE2041210A2EFE2041210A20AE30456
:1015E3001210A219E3041210A24EE3041210A27601
:1015F300E3041210A29EE3041210A2CDE30412101E
:10160300A2CAE4041210A217E5041210A22CE504E6
:101613001210A2BEE5041210A20DE6041210A235A8
:10162300E6041210A25AE7041210A227E9041210CA
:10163300A2CAEB041210A2E4EB041210A2EEAB0553
:101643001210A21AAC051210A23AAC051210A26134
:10165300AC051210A2A8AD051210A2DBAD05121045
:10166300A299AE051210A233AF051210A2EEDE0549
:101673001210A2F3DE051210A226DF051210A2B487
:101683009C051210A24A9D051210A2719D0512100D
:10169300A2049E051210A2729E051210A2979E0527
:1016A3001210A2B69E051210A2529F051210A20F8D
:1016B3008A051210A25C8A051210A2A08A051210D4
:1016C300A2AA8A051210A2B48A051210A2108B05D1
:1016D3001210A2848B051210A2E88C051210A2FC32
:1016E3008D051210A29E8E051210A2B88E0512103F
:1016F300A2C18E051210A2BABD051210A281BE05A9
:101703001210A293BE051210A20EBF051210A21C46
:10171300FF041210A22DFF041210A2CBFF0412101B
:10172300A2D6FF041210A2EEFF041210A2E9FF01D9
:101733001210A2E47F001210A270D9051210A28029
:10174300D9051210A295D9051210A249DA05121073
:10175300A26ED7051210A2F1D7051210A257D80511
:101763001210A2F5CA051210A209CB051210A2701D
:10177300CB051210A2B9CB051210A2E1CB051210B2
:10178300A205CC051210A228CC051210A260CC052C
:101793001210A288CC051210A2C3CC051210A2E12C
:1017A300D2051210A26AD3051210A279D305121022
:1017B300A2A9D3051210A2F3D3051210A20AD405CD
:1017C3001210A2CAA4051210A2D8A4051210A25185
:1017D300A5051210A229A6051210A2ECA705121046
:1017E300A231A8051210A256A8051210A2F87F0074
:1017F3001210A2EBC8051210A223C9051210A26E83
:10180300CA051210A2F2CA051210A2FC8E0512100C
:10181300A2288F051210A26C91051210A2AC91059B
:101823001210A2EC91051210A20092051210A21937
:1018330092051210A20B93051210A2B09305121079
:10184300A2C493051210A2E3CE051210A207CF057E
:101853001210A220CF051210A252CF051210A2829D
:10186300CF051210A2AFCF051210A2B9CF051210E7
:10187300A21BD0051210A22AD0051210A234D00543
:101883001210A241D0051210A215BB051210A235E9
:10189300BB051210A274BB051210A28FBB05121058
:1018A300A2AEBB051210A214BC051210A21DBC05EA
:1018B3001210A27ABC051210A289BC051210A2ADA7
:1018C300BC051210A26EBD051210A27BBD0512103D
:1018D300A28CBD051210A242DC051210A28ADC05FF
:1018E3001210A2B6DC051210A25E85051210A2B872
:1018F30086051210A2C686051210A2D986051210FB
:10190300A2EE86051210A20387051210A216870500
:101913001210A28A87051210A2EF87051210A27770
:1019230088051210A2F388051210A2B789051210B8
:10193300A2C789051210A2D689051210A2A9DB0538
:101943001210A2CDDB051210A2F5DB051210A21DA9
:10195300DC051210A21FC0051210A246C00512100A
:10196300A264C0051210A2D7C0051210A242B80586
:101973001210A25BB8051210A267B8051210A27B61
:10198300B8051210A299B8051210A2A3B805121037
:10199300A2ADB8051210A2C0B8051210A246B9052F
:1019A3001210A2BBB9051210A2EAB9051210A2388F
:1019B300BA051210A287BA051210A2A2BA05121014
:1019C300A2ACBA051210A2BDBA051210A200BB0543
:1019D3001210A236DD051210A281DD051210A2BB82
:1019E300F5041210A2E5F5041210A202F604121077
:1019F300A215F6041210A22BF6041210A289F60403
:101A03001210A2C1F6041210A2B5FA041210A2FA1F
:101A1300FB041210A22DFC041210A290FC0412105D
:101A2300A2F0FD041210A218FE041210A22DFE044F
:101A33001210A23DFE041210A281FE041210A2DCB9
:101A4300FE041210A2ECFE041210A21CD405121004
:101A5300A236D4051210A25ED4051210A277D405C3
:101A63001210A29BD4051210A2B9D4051210A2D051
:101A7300D4051210A2FED4051210A219D505121016
:101A8300A24FDA051210A293DA051210A269A80573
:101A93001210A279A8051210A27EA9051210A2B0F5
:101AA300A9051210A2E0A9051210A203AA0512109B
:101AB300A21AAA051210A254AA051210A2B9AA05C5
:101AC3001210A2FBAA051210A23AAB051210A26BC8
:101AD300AB051210A296AB051210A24BD005121043
:101AE300A25DD0051210A271D1051210A274D10506
:101AF3001210A26AD6051210A2A0D6051210A2B621
:101B0300D6051210A2F8D6051210A208D705121096
:101B1300A24CD7051210A256D7051210A2AFF80295
:101B23001210A2F2F8021210A257F9021210A274B4
:101B3300F9021210A216FA021210A21FFA021210D0
:101B4300A264FA021210A28DFA021210A29AFA02E9
:101B53001210A215FB021210A2A0FB021210A2E5A2
:101B6300FB021210A230FC021210A295FC0212100A
:101B7300A2B8FC021210A229FD021210A27EFD02DD
:101B83001210A2B9FD021210A2EEFD021210A20061
:101B9300FE021210A212FE021210A231FE02121055
:101BA300A23AFE021210A2EDFE021210A230FF02B0
:101BB3001210A26EFF021210A2E5DD051210A2A1FF
:101BC300D1051210A2A6C4051210A2DCC40512107E
:101BD300A224C5051210A27DC6051210A2DEAA0416
:101BE3001210A2F7AB041210A231AC041210A2DF40
:101BF300AD041210A20DAE041210A273B0041210A1
:101C0300A2B3B0041210A257B2041210A2E7B20496
:101C13001210A23BB3041210A2DDB3041210A21FD0
:101C2300B4041210A261B4041210A2BEB5041210BF
:101C3300A20CB7041210A243B9041210A271B90482
:101C43001210A298B9041210A2A1B9041210A2F89A
:101C5300B9041210A293BA041210A29BBD0412106D
:101C6300A222BE041210A201DB051210A219DB0589
:101C73001210A223DB051210A277DB051210A2D8E3
:101C830093051210A2EE93051210A28F9405121061
:101C9300A2CE94051210A2EB94051210A21C950576
:101CA3001210A26995051210A29C95051210A2D7D5
:101CB30095051210A2D297051210A23A9805121098
:101CC300A270D8051210A2CFD8051210A20DD90503
:101CD3001210A24ED9051210A28DDD051210A2BD5D
:101CE300CC021210A2C9CC021210A22BCD021210E8
:101CF300A235CD021210A2C6CD021210A202CE024C
:101D03001210A2F2CE021210A23FCF021210A2CEE4
:101D1300CF021210A204D0021210A27FD00212101E
:101D2300A24ED2021210A248D4021210A226D50249
:101D33001210A244D6021210A28AD8021210A2CD07
:101D4300D9021210A27CDA021210A21CDF021210B6
:101D5300A210E0021210A2B4E0021210A2D9E00213
:101D63001210A275E1021210A28AE1021210A2AEB1
:101D7300E1021210A21CE2021210A239E2021210B6
:101D8300A263E2021210A2F9E3021210A21AE40201
:101D93001210A2C0E4021210A208E5021210A25D02
:101DA300E5021210A2FDE5021210A261E602121072
:101DB300A2BFE6021210A268E7021210A2D6E7023F
:101DC3001210A209E8021210A277E8021210A2B2BE
:101DD300E9021210A228EB021210A2C5EB021210A4
:101DE300A203EE021210A26CEE021210A296EE02F1
:101DF3001210A2B2F0021210A259F3021210A28220
:101E0300F4021210A271BE041210A24CC0041210EC
:101E1300A28EC4041210A2D5C5041210A20BC604CC
:101E23001210A2BBC6041210A2FDC7041210A2A373
:101E3300C8041210A2C3C8041210A2E0C8041210EE
:101E4300A2FAC9041210A2CCCA041210A2E3CA0453
:101E53001210A2F4CA041210A20FCB041210A2365D
:101E6300CB041210A294DE051210A20080051210FA
:101E7300A28D80051210A20781051210A2288105E8
:101E83001210A20482051210A27183051210A21A65
:101E930096041210A24996041210A2C196041210BD
:101EA300A2C497041210A22098041210A2979904B6
:101EB3001210A2B399041210A2059A041210A24898
:101EC3009A041210A25B9A041210A2AD9A04121083
:101ED300A2689B041210A2E29B041210A20C9C04A1
:101EE3001210A2449C041210A2C09D041210A299C5
:101EF3009E041210A2E29F041210A2B5A0041210B5
:101F0300A23DA1041210A285A1041210A29FA10454
:101F13001210A2E6A1041210A206A2041210A29C9F
:101F2300A2041210A222A3041210A27CA304121072
:101F3300A2C0A3041210A251A6041210A274A704F3
:101F43001210A2B0A7041210A2A2A8041210A2CACF
:101F5300A8041210A2CDA8041210A2D7A80412102C
:101F6300A2EAA8041210A269A9041210A29FA9044C
:101F73001210A2CBA9041210A2F2A9041210A216E5
:101F8300AA041210A287AA041210A295AA0412107E
:101F9300A291F2041210A2B9DC051210A2C5DC054D
:101FA3001210A2F9DC051210A2E6FF011210A20022
:101FB30080041210A258AE031210A26981041210F9
:101FC300A2B281041210A21A82041210A27882040F
:101FD3001210A27B82041210A2C782041210A23A2A
:101FE30083041210A2C283041210A2C58304121028
:101FF300A24F84041210A29084041210A2738804C6
:102003001210A20C8A041210A26A8A041210A2E50A
:102013008D041210A21E8F041210A2EEA703121039
:10202300A22B91041210A23692041210A2879404D8
:102033001210A2BFD1041210A269D2041210A2CFAF
:10204300D2041210A2E8D2041210A264D304121014
:10205300A2BAD3041210A20AD4041210A271D40497
:102063001210A2EAD5041210A218D7041210A29DCE
:10207300D7041210A2A3D9041210A24CDA0412102E
:10208300A2F5DA041210A2B7DB041210A260DD0479
:102093001210A208DF041210A2B9DF041210A2D199
:1020A300E0041210A24CC4031210A2C0C403121005
:1020B300A208C5031210A24CC5031210A295C503B2
:1020C3001210A2DFC5031210A217C6031210A295A5
:1020D300C6031210A2EFC6031210A243C8031210C4
:1020E300A2D4C8031210A22CC9031210A246C9031A
:1020F3001210A26EC9031210A2C6C9031210A23590
:10210300CC031210A254CC031210A238CD03121028
:10211300A268CE031210A2E5CE031210A234CF039D
:102123001210A295CF031210A23BD0031210A209E2
:10213300D2031210A209D3031210A287D4031210E0
:10214300A268D6031210A2CED8031210A27EDA031D
:102153001210A24EDB031210A2BCDB031210A2D397
:10216300DB031210A2CBDC031210A2BBDD0312109F
:10217300A226DE031210A28BB2051210A2D7B3055A
:102183001210A294B4051210A2F8B4051210A2659D
:10219300AF051210A280AF051210A2C4AF05121032
:1021A300A2EAAF051210A210B0051210A228B005C2
:1021B3001210A28BB0051210A2A0B0051210A2C378
:1021C300B1051210A2CCB1051210A2D5B10512109F
:1021D300A2DEB1051210A2E8B1051210A2479805BC
:1021E3001210A2469C051210A24B9C051210A24D80
:1021F3009C051210A2717E001210A260DF0512105E
:10220300A26CB5051210A24CD5051210A29AFF02BA
:102213001210A2DCC6051210A234DF051210A2DFD1
:10222300A0051210A23DDE051210A24DDE0512100C
:10223300A2B2FB011210A20080031210A23380038A
:102243001210A29F80031210A23A81031210A2D788
:1022530081031210A21C82031210A23E82031210E9
:10226300A25782031210A27D82031210A29F82033F
:102273001210A2DD82031210A22183031210A243C3
:1022830083031210A2A583031210A26C84031210FD
:10229300A22385031210A29585031210A260860360
:1022A3001210A2B386031210A21987031210A253AD
:1022B30087031210A2A587031210A213880312101A
:1022C300A27E88031210A28188031210A20289033E
:1022D3001210A29989031210A2198A031210A238AC
:1022E3008A031210A29C8B031210A2A98B03121053
:1022F300A2B58C031210A2C28C031210A2CB8C03C2
:102303001210A2A38E031210A2BD8F031210A236C5
:1023130090031210A2A890031210A2CA90031210E5
:10232300A25E91031210A23293031210A209970323
:102333001210A21D97031210A22D97031210A23799
:1023430097031210A24097031210A2499703121089
:10235300A25397031210A28097031210A2A9970306
:102363001210A2B497031210A2D897031210A2FC62
:1023730097031210A26698031210A2AC98031210CE
:10238300A2C998031210A24699031210A27D9903C1
:102393001210A2BC99031210A2099A031210A28F61
:1023A3009A031210A25D9C031210A2E09C03121068
:1023B300A2C49D031210A22BA0031210A284A00397
:1023C3001210A2CEA0031210A229A2031210A25E21
:1023D300A2031210A2B0A2031210A265A30312104B
:1023E300A214A4031210A251A4031210A2E6A40380
:1023F3001210A252A5031210A20080021210A232E0
:1024030080021210A26080021210A2368202121001
:10241300A21683021210A26E83021210A2A98402D2
:102423001210A2F584021210A21E88021210A21129
:102433008B021210A2618C021210A2F78C021210EE
:10244300A2038D021210A2358D021210A2B88E02C1
:102453001210A26990021210A2FD90021210A24063
:1024630091021210A2BE91021210A2DB910212106D
:10247300A20B92021210A24092021210A210930217
:102483001210A2B993021210A23F96021210A25F79
:1024930097021210A24A98021210A2CC98021210AC
:1024A300A2009D021210A23D9D021210A2959D0250
:1024B3001210A2C89D021210A2329E021210A2682C
:1024C3009E021210A2F39E021210A24B9F02121040
:1024D300A222A0021210A2DBA0021210A276A10275
:1024E3001210A27EA4021210A29AA5021210A23DFB
:1024F300A9021210A231AA021210A234AA021210C7
:10250300A263AA021210A269AC021210A242AD0287
:102513001210A285AD021210A2DBAE021210A21A93
:10252300AF021210A2A3AF021210A2D7AF02121071
:10253300A29CB0021210A2B4B2021210A225B302DE
:102543001210A265B3021210A2F3B3021210A21565
:10255300B5021210A2D7B5021210A2DEB7021210F2
:10256300A2F6B7021210A20AB8021210A242B802CF
:102573001210A270B8021210A2EFB9021210A21424
:10258300BB021210A271BB021210A223BC021210D2
:10259300A24ABC021210A211BD021210A2A9BD02CE
:1025A3001210A2CFBF021210A204C0021210A2671F
:1025B300C0021210A296C1021210A23EC202121051
:1025C300A26FC2021210A287C2021210A216C30285
:1025D3001210A2CAC5021210A2A2C7021210A2BEF2
:1025E300C7021210A2DAC7021210A2A8C802121060
:1025F300A29BCC021210A24E33001210A280330011
:102603001210A26F37001210A2BB37001210A201E2
:1026130038001210A2A338001210A2FF38001210C3
:10262300A24439001210A28B3A001210A29F3B0061
:102633001210A28E3F001210A21240001210A21F0D
:1026430041001210A27B41001210A26B4300121032
:10265300A2E043001210A2EA43001210A2F74300C3
:102663001210A22244001210A20945001210A2B3B4
:1026730045001210A23146001210A251460012105A
:10268300A27A46001210A29C46001210A2FC480037
:102693001210A2C249001210A2074A001210A2840B
:1026A3004A001210A2354B001210A2674B00121001
:1026B300A2AD4B001210A2E94B001210A2394C003C
:1026C3001210A28D4C001210A2E34C001210A22F84
:1026D3004D001210A29C4D001210A2174E001210B2
:1026E300A2E24F001210A2E250001210A207520001
:1026F3001210A24655001210A25958001210A21629
:1027030059001210A25A59001210A20A5B001210AB
:10271300A21E5B001210A2285B001210A2325B0003
:102723001210A23E5B001210A25A5B001210A20507
:102733005C001210A2445C001210A24E5C00121046
:10274300A2585C001210A2C85C001210A2135D0014
:102753001210A2285E001210A2845E001210A205BD
:102763005F001210A2C45F001210A2CD600012100D
:10277300A20162001210A2EF62001210A20763000E
:102783001210A26263001210A28063001210A2C88A
:1027930063001210A2EF63001210A28A64001210E9
:1027A300A25065001210A2E265001210A25C66003E
:1027B3001210A27667001210A22368001210A24B17
:1027C30069001210A29B69001210A2FF6900121087
:1027D300A2616A001210A28F6A001210A2B36A00EB
:1027E3001210A2E86A001210A2196B001210A24C78
:1027F3006B001210A26C6B001210A2D46B001210AB
:10280300A2C86C001210A2236D001210A24C6D001E
:102813001210A2D46D001210A2576E001210A282E1
:102823006E001210A2676F001210A29DF001121029
:10283300A2D5F0011210A2F6F0011210A238F10194
:102843001210A29AF1011210A2A4F1011210A2B463
:10285300F1011210A2EFF1011210A2CFF501121033
:10286300A2BCF7011210A2A2F9011210A239FA01B7
:102873001210A2DBFA011210A2D6C4011210A25444
:10288300C5011210A2B0C5011210A2FBC50112109E
:10289300A216C6011210A241C6011210A25EC60101
:1028A3001210A26AC6011210A201C8011210A21AC4
:1028B300C8011210A29FC8011210A2B2C8011210BF
:1028C300A2D1C8011210A275C9011210A2F6CA0141
:1028D3001210A2A9CC011210A23FCD011210A242E4
:1028E300CD011210A2B2CD011210A2D0CD0112104F
:1028F300A267CE011210A2AFCE011210A2B2CE0176
:102903001210A278CF011210A2E5CF011210A20B70
:10291300D0011210A296D0011210A2B4D00112104D
:10292300A2FAD0011210A2AED1011210A2F8D10165
:102933001210A227D2011210A284D2011210A2B93E
:10294300D2011210A2E5D2011210A2F3D201121089
:10295300A240D3011210A2B0D3011210A2F9D301E5
:102963001210A245D4011210A271D4011210A27C3C
:10297300D4011210A29AD4011210A285D50112100B
:10298300A28FD5011210A2CAD5011210A2DAD50165
:102993001210A2E3D5011210A237D6011210A24BD6
:1029A300D6011210A27AD7011210A291D7011210E8
:1029B300A2A6D7011210A234D8011210A279D8010D
:1029C3001210A205D9011210A210D9011210A2529D
:1029D300DA011210A26DDA011210A2B9DA01121093
:1029E300A228DB011210A261DB011210A27BDB0122
:1029F3001210A2BDDB011210A28DDE011210A23A49
:102A0300DF011210A2A7DF011210A2E7E1011210E9
:102A1300A2FFE1011210A202E2011210A20EE201D2
:102A23001210A222E2011210A22AE2011210A25DE8
:102A3300E2011210A25FE3011210A2E6E3011210F9
:102A4300A256E4011210A2D8E4011210A299E501E2
:102A53001210A2B8E5011210A259E6011210A2B693
:102A6300E6011210A2B9E6011210A2E6E601121065
:102A7300A2FBE6011210A26FE7011210A2BEE80149
:102A83001210A2C4E9011210A24FEA011210A26AA5
:102A9300EB011210A232EC011210A263EC0112102E
:102AA300A286EC011210A28FEC011210A2BEEC015F
:102AB3001210A24EED011210A204EE011210A2791F
:102AC300EE011210A220EF011210A295EF011210D5
:102AD300A2CCEF011210A20AF0011210A240F001E1
:102AE3001210A22BAE031210A2F4F1041210A2EAE8
:102AF300F1041210A294F1041210A280F104121036
:102B0300A2DFF0041210A2E3EF041210A20DEF04EF
:102B13001210A216ED041210A269EC041210A2FB0B
:102B2300EB041210A20FF5031210A294AD031210BE
:102B3300A22380041210A205F5031210A29AF40333
:102B43001210A22FA7031210A28CA6031210A2EE3A
:102B5300F2031210A2ACF2031210A2CCF103121072
:102B6300A2B6F1031210A277F1031210A2D2F0035E
:102B73001210A2CCED031210A2BAEB031210A2871B
:102B8300EB031210A222EB031210A2B5EA031210F8
:102B9300A274EA031210A2ADE9031210A248E903DA
:102BA3001210A2F3E8031210A296E8031210A26D0A
:102BB300E7031210A20AE7031210A254E60312104D
:102BC300A24FE6031210A243E6031210A2F6E20399
:102BD3001210A24BA6031210A22CA6031210A2F9E4
:102BE300A5031210A2E4A5031210A2B9A5031210A3
:102BF300A275F5041210A23DF5041210A2D0E2034F
:102C03001210A275E2031210A220E2031210A2E135
:102C1300E1031210A2E6F4041210A2CEE103121093
:102C2300A2C3E1031210A29FE1031210A2AEDF03BD
:102C33001210A22DDF031210A235AB031210A2E96A
:102C4300DE031210A28D90041210A2BDDE03121037
:102C5300A29EFF031210A260FF031210A233FF0310
:102C63001210A2FFFE031210A29EFE031210A286F0
:102C7300FE031210A262FE031210A22BFB0312101A
:102C8300A2F7F8031210A2DEF6031210A26DF603E8
:102C93001210A21CF6031210A2D6F5031210A23FC3
:102CA300F5031210A24FF3041210A2C8AA040000E5
:102CB3000080FB0000228F000100611887000100E3
:102CC3005F18350004002818250002002C18260080
:102CD30002002E18270002003018280001003A18BD
:102CE300290001003B18840004005B1586000100E5
:102CF3007B172A0001003C182B0001003D182C0013
:102D0300010041182D00080067152E00010042182C
:102D13002F00010043183000010044183100010066
:102D23004518320001006F1533000100701534009F
:102D330001004618360001007115380001004718DC
:102D4300390001004018830002005D186300010090
:102D53007D15640001003E18650001003F186D00F9
:102D630001007E15710008005F15660001005C1804
:102D7300430001004D18440002004E1845000100B5
:102D83005018460002005118470008007515480006
:102D9300010053184B00010054180400010060188F
:102DA300A1000100641837000100631888000100C6
:102DB30062183C00010072153D00010048184900EB
:102DC30002005518670001007F154D0002005718D7
:102DD3004E00010059184F0002005A183E0001002E
:102DE3004C18510001007315520001004A1853009A
:102DF30001004B185400010074150000000000008E
:102E0300000000002001B0C3000001002001B1C395
:102E1300000002002001ADC3000003002001ACC389
:102E230000000400420104C20000050042012DC15C
:102E3300000006004201FAC0000007003001AFC3E2
:102E4300000000404201FAC00000FDFF2101A8C3B9
:102E530001002000200583170100210020058417AD
:102E6300010030004223DD17010003F02127DB17A7
:102E73000204000029054714020401F02127CB179F
:102E8300020402F02127D317030400002905491483
:102E93000304100029054B14030414002805C41768
:102EA300030401F02127CD17030402F02127D517CE
:102EB3000504000021054D14050401F02127CF1757
:102EC300050402F02127D71700013636010100015E
:102ED30002010001030100010401060605020000CE
:102EE300070100340801000F090401010D0100FF6F
:102EF3000E08000017020000190100FF1A0100016B
:102F03001B0100FE1C0100081D0200001F0100013F
:102F130020010001210200002301000F2402000010
:102F23002601000127010008280200FF2A010007EB
:102F33002B0102402C0100002D0100012E01000194
:102F43002F0100FF30010B1D310800003A0100087A
:102F53003B01000F3C0100013D0100FF3E04000066
:102F630042040000460400004A0400004E0400002E
:102F730052040000560400005A04000001037103C8
:102F830001030103010301030103220302030103FC
:102F93001003000300030003000300030003000306
:102FA3004203000324030603000300030403120384
:102FB300250323032503230304030403000300035E
:102FC30000034403000300032303000365032100FC
:102FD300350381030003050300030003000300031B
:102FE3002503230303027102300160021102700200
:102FF3000102020202028002100261023A00410051
:103003006302730272026202430200021302380077
:103013000002000204021202000200020002000287
:1030230004020402370037003C0244020002390064
:10303300000200026502000235028102000205025D
:10304300820283020002030071003001600011005C
:103053007000310220035004800010006100000062
:103063001400630073007200620043000000130049
:103073000600000000000400120000000000000031
:10308300000004000400370037003C024400000045
:103093000000000000006500000035008100000012
:1030A300050000008300000001017101010101011D
:1030B30011010101310101010101800110016101CF
:1030C3003B001400630173017201620143010001BB
:1030D300130106013D013500040112010001000145
:1030E3000001000104010401330133013C014401E7
:1030F3003201360000010001650100013500810144
:103103000001050182018301000136000100060070
:1031130000000F000000000000000000000000009D
:1031230003FFFF00000403FFFF0000FFFF0FF40194
:103133000005C4040320000100000B000000000090
:1031430000000003010F0000000000000000000069
:10315300000000000000000000000000000000006C
:103163000000000000000000C31DED1DC91DFD1C73
:10317300CF1DF31DCF1DFF1DD51DFD1CCF1DF31D41
:10318300DB1DFD1C00000000E11DFD1C0000000014
:1031930000000000E71DFD1C00000000000000000F
:1031A300000000000000000000000000000000001C
:1031B300000000000000000000000000000000000C
:1031C3000000000000005D2001005D200200D31F0D
:1031D3000280CD1F0300D91F0400DF1F0480E51FF9
:1031E3000500EB1F0600F71F3100092033000F20F5
:1031F30034001520FFFF0000030003000400080053
:1032030010001F003E007B00F600EC01D703AF0760
:103213005D0FB91E713D000006000000100151143E
:103223000604000018055214060410002127C517D0
:10323300060411002127C7170004000021054F14BD
:10324300000401F02127D117000400F02127C9173A
:10325300000402F02127D91707ECFDFDFDECDCDCAF
:10326300CCBCACAC9C9C8C7C7C6C6C5C5C5C4C4C3B
:103273003C3C2C2C1C1C03EAF5E5D5D5C5B5A5951E
:1032830095858575756565555545453535252515EB
:1032930015050A6F26023926054526073F260C2108
:1032A300260D2D26FF000000160F00000B150B0244
:1032B3000002220F3300000E0F5A69674265654111
:1032C3006C6C69616E63653039D0D1D2D3D4D5D6F5
:1032D300D7D8D9DADBDCDDDEDF303017181921303F
:1032E3001B1D1F3000034D4C4651181A25050200C3
:1032F3000119161816161823030030301618192052
:10330300231A1C1E30003C40423A3F3F392F4730BE
:103313000C0E020B040B0A0708000F020402010142
:1033230001010902E803000000BE040A01002400B1
:103333000300E803FF0409190404031E1E030A0C17
:1033430004100828020C0508150F0574F7120B3F2B
:10335300E9901652F0901607E4F0121ADB90166A01
:10336300E4F0A3F0901653F0A3F01227BF121AE172
:1033730090158FE4F0A3F01221BF024CB474F01245
:103383000B3F74D31211A612671054806066901617
:1033930052E0F9121B538A088B09AF09EA4F604CBC
:1033A3007C0080010CEC75F003A4F8A9F074952857
:1033B300F582743239F583E493F46029E493F88A4F
:1033C300828B83E06870DDEC75F003A4F8749628B3
:1033D300F582743239F583E493C0E0740193F58385
:1033E300D082120CCAAA08EFFB121B41126E426470
:1033F3008002374F852182852283A3E05420601FFA
:103403001226D58A088B09AF09EA4F600A12262DC6
:10341300AA08EFFB121B41126E42642002374F854C
:103423002182852283E0A2E0504290160CE0640FD3
:10343300702E90093D126E4D90093DC3E094E9A3AF
:10344300E09403400A7A007B8090147F124D9679B2
:1034530000122603E9600990182812140F12261B84
:10346300852182852283E06401023734542070036E
:103473000237397A207B00901652E0F9121CA9EA30
:103483004B4C4D701A9016661213EBE8494A4B7079
:103493000E750801750900750A00750B00806D75BE
:1034A3000C00750D00750E00750F00121CBB8A0809
:1034B3008B098C0A8D0B9016661213EBE8494A4B65
:1034C3006031901666780812105B400E750CFF751C
:1034D3000DFF750EFF750F7F801985080C85090D8B
:1034E3008C0E8D0F901666780C1211767401780C81
:1034F30012115D850C08850D09850E0A850F0BE5F4
:10350300084509450A450B70030236937C0079048C
:103513007A007B001226AB8A0C8B0DAE0CAF0D022A
:1035230035D7740212142674FFF074031214267430
:10353300FFF0740412142674FF124E091265CA7444
:103543000712119E126880E96401706A12375B44A6
:1035530080F8A3E0F97428121426E8F0A3E9126BAB
:1035630014E0C0E0742A121426D0E0124DF6540879
:1035730060167428121426A3E04401123768C0E0D1
:10358300742C121426D0E0F01267536011E8240B58
:10359300123F4EF87416121426E8F0A3E4F090C319
:1035A3007C120F1A740612119E740B1211961223B9
:1035B3002774041211288E828F83A3A3A3A3A3A32A
:1035C300A3A3A37406123768F912268D7405121487
:1035D300261268D7EE4F70030236937C007904EE0F
:1035E300FAEFFB1226AB7405121426EAF0A3EB12D2
:1035F3004B20E0F50CA3E0F50DE4F50EF50F78088C
:10360300790C1213664023EE2404F8E43FF985088D
:103613000C85090D8882F583C3E0950CF0A3E09532
:103623000D126F37E84970A4800C8E828F83A3A399
:10363300A3A3E4F0A3F08E828F83A3A3A3A3A3A3E6
:10364300A3A3A3A3E064018E828F83A3A3A3A3A355
:10365300A37020E0540460030235258E828F83A378
:10366300A3A3A3A3A3A3A3A37406F07AB712388ECC
:103673000235CFA3A3A3A3E060030235258E828F77
:1036830083A3A3A3A3A3A3A3A3A37401F00235CF8E
:1036930012267B7C0079017A007B001226ABEA4B71
:1036A3006003124D8F7C0079047A007B001226ABF5
:1036B300EA4B701380448A828B83A3A3A3A312686B
:1036C300EFEE98EF99400B8A828B83A3A3A3A312F7
:1036D30068D77C0079041226AB8B0BA90BEA4970DF
:1036E300D5C3E5089EE5099F500DC3EE9508FEEF8F
:1036F3009509FFEE4F700D124D8F901666123761CC
:10370300A3F08024EE2EFEEF338E08F509E4F50ACC
:10371300F50B780812110D7A20123937121128127D
:103723001CBB901666121403852182852283E064F4
:1037330020FAA3E08016A3E054046013125FA712DB
:103743002C097901124115126E426404FB80047A3C
:10375300007B00742D02672FEE12673DE022E4F038
:10376300A3F0A3F022124DFBA3A3E022C082C083E7
:1037730074EA1211A67C167D007900AA21AB2212ED
:103783001B2974081214267402F09015FB1261E3CE
:103793001237AF74091214261261FB741312142624
:1037A300E4125E7A1221B374160250C5E8F0A3E95D
:1037B300F09016051268BF2274F7120B3F74DA12E9
:1037C30011A6EAFEEBFFEA4F602DAC21AD221226D3
:1037D300F37406121426E0601E7417121426E0FD1B
:1037E3007401121426E0FCEEFAEFFB79001225D9DE
:1037F300E9600479A4800279007426024CB174F75D
:10380300120B3FEAFEEBFF8A82F583A3A3A3A3A3D4
:10381300A3E0544060178A828B831266F0124FD460
:1038230060067AFF7BFF80151266EC80039015FB20
:103833001265CA74FE6A700374FF6B60411266EC12
:10384300126716122789E98E828F83600B1262D961
:10385300126F02E4F0A38003126EF1F07C097D265F
:103863008E828F8312464AE9F5087015EE4F600980
:103873007901EEFAEFFB122687A908024CB475080A
:10388300CDAA0812388EE960E380EE8E828F831210
:1038930062DD240CF582E438F583E0F91226152263
:1038A30074F6120B3FE9FEEAFF7A0F7B00121B3B13
:1038B300EA4B601A8A828B83740CF0EEA3A3F0EFB9
:1038C3008A828B83124A6F125ED87900802BEEF9BD
:1038D3001226B18B09A909EA49601C8A828B83A34A
:1038E300A3A3A3A3A3A3A3A37406124A78E0F91284
:1038F30023C9EEF912268D7910025CC374F4120BFE
:103903003F8A088B098C0A8D0B90160CE0640F70AC
:103913001EEA4B4C4D6018901607E064086005E002
:103923006404700B780812110D1239351211280234
:103933003B9A7A017B00901652E0F9121C977404AB
:103943002274F4120B3F74FC1211A6EAFEEBFF8AF9
:1039530082F583A3A3E0F91226B18A088B09EA4B07
:103963007003023A7D8E828F83A3A882A983E0C06D
:10397300E0EA125ECED0E01248DE64F160288E8267
:103983008F83A3E064CD601E8E828F83A3E0641ACD
:1039930060148E828F83A3E064E9600A8E828F8332
:1039A300A3E064E170337900122687E9602BE50810
:1039B3002404F50AE43509F50B850882850983A3F8
:1039C300A3A3A3A3A31249B41248BC121AED850AF8
:1039D30082850B8312671680708E828F83A3E0C06B
:1039E300E07402121426D0E01250D31251F612439F
:1039F30064C0E07403121426D0E0F0E508126BBF34
:103A030012400DE0AA21AB2270051223218003127C
:103A130027717402121426E064E9702D85088285EB
:103A23000983124173750A01780A121119750AE99B
:103A3300780A121119124890124331FCA3E0FD8A4F
:103A4300828B8312435B121128850882850983A325
:103A5300A3A3A3A3A3A3A3A3E06402701285088274
:103A6300850983A3A3A3A3A3A3A3A3A37406F08E8F
:103A7300828F83A3A3E0F912268D12267B90182E42
:103A8300123F7F7404023B9774F4120B3FEAFEEB80
:103A9300FF7508008A82F583A3A3A3A3A3E060387C
:103AA3007508081265BD79FF122459EA4B60107539
:103AB300082C8E828F83A3A3A3A3A3E0D2E0F08E6E
:103AC300828F83A3A3A3A3A3E0540364016003022F
:103AD3003B86430811023B86EA24181254BC603625
:103AE300EA241A1254BC6003F4701312689F700323
:103AF300A3E0696003023B86750822023B86EA2441
:103B03001B123B8A241A1254BCFAEE24191254BC19
:103B1300F91223B7806D8A828B83A3A3A3A3A3A3E4
:103B2300A3A3A3123F6A70037508018E828F8312C9
:103B330068A37003A3E0697006E508D2E1F508E520
:103B43000860158E828F83A3A3E07006E508D2E593
:103B53008004E508D2E6F508124FC764017006E554
:103B630008D2E0F5088E828F83A3A3E06015EE24CC
:103B73001D1257DBF9122777E964016006E508C2D5
:103B8300E0F508A9088010F582E43FF583126F5A27
:103B9300EA2274091211287F04020E4F74F0120BEB
:103BA3003F74D71211A6EAFEEBFF8A82F583A3A323
:103BB300A3A3E0600E90182C12675A600690182C8D
:103BC300123F7F740312119E8E828F83A3A3A312CD
:103BD30060A61265C81226F3E97003023D3078012E
:103BE3007405121426E0C39402400278007407128D
:103BF3001426E0C3940240027800740C121426E0E9
:103C030064F87003A3E0F47003023D30740C1214E3
:103C130026E064F97003A3E0F47003023D30740CF2
:103C2300121426E064FA7003A3E0F47003023D303B
:103C3300740C121426E064FB7003A3E0F470030217
:103C43003D307406121426E0F99015F5E06960031F
:103C5300023D30E8A2E04003023D307427121426EF
:103C6300E06003023D30EE24131268B5742212148F
:103C7300261260B0241C1268B57410121426126147
:103C8300FB7409121426E0601D741A121426E0FD59
:103C93007404121426E0FC8E828F831265C87901A6
:103CA3001225D9E9703B7403121196122627E9F500
:103CB3000C7409121426E0702C9015EFE060267442
:103CC30022596422601F7442596442701474201292
:103CD3001426123F64600E7420121426123F5D6096
:103CE300047ACF804AE9A2E6504D742012142612BA
:103CF30057E124FD600F14600C24FD600824FD606F
:103D03000424FE70287420121426123F56700E7479
:103D130020121426125E07A3E0640D601A740312C6
:103D230011961227A1E96401700D023F467AD37BF5
:103D330000121FA9023F46EE242DF582E43FF583CE
:103D430012416A7003A3E069701D750800780812B8
:103D530011197808121119EE242F1254BCF9123FCD
:103D63007012435B1211287409121426E0700302C7
:103D73003E0E123F701265CA1227EF8A0E8B0FEAAE
:103D83004B7003023E9F7404121426E0F88E828F58
:103D930083A3A3E028F8A3E03400F9E8240D123F3D
:103DA3004EF88A828B83A3A3A3E068600EE88A821D
:103DB3008B83A3A3A3124A681237627904E912140E
:103DC300261254DBA3E02AF8A3E034008882F583AB
:103DD300A3AA82AB83121B2F8A088B098C0A8D0B33
:103DE300850E82850F83A3A3A3A3780812105B40DB
:103DF30003023F4690C2E078081212D7850E8285EF
:103E03000F83A3A3126F60A31251FF901607E06400
:103E1300046008E064096003023F46E50CA2E54044
:103E230003023ED9EE242F1254C4F0EE2430125470
:103E3300BCC0E07401121426D0E0F0EE2431125419
:103E4300BCC0E07402121426D0E0F07414121426DD
:103E5300E064017026740E1214261248B72413125C
:103E630054BC687003A3E0697011740C1214261219
:103E73003F6A70077414121426E4F0EE2425F582C9
:103E8300E43FF583120F1A740412119E7407121182
:103E9300961223277404121128023F4690164CE011
:103EA30064016003023E0E7420121426123F6470F4
:103EB30009E50CA2E65003023E0E7410121426E02C
:103EC300F47003A3E0F4607BEEFCEFFD74031211C6
:103ED30096122633806DA2E65069742012142612BE
:103EE30062E97016741A121426E0640270557403A2
:103EF300121196790012276B80497420121426122E
:103F03003F5D7014741A121426E064047035740350
:103F130012119612275F802B7420121426123F561B
:103F2300700C790074031211961227AD801574205A
:103F3300121426125E07E0640C70087403121196C3
:103F43001227B9742902672FE82406F582E439F5AC
:103F530083E0221266F6E06403221266F6E0640749
:103F6300221257E5640622124FD8640222EE242B54
:103F7300F582E43F126F58EE124FAD22E0F508A32D
:103F8300E0AA08FBE4FCFD12261B2274F4120B3F8B
:103F9300EAFEEBFF8C088D0990156FE0600F126845
:103FA3009F7003A3E06970051223A5805379001263
:103FB30065BD1223D58A828B83E5824583602CA35A
:103FC300A3A3A3A3A3E054186021E508241C124073
:103FD3000A120F1E124006120F1EEE24181243423D
:103FE300125AA2126877121128801579008E828FD7
:103FF30083A3A3A31262CF125AA21265CA1223ABE0
:10400300023B9AE5082413F582E43509F58322740B
:10401300F7120B3F74F71211A6EAFEEBFF90160797
:10402300E06403600DE064016008E064096003027A
:1040330041108A828B83A3E060030240DE7C007D13
:10404300007A027B00121AE712691C8A821268B98D
:104053009015F81261FB79531221A1901607E064C1
:104063000960099016051265CA1227E98521828520
:1040730022837401125E1F9016077404F0740112F8
:104083001196794A12219B740112119E7AFD7B15B8
:10409300121CD3901482E0640B70057406F0800543
:1040A30079001241159015F81262D57A037B00123C
:1040B3001AE79015FB1262D57A047B00121AE79077
:1040C30015F2E0A2E35004D2F08002C2F0125E0CBB
:1040D30090182812140F12261B802FFC7D007A03E0
:1040E3007B10121AE7901482E0640B7003740AF0D9
:1040F300901573E4F0FA7B40125BFC8E828F83A3EE
:10410300E0F9124115901607E4F012265D740902D6
:104113004CB19016051265CE12233922C082C0839A
:1041230090158F12675A7017901607E024FB6005ED
:10413300146007800A901595801F901597801AE8E0
:10414300496007123F4B6401700C8A828B83A3E0A2
:10415300F912232D800E90168112675A6006125EA3
:1041630008120CCA0259531268BF901605E0682260
:104173001268BFE8FAE9FB2274F5120B3F74D812F8
:1041830011A68A088B098A828B83A3A3A3A3A3A363
:10419300A3A3E0C3940F500302432C8A828B83A30F
:1041A300A3A31268D7741512119E8A828B83A3A3CB
:1041B300A3A3A3A3A3A3124331FAA3E0FB1226698B
:1041C3007415121426E0702E850882850983A3A333
:1041D300A3A3A3A3A3A3E0C3940B401A8E828F834C
:1041E300A3A3A3A3A3A3A3A3E064027009EE240BD8
:1041F3001254BCF4600302432C7417121426E060BB
:10420300076402600302432C901607E06402601CFB
:10421300E06406601790158F12675A700302432CEF
:10422300123F4B6401600302432C802590158F12CB
:10423300675A701D75080078081211197808121151
:1042430019EE24101243428E828F8312435B1211A4
:10425300288E828F83126F2F1248E71268BB740275
:104263001214261260B012375CC0E07404121426D4
:10427300D0E0124364F508A3E0F509740F7808123F
:1042830013867405121426E508F07419121426E037
:10429300C0E07406121426D0E0F0741B121426E05A
:1042A300C0E07407121426D0E0F07416121426E04E
:1042B300C0E07409121426D0E0F07417121426E03B
:1042C300C0E07408121426D0E0F0EE24101254BC9F
:1042D300C0E0740A121426D0E0F0741A121426E017
:1042E300C0E0740B121426D0E0F07427121426E0F9
:1042F300C0E0740C121426D0E0F0741C121426A92A
:1043030082AA8389088A09750A0078081211117C28
:10431300087D007410121426AA82AB831254B312C0
:104323001128AA21AB221223337428024E0FE0F97D
:104333008A828B83A3A3A3A3A3A3A3A3A3E022F5AE
:1043430082E43FF583E0F98E828F83A3A3A3A3A323
:10435300A3A3A3A3126F5A221265CE1227297402B4
:1043630022F0EE125AA7E02274F2120B3F74F812F5
:1043730011A68A0A8B0B8C0C8D0D890890C250AC48
:1043830021AD22740812101BC200AC0AAD0BAA2186
:10439300AB2212654B7002D2009016538013AC0A05
:1043A300AD0BEE240BFAE43FFB12654B701B124F6F
:1043B3009E124C31601EA20040E48E828F83E06522
:1043C3000C7004A3E0650D70E58E828F83A3A3E0D8
:1043D300650870DAEEFAEFFB74080248F4C082C095
:1043E30083901653025950C082C083901653E4F051
:1043F300A302464674F7120B3F901653126E488081
:104403000FEA2414F582E41268D4121BD7EEFAEFF4
:10441300FBEA4B70EC901653E4F0A3F0024CB47437
:10442300F2120B3F8A0C8B0DEDFF890B8A828B8373
:10443300E08C828D83F0A3A882A9838A828B831266
:1044430044EB124A62E0C454F0FA88828983E04A5A
:10445300F0EC2402F8E43FF9850C828B83A3A312CA
:1044630044EB1244FEE0333354FC1244F2E03333A2
:104473003354F81244F2A3E0A2E0E4331313FA88AE
:10448300828983E04AF0EC2403FE50010FE50C24FB
:1044930007F508E4350DF509750A007808121111BE
:1044A3007C087D00EEFAEF1254B2121128EE2408B4
:1044B300FE50010FE50C240FF508E4350DF50978DE
:1044C300081211117C037D00EEFAEF1254B212119F
:1044D30028E50BC3940F400DE50C2412F582E43557
:1044E3000D125AB6F00248F7A3E08882898322FAB4
:1044F30088828983E04A1244FEA322F0850C828BD2
:1045030083A3A3A3A32274F2120B3FEBFF8C0C8DA6
:104513000D8A82F583E08C828D83126F19A3A882A2
:10452300A983E01258FB1248DDC41258F5F0EA12D1
:104533006F231259021248DBA2E2E4338C828D838B
:104543001248DA131313541F1258FBA31248DAA2AA
:10455300E7E4338C828D83A3A3A3A3A3A3F0EA246C
:1045630003FE50010FF5088F09750A007808121130
:10457300117C087D00E50C24071254AE121128EEBD
:104583002408FE50010FF5088F0978081211117CD9
:10459300037D00E50C240F1254AE1211288E828F76
:1045A30083A3A3A3E0C0E0126F3FD0E0F00248F77B
:1045B30074F6120B3FEAFEEBFF8A82F583A3858232
:1045C30008858309E0F9122351850882850983E070
:1045D30064EB601E8E828F83A3E064E160148E829D
:1045E3008F83A3E064F1600A8E828F83A3E0641A51
:1045F30070078E828F83A3E4F090182812140F1291
:10460300261B75080178081211198E828F83A3E087
:10461300F508780812111979009016051262D590E1
:1046230015FB12435B12112812267B025CC3C08266
:10463300C083E99016657003E4800274018004EA84
:10464300F0A3EBF00259531265CE1221B92274F68E
:10465300120B3F901665E0701B7C0079017A007B9A
:10466300001226ABEA4B600C8A828B8312675A6076
:104673000312260F025CC3C082C083124B11401089
:1046830079FF1226A5E9F8903348E493C3985004C0
:1046930079018002790002595374F2120B3F8A0A9E
:1046A3008B0B8909C2008A828B83A3A3A3A3A3A331
:1046B300A3A3E0F91226B18A0C8B0DAE0CAF0D75D6
:1046C3000801EA4F600302477D850A82850B831246
:1046D30062CF850A82850B83A3A3A3A3A3A3A312FB
:1046E30048BC1226998A0C8B0DAE0CAF0DEA4F70A5
:1046F300030248898A828B83A3A3A3A3E4F0A3F0D4
:10470300E50A240CFAE4350BFB8A82F583E0C0E06A
:10471300124890D0E0F0E50A240D1248B0240D129F
:1047230061F512278F124FB6126716E50A2411128C
:1047330048B024111261F5E50A24131268E6C0E0BB
:10474300124FA8D0E0F0D200EE2406F8E43FF912AD
:1047530048A31248DE540460030247EF90183AE07E
:10476300F50A750B007407780A1212B18E828F83D3
:10477300A3A3A3A3A3A312489AF08E828F83A3A318
:10478300A3A3A3A3E0F50AA3E0F50B7407780A1229
:104793001386E50A5407FCE50960618E828F83A3C3
:1047A300A3A3A3A3A3A3A3A37402124E09124BA60C
:1047B300600B9015F312553CA3A31261FBEC70033D
:1047C300024860EE2406F8E43FF9E8FAE91248A348
:1047D300F0EC24FFF50AE434FFF50B7407780A12B2
:1047E30012B18A82898312489AF080718E828F83F4
:1047F300A3A3A3A3A3A3E0448002477CEC700575A5
:10480300080080598E828F83A3A3A3A3A3A3E0549C
:1048130020600C121B35EA547F7900245F80198EC7
:10482300828F83A3A3A3A3A3A3E05410601A121B34
:1048330035EA540F7900240A5001098E828F83A32D
:10484300A3A3A3F0A3E9800D8E828F83A3A3A3A3C5
:104853007401F0A3E41248E77404124B27A200503A
:10486300288E828F83A3A3A3A31265D4F9EEFAEF54
:10487300FB12269FE9601212675360031248C9EEC8
:10488300FAEFFB121BD7750800A9088067EE240C0A
:10489300F582E43FF58322E0450AF0A3E0450B22CD
:1048A3008882F583E0547FF0A3E054FC22F582E490
:1048B300350BF5831268BFEE22A3E0F9850A8285E2
:1048C3000B831265CE221248D0124D2622EE240FFE
:1048D300F582E43FF58322A3A3A3A31248E22212A5
:1048E3006902E0221248EB22124DFFA3A3A3227414
:1048F300031211287F06020E4F74F4120B3F74F754
:104903001211A67E001226B1EA4B70030249AF8A48
:10491300828B83A3A3A3A3A3A3A3A3A3E06406609F
:10492300030249AF8A828B83A3A3A3A3A3A3A3E018
:10493300FF8A828B83126EE1E0C0E07408121426B2
:10494300D0E0124CD71261E81261FB1226C3EF5478
:104953000860578521828522831262D57A007B0005
:10496300122693EA4B7043126F4A7C007D007A0053
:104973007B0080228E828F831257E1F47003A3E0C1
:10498300F460279016051249B4124CB9601C7C00E0
:104993007D00EEFAEFFB1226938A0A8B0BAE0AAF69
:1049A3000BEE4F70CF79001221D17E01EEF9023B5D
:1049B300951249B822E0FCA3E0FD8E828F8322C0CA
:1049C30082C0838A828B83E5824583700990166A4D
:1049D30080068A828B83A3A3124BDA60208A828BA0
:1049E30083A3A3A3A3A3A3A3E0540860E5EC4D60B2
:1049F30010124BE07003A3E06D70D780047A007B44
:104A03000002595374F2120B3F8A088B09890AEC8E
:104A1300FEEDFF7A147B00121BD1EA4B60378A82CA
:104A23008B83A3A3A3A3A3A3A3A3A3E4124A78E51D
:104A33000A124CC3EEF0A3EF124A68124CDE124A7C
:104A43006F8A828B83126F62124A5B126651A312C2
:104A53004A62F0A3F00248F7EA240FF582E4221237
:104A63006F1DA3A322124CC9E4F0A322A3F0126E7C
:104A7300DA12665122124A7C22124CCDA3A3A3A3BD
:104A83002274F5120B3FEAFEEBFF890A8C088D09AD
:104A9300EA4F6075740169701279011226A5E9F86D
:104AA30090334AE493C3985015800A7404697009DB
:104AB300124B11500979118052740269704B8E8226
:104AC3008F83A3A3A3A3A3A3A3A3A3E50A124B20AA
:104AD3001251F61267DBA3E4F0A3F090166A126793
:104AE3005A601880031268BB88828983A3A3124B80
:104AF300DA88828983A3A370EC800390166AEEF0B0
:104B0300A3EF124B277900800279C1024E12790478
:104B13001226A5E9F8903349E493C398221267DF7C
:104B2300A3A3A322F07A207B00901652E0F9121B74
:104B33007D22C082C083E9F8790090166A801D8ABD
:104B4300828B83A3A3A3A3A3A3A3A3A3E06860056A
:104B530074FF687001098A828B83A3A3124BDA70F6
:104B6300DE02595374F7120B3FEA4B700590166A35
:104B730080068A828B83A3A3124BDA601F8A828BFF
:104B830083A3A3A3A3A3A3A3A3A3E06970E4EC60FB
:104B93000F8A828B83124BA670D880047A007B0025
:104BA300024CB4126EFAE0540422C082C083901601
:104BB3006A80068A828B83A3A3124BDA60128A82ED
:104BC3008B83A3A3A3A3A3A3A3A3E06970E580049A
:104BD3007A007B000259531265CEEA4B228A828BFC
:104BE300831257E56C2274F2120B3F8A0A8B0B8CEB
:104BF3000C8D0D750800750900EA4B602A90166A42
:104C030080068E828F83A3A3124C31601AAC0CAD45
:104C13000DEEFAEFFB850A82850B83120CCAE96459
:104C23000170DF8E088F09AA08AB090248F7E0FE7E
:104C3300A3E0FFEE4F2274F7120B3F90166A12683F
:104C4300BB7C007D00800DE8FCE9FD88828983A39D
:104C5300A31268BBE8496030EA687002EB6970E749
:104C630090166A1265CAE86A7002E96B88828983C2
:104C7300A3A370081268BB90166A80091268BB8CE4
:104C8300828D83A3A31261FB802774F7120B3FEA83
:104C9300FEEBFFEA4F60151226BD124D1212675349
:104CA30060031248C9EEFAEFFB121BD780031211FF
:104CB300287F01020E4F1265CE1221C5E9641A2224
:104CC300124CC9A3A322124CCD22F08A828B83A358
:104CD300A3A3A322126F1D1257E522124A7CA3221B
:104CE30074F6120B3F90166A1268D780141268F498
:104CF300124D121248C9EEFAEFFB121BD7AE08AFE2
:104D030009EE4F70E890166AE4F0A3F0025CC38EDC
:104D1300828F83126ECEF583124D268E828F83127D
:104D23004D2622E0FAA3E0FB121BD722C082C083E8
:104D3300EAFCEBFDEA4D6017EA24FBF582EB34FF56
:104D43001267587007124D84E0F46007121B417913
:104D530005802B901652E0C0E0124D84D0E0F09015
:104D63003341E493F97A6C7B16121B77E964017083
:104D73000B7A007B20124D9379008002790402594B
:104D830053EA24FFF582EB34FFF583227A207B007C
:104D9300901652E0F9121B7D2274F4120B3FA2AF5E
:104DA300E433F508C2AF90166C124C316038EE2430
:104DB300FBF582EF34FF1267587A007B209016527E
:104DC3006005124D968005E0F9121B83E4F50AF5A0
:104DD3000B780A121115EEFCEFFD7A6C7B16121B91
:104DE300717402121128E508A2E092AFEEFAEFFB0C
:104DF300023B9A124DFBE022124DFF22124E09A3F1
:104E0300A3A3A3A3A322F08E828F83221211287F50
:104E130003020E4F74F2120B3F74FA1211A6EAFE4C
:104E2300EBFF7508FE7509FF122681E9600579110C
:104E3300024F991254B9603C901854E0C43354E0C3
:104E4300F8E0333354FC48C0E0EE125EC83FF5830C
:104E5300D0E0126916FAA3E0FB79FF122459EA4B5A
:104E630060127508FFEE240F1254BC4404F0125470
:104E7300B9D2E0F08E828F83124FD26006EE2412F5
:104E830012692EEE24131254BC700D90333FE49339
:104E9300C0E0124FA8D0E0F08E828F83E0A2E750EB
:104EA3000454038019EE24141254BC70129015E4B8
:104EB300E0C0E0124F9ED0E0F09015E4E004F0EE85
:104EC30024111254BC6401701690183EE0600D90DA
:104ED30015EFE0700A8E828F83E0700312692B8EC8
:104EE300828F83E064017013EE240B1257DB64029C
:104EF3007009EE240F1254BC4440F0AC21AD22EEF5
:104F0300FAEFFB1226ED8A0A8B0B74FE6508700319
:104F130074FFF470031268F4EA4B60768E828F8319
:104F2300E0C0E07401121426D0E0F07404121426D9
:104F3300EEF0A3EFF0EE241E1268B57402121426ED
:104F43001261FB740112118E880C890D780C1211F9
:104F530015EE2420124FBB121119124FB6120F1E59
:104F6300EE240E124FBB1211199015F8120F1E7476
:104F730008121426E0F9AC08AD091226E7740812EA
:104F83001128E9FE74106E700BAA0AAB0B121BD723
:104F930080027E10EEF974060248F4EE2414F582C2
:104FA300E43FF58322EE124FAD222413F582E43F52
:104FB300F58322EE1248D122F582E43FF583E0F532
:104FC3000C780C228E828F83A3A3A3A3A3A3A3A3F2
:104FD300A3124FD822E0FAA3E0FB122789E922C0EB
:104FE30082C08374D71211A690BBEC740312119E76
:104FF300742612101B8A828B83A3A3A3A31268BBFC
:10500300740E1214261267601268BB740C121426F5
:105013001250DB240D1250CBC0E0741A121426D0A8
:10502300E0F01266571268B974201214261250DB8E
:1050330024151250CBC0E07408121426D0E0F0EA15
:10504300241CF582E43B1268B97412121426125020
:10505300DB24111250CBC0E07409121426D0E0F007
:10506300EA24121250CBC0E07407121426D0E0F0E9
:10507300EA241EF582E43B1268B974241214261242
:1050830050DB24201250CBC0E07426121426D0E04B
:105093001250D374FFF0740112142674FFF07402DB
:1050A30012142674FFF090C37C120F1A74041211A9
:1050B3009E74071211961223277404121128790083
:1050C3007429121128025953F582E43BF583E02237
:1050D300F085218285228322E8F0A3E9F0EA227495
:1050E300F4120B3F74EC1211A68A0A8B0B8C088DF9
:1050F30009E9FF7E107A217B00121BD1852182856D
:105103002283EAF0A3EB12676AE84970030251EFC6
:105113007C217D007900852182852283E0FA121BA0
:10512300299016051265CA8521828522831262D9C8
:105133002409F582E438F5831267167420121426C5
:105143001268BB7411121426E812584A12671C38ED
:10515300F583740212584D126EE874021258371216
:1051630051F612584D126EC5EFF074221214261226
:1051730057F8F9A3E0C9126BBF39F583E812550D4F
:10518300A3E0C9241FF582E4391251FD74231214DC
:10519300261265CA740612142612671674081214AE
:1051A30026E8F074261214261266F0C082C08374B7
:1051B3000C121426AC82AD83D083D08274051210F6
:1051C3001B7425121426E0C0E07413121426D0E0D9
:1051D300F07900AA21AB22122687E9640170047ECC
:1051E3000080098521828522831248CCEEF974144C
:1051F300023B97E508F0A3E50922F583E50AF0A34E
:10520300E50BF02274F0120B3F74FF1211A6EAFEB5
:10521300EBFF8C088D098A82F583A37408F0EA24D6
:10522300161254BC60088A828B83A37410F0EA249C
:10523300171254BC60098A828B83A3E02408F0EA26
:105243001254BA60088A828B83A3E004F08A828BAB
:1052530083A3A3A3A3A3A3E060198A828B83A3A33D
:10526300A3A3A3A3A3E0C3332402F88A828B83A35B
:10527300E028F0EA24111254C46004740E8001E49F
:10528300F090184CE0640170168A828B83E064010D
:10529300600D901573E060071254A474018004122A
:1052A30054A4E412550D8A828B83A3E0F8EA1237E3
:1052B3005C28298C828D83F0EA24111254BC60058A
:1052C300125AE529F0850882850983E0C394754065
:1052D30009750C00750D0002549BE0FA7B00121B4C
:1052E300D18A0C8B0DEA4B700302549B8E828F8301
:1052F300E0FA9015F5125506740278081212B1EA15
:105303004508FAAB09EE2412125500740678081208
:1053130012B1A808EA48FCEBFD1254B96004780105
:1053230080027800EE2416FAE43FFBE4C8F9ED4965
:10533300FDEE24111254BCF508880974097808128B
:1053430012B1ED4509FD8A828B83125506740B78E1
:10535300081212B1ED4509FDEE2417125500740C25
:1053630078081212B1ED4509FD8E828F83A3A3A3A2
:10537300A3A3A3125506740A78081212B1ED4509C6
:10538300FDEE2423125500740D78081212B1ED4579
:1053930009F9EC850C82850D83F0E9A3F0EE240274
:1053A3001254E3125522F0EE24041254E3A3A31281
:1053B3005522A3A3F0EE24131254F3F0EE24141297
:1053C30054F3A3F0750B088A828B83E06015126790
:1053D300CC1262D5E50C2408FAE4350DFB121CD37C
:1053E300750B10EE24171254BC6019126358126225
:1053F300D5A80BE50C28FAE4350DFB121CD3740871
:10540300250BF50B8E828F83A3A3A3A3A3A3E06035
:105413004EEE2407F50EE43FF50F850E82F583E08B
:10542300C0E01254D2D0E0125512E0C0E00812548A
:10543300D4D0E0125512A3126746121111850E82C1
:10544300850F83E01257ACA80BE50C281254AE125B
:105453001128850E82850F83E0C333250BF50B12CC
:1054630054B96008C0E01254D2D0E0F0125AA2122C
:10547300674612111112375BFC7D00740312142668
:105483001254DBE0F8E50C28F8E4350DF9E82AFAC4
:10549300E4391254B2121128AA0CAB0D740102673D
:1054A3002FEA2423F582E43FF58322FAE4350DFB4A
:1054B300121B1D740322EE2415F582E43FF583E0ED
:1054C30022F582E43FF583E085218285228322A8A9
:1054D3000BE50C281257BF22E0FA8E828F83A3229A
:1054E300F8E43FF98882F583E0850C82850D8322F9
:1054F300F582E43FF58312552CA3A3A322F582E49E
:105503003FF583E0F50875090022126F0BF922F0CD
:10551300050B8E828F83A3A3A3A3A3A3A3A322A379
:10552300A3126902A312552C22E0850C82850D83F8
:10553300A3A3A3227403023B971268BF8E828F83B7
:10554300A3A32274F0120B3F74FD1211A61267106D
:105553007402121426E9F08C0C8D0D750B017C2658
:105563007D007900AA0CAB0D121B297402121426BC
:10557300E0C3940850030257351254EBF0AC0CAD62
:105583000D8521828522831257E1FA8521828522A6
:1055930083125E07125ADEE96003750B00852182D0
:1055A3008522831266F0125802E0F9EA850C82859F
:1055B3000D83A3A3A3A3A3A3A3A3A3F0A3E91258B7
:1055C30037A3A3125802A3A3E0F9E50C12676FEA0D
:1055D30012584A1262C5C0E0E50C2411126F43D081
:1055E300E012584D2407F582E438F583E0C0E01259
:1055F3006F3FD0E0126703740812582EA3E06026B1
:10560300852182852283E02408F8A3E03400F9E5AC
:105613000C2413F582E4350D1261F9850C82850D96
:1056230083A3E02408F0850C82850D83A3A3A3A3A1
:10563300A3A3A3A3E0602A850C82850D83A385829F
:105643000E85830F1257EFF8A3E03400F9E50C122F
:105653005EC8350D1261F9850E82850F83E024083B
:10566300F01257B3E4F01257C7E4F0A3126703A391
:10567300A3A3A3E06011125813850C82850D83A3A5
:10568300A3A3A3A312583FE50C1257D4E07003025F
:105693005721125813FA1257B3EA12583FF88521CB
:1056A30082852283E028FBA3E034008B82F583E02C
:1056B300F8E50C241A126F43E812583FE8C39AE541
:1056C3000C50561257CFF8903342E493C3985004CA
:1056D3007E0C8006E50C1257CFFE850C82850D8368
:1056E3001257EEF508A3E03400F509750A007808AF
:1056F300121111EE1257AC7AB37B0A1254B3121182
:10570300281257C774B3F0A3740AF0EEC333F885B5
:105713000E82850F83E02880041257D4E4F0850CB1
:1057230082850D83A3E0F8850C82850D83E0C39801
:105733005004790080701257EEFAA3E03400FBE5C1
:105743000C126925126F46126716850C82850D832C
:10575300E0C398C0E0E50C2417126F43D0E0125861
:105763002EE06040E50C2417FEE4350DFF8E82F534
:1057730083E024F2F0E50C241DF8E4350DF988826A
:10578300F583E0240EFAA3E03400FB8882898312B8
:1057930067169015F0E0F91225DFE9F88E828F8302
:1057A300E0C398F0A90B02672D25E0FCE433FD224A
:1057B300E50C1257B92224191257BF22F582E4359A
:1057C3000DF58322E50C241B1257BF221257B9E0B3
:1057D300221266FD1257C222F582E43FF583125767
:1057E300E5221268C4F5838882E022A31257F322CC
:1057F3001257F82822E0F8852182852283E022A32C
:10580300A3E0FA8521828522831266F6A3A3A3224D
:10581300850C82850D83A385820E85830F1257F332
:10582300FAA3E034008A82F583E022126707A3A378
:10583300A3A3A322125852F583888222F0850E82F5
:10584300850F83E004F022F0A3E9125852C8221214
:105853006F0FF8A3E02274F4120B3F8A088B09EA56
:10586300125902A3A3F0EA1313543F1258F5A3F0FD
:10587300EAC4131312590212590C7409780A121349
:10588300861258ECA3A3A3A3A3A3F0EB1258EE1222
:10589300590B740A780A121386E50A5401C0E0EC26
:1058A3001266FD3DF583D0E0125910740B780A128D
:1058B30013861258EC125909740C780A12138612C3
:1058C30058ECA3125909740D780A121386E50A5489
:1058D30001C0E0EC2424F582E43DF583D0E0F074CC
:1058E3000E7808121386023B86E50A54018C828DDA
:1058F30083221258FBA3A322540F8C828D8322543C
:10590300038C828D8322A3A3A3A3A3A3A3F08A0A58
:105913008B0B22C082C08379008A828B83A3A3A3CB
:10592300A3A3A3E09015EF600EE0701F8A828B8320
:10593300A3A3E070168012E060111265BD9015F804
:10594300E06A7003A3E06B6002790180031265CA09
:10595300D083D08202109F74F2120B3F8A0A8B0B02
:10596300890CECFEEDFF8A828B83E0FA125ADE8506
:105973000A82850B83A3A3125AD2E0F9EA8E828F9F
:1059830083A3A3A3A3A3A3A3A3A3125AF7125AD235
:10599300A3A3E0F9125AA2EA125AF7A3A3E0C0E0C4
:1059A300EE2411F582E43FF583D0E0125AFEA3A35F
:1059B300A3E0C0E0EE2412F582E43FF583D0E012C9
:1059C30067DB7408124B20A3A3A3E06017E50A2446
:1059D30008F8E4350BF9124FA8E8F0A3E91267DBE6
:1059E300E02408F08E828F83A3A3A3A3A3A3A3A37E
:1059F300E060188E828F83A3125AC1EE24151261C0
:105A0300F5850882850983E02408F08E828F83A3BD
:105A1300A3A3A3A3E060248E828F83A3858208853A
:105A23008309E0F8E50A28F582E4350B125AB6A398
:105A3300A3F0850882850983E004F0EEFAEFFB12F8
:105A430026FFE9F50D70498E828F83A3A3A3A3A339
:105A5300A3125AB0A37014E0F8E50A28FAE4350B50
:105A6300FB125A98126716E50C801A125AC1E824E1
:105A73000EF8500109EE241D1261F5125AE5F9E5FD
:105A83000CC39924F2C398C0E0EE12634FD0E0F048
:105A9300A90D0248F7EE241DF582E43FF58322EEBB
:105AA300125AA722240BF582E43FF58322E08E826B
:105AB3008F8322F583E08E828F83A3A3A322858223
:105AC30008858309E0F8E50A28F8E4350BF922E0B4
:105AD300FA850A82850B83A3A3A3221269371226B0
:105AE300F9229015F0E0F91225DFE9F8850882859F
:105AF3000983E022F0A3E9125AFE22F0850A828587
:105B03000B83A3A3A3A322C082C0837A787B1679D5
:105B1300E212219B7A787B16025953C082C083908C
:105B230015F8025950C082C0839015FB025950C02A
:105B330082C083794A12219B02595374F6120B3F98
