:020000040000FA
:06000000021392020895B4
:03002B000210F1CF
:03003300020E4B6F
:030053000207C4DD
:03007B00020E2052
:1000830002082601010000000000F8FF07FFFF003F
:10009300000504000000030001FFFFFFFF004510FF
:1000A30014102700007A0000000C01000058AA0B6E
:1000B3000010000080110018000020FD0002000065
:1000C300571B000000000000B71B000000000000E9
:1000D300000000000000000000000000000000001D
:1000E3000000000000000000000006FFFF1E2001CA
:1000F30001831F000000000000000000000000005A
:10010300000000000000000000FF14001400450080
:1001130032000100E8030A000A000A000A000A008C
:100123001E00010104010C00020108C20605C00300
:1001330004010701020000000200C20404010C00D4
:10014300020000000110C2010400001A16000000A2
:10015300E8030000FFFF6B160188130000E80300AB
:100163000064006400B801A0BB0D00A0BB0D000239
:100173000202070401051E02051E020A0A01010804
:10018300080103B80B02803E0102FEFFE8030A05E3
:100193000001FFFF020A1401E00100B0423BAAB8CC
:1001A3003F8C906339AA0CA33A00941E3C804263AF
:1001B3003DCFFE753E1572313FF304353F809618EF
:1001C3004B000080BF2292D43EDD9B2A3F040000F7
:1001D30040FFFF7F7FFFFF7FFF01008034187231F4
:1001E3003F02000000050301010F030003000300A9
:1001F30003000300030003000300030005000A00DB
:10020300140028004F009E0000005532000000003B
:100213008B3100000000FF000000FF001213C060DC
:10022300461213DE603DE9687008F618F618F618F2
:10023300F622748067F7120253090909748067F77D
:10024300221213DE601D1213C07005191919801ACA
:1002530012127E701F121292C37003E667331919CC
:100263001940071818182208080874FFF618F6181A
:10027300F618F622121292601712145E702192F091
:1002830012144C7019501720F014080808090909B2
:10029300E7F61819E7F61819E7F61819E7F6221220
:1002A300144C60E6E869701F0808E62480F608E449
:1002B30036F618547FB47F0CE654806007F6E418D2
:1002C300F618F622181822E9C6CC08C6CD08C6CE01
:1002D30008C6CFC0E0E8C0E0EAC0E0EBC0E009E94F
:1002E300F809E7FA09E7FBE6F918E6F8C3EC98ED35
:1002F30099EE9AEBC2E7F5F0EFC2E795F0500E6086
:100303000CEBCFFBEACEFAE9CDF9E8CCF8EAA2E7A9
:10031300D2E7FAEB33FB13F5F0EEA2E7D2E7FEEFF9
:1003230033FFC5F013A2E730E601B313C5F0C3C032
:10033300E0C0F07F00C39BFB605E9418600F401D1C
:1003430014601AD0E023F9D0E0F80204258AF0E91A
:10035300486003D2F0E4AFF0FAF9F8803BEB30E405
:100363000D89F0EA6003D2F0E4AFF0F9CAF8EB309C
:10037300E30D88F0EF6002D2F0AFF0E4CAC9F8EB06
:1003830054076014FBC3EA13FAE913F9E813F8EF0F
:10039300135002D2E0FFDBEDD0E0C0E030E739C319
:1003A300E49FFFF5F0EC98FC42F0ED99FD42F0EE8E
:1003B3009AFE42F0D0E0F9D0E0F8E5F0607AE92364
:1003C300F9EE20E742D8028067C3EF33FFEC33FC3A
:1003D300ED33FDEE33FE80EAEC28FCED39FDEE3A19
:1003E300FED0E023F9D0E0F84002801BC3EE13FEF9
:1003F300ED13FDEC13FCEF135002D2E0FF08B8003D
:10040300067F7F74FF802EEF3350178CF020F002AD
:1004130060100CBC000C0DBD00080EBE000408E803
:1004230060DFE933E813FFEE2313FE4F4D4C8008E2
:10043300E95480FFE4FEFDFCEE33EF33F47004FC7B
:10044300FD7E80D0E0FBD0E0FAD0E0F8D0E0CFC66C
:1004530018CEC618CDC618CCC6F9221213DE700406
:10046300181818221213C0700D74FFF61819F61815
:1004730019F61819F622E7548066F612144C700F19
:1004830012145E70F014F608F608F608F680D1121E
:10049300145E700CF608F608768008E6447F80EC5C
:1004A300121295700C12128160BFE65480F6E4803C
:1004B300BB121281700519191980A5E869700C76B1
:1004C3003F18768018F618F6E8F922E6CDC0E01852
:1004D300ECC0E0E633CD33CDD313F6E719FCE719CF
:1004E3001933CC33C3947F400ECD9D502408E6547A
:1004F30080F6E418F6800FF4043D14501408E64423
:100503007FF6187680E418F618F6D0E0FCD0E0FD0C
:1005130022CCD313CCFD18E4C6CBC0E018E4C6CA82
:10052300C0E00808ED08C633E613F618E433C675D1
:10053300F003C3CA97CA09CB97CB199C40047D0823
:10054300802EBD000302060716B6FF050606081631
:1005530018C3CA33CACB33CB33CA27CA09CB37CB69
:10056300193CC37D08803E187D0820E75CC633C66E
:10057300CA33CACB33CB33DDF1D5F0EB30E77BCADB
:1005830097CA09CB974ACB199C406F4B7025E6203D
:10059300E0218066187D08C3CA97CA09CB97CB1997
:1005A3009CD3C633C6CA33CACB33CB3350C9DDE77A
:1005B300D5F0E1D3E4C636C608C636C608C636C685
:1005C30008C636C61818188031C3CA97CA09CB970C
:1005D300CB199CB34097C633C6CA33CACB33CB338C
:1005E300DD34D5F02EC6A2E0C640C8CA27CA09CB5F
:1005F30037194A70BECB3CB480B90808E63308E625
:1006030033601F181818D0E0FAD0E0FBD0E0FCD01C
:10061300E0FD22187D08CA27CA09CB37CB193CD382
:10062300808013F618E4B67F11F618B6FF0EF6189D
:10063300C60470D20808768080CAF618F618F680C9
:10064300C5001213DE604F1213C06012E7548066B8
:10065300F612127E701112145E703B090909F4F64A
:1006630018F618F618F622121292701512144C0886
:10067300080860EAE6447FF618768018E4F618F670
:100683002212144C601612145E7012E4F608F60877
:10069300F608E65480F609090918181822EAC0E09A
:1006A300EBC0E0ECC0E0EDC0E0E687F0A4FBACF00B
:1006B30008E687F0A42CFCE435F0FA1809E687F085
:1006C300A42C4B60027401CA35F0FCE433FB09E649
:1006D30087F0D2F7A42CCB35F0FC1908E687F0A4F9
:1006E3002BCC35F0FBE433FD0819E687F0D2E7A401
:1006F3002C4ACB35F0CD3400FC09E687F0D2E7A4D1
:100703002DCC35F0FDE433FA0918E687F0D2F7A4CF
:100713002CCD35F0CA3400FC08E687F0D2E7D2F7D7
:10072300A42ACC35F07A7E20E70B0ACB33CBCD332A
:10073300CDCC33CC33CB3350147004ED30E00ED238
:10074300F1E4CD3DCDCC3CCC3B5005DA05C2F1EB19
:10075300547FC63308E63392F0FBE73309E733C32C
:100763009A502D2B70190C0D4C4D70151806E60878
:10077300C333700D20F10AA2F013F6E418800B4086
:1007830024E4F630F002768018F618F618F6802482
:10079300D33B14501074FFA2F013F6187680E418BC
:1007A300F618F6800FA2F013F618E63303F618ECEA
:1007B300F618EDF6D0E0FDD0E0FCD0E0FBD0E0FA97
:1007C30022C0E074F1120C30A2AFE433F509D2AFCA
:1007D30085A708AFA1EF5508FE74105E60061218D6
:1007E300C975A1EF74085E60081218CF75A1F78070
:1007F30024EFA2E092F0E508A2E082F050179061A6
:1008030098E0F8900563E0C398A2D265D033500214
:10081300E8F075A1FE752300E509A2E092AF7F021F
:10082300020C8FC0E074F2120C30A2AFE433FED29C
:10083300AF9061A4E0F8759B00E5915854086008F7
:100843007591F712191D8023E591585410600875AE
:1008530091EF1219238014E591A2E092F0E8A2E04F
:1008630082F05007E0C2E0F0121A799061A3E0F839
:10087300E5E9585404600E121A4F75E9FB90619331
:10088300E0A2E640F2752300EEA2E092AF7F010200
:100893000C8FC0E074F2120C30A2AFE433FED2AF7F
:1008A3009061A5E0F8E5BF585404600675BFFB12DC
:1008B3001A9180D112090C30F043120951803E8AFB
:1008C300088B098C0A8D0B780812090C20F0143060
:1008D300E72B74FFFCFBFA747F8022E4FCFBFA74C1
:1008E30080801AB48008BC00F2BB00EF800F50EB8D
:1008F300F9E4C39AFAE49BFBE49CFCE499C6CC18A4
:10090300C6CB18C6CA18C6F922E4C9C608CAC6089F
:10091300CBC6D3330308CCC63392F0C3947F402EA7
:1009230094184019C9B90704CACBCC225025C3096E
:10093300CA33CACB33CBCC33CC33D9F422F4600DD6
:10094300C9CCC313CB13CBCA13CAD9F6CC22E4FC4C
:10095300FBFA2214FCFBFA22C3E498F8E499F91297
:10096300099C8026C3E49AFAE49BFBE920E7E91299
:10097300099CE498F8E499F922C3E498F8E499F916
:1009830012099CE498F8E499F9C3E49AFAE49BFB0E
:1009930022EB20E7CFE920E7E0B90010BB0008E82D
:1009A3008AF084F8AAF022E4FBC8FA22EB70227BD7
:1009B30010C833C8C933C9335007C39AC3DBF280A5
:1009C300069A50012ADBEAC833F4C8C933F4C9FADA
:1009D3002275F008E4C833C8C933C933C99AC99B1F
:1009E3005004C92AC93BD5F0ECFBC833F4C8E4C9A9
:1009F300FA22080808EAC0E0EBC0E086F0E7A4FAB0
:100A0300180986F0E7A42AFA180986F0E7A42AFA57
:100A1300180986F0E7A42AFA1986F0E7A4FBE5F0A3
:100A23002AFA190886F0E7A42BFBE5F03AFA19082D
:100A330086F0E7A42BFBE5F03AFA18180986F0E7ED
:100A4300A4C5F02BFBE43AFA1908E7C5F0C6A426BF
:100A5300F6E5F03BFBE43AFA1886F0E7A4F6E5F096
:100A63000826F6E43B08F6E43A08F6D0E0FBD0E0CB
:100A7300FA22080808E630E711121242120A8D081A
:100A83000808C64480C618181822181818E9799E51
:100A9300C608CAC608CBC608CCC6C370207996CA96
:100AA300CBCC7019798ECBCC70137986CC700EF9C0
:100AB300802ACA33CACB33CBCC33CC331930E7F2D9
:100AC300CCCBCA3350147004EA30E00DE4CA3ACAFE
:100AD300CB3BCBCC3CCC500209C3E913C6CC182387
:100AE30013C6CB18C6CA18C6F922E4CFC0E0E4CEB9
:100AF300C0E0E4CDC0E0E4CCC0E075F020E626F62B
:100B030008E633F608E633F608E633F6181818EC69
:100B130033FCED33FDEE33FEEF33FFC3EC9709ED0A
:100B23009709EE9709EF97191919400FFFEC97FCF6
:100B330009ED97FD09EE97FE191906D5F0BFECF7FD
:100B430009EDF709EEF709EFF7191919D0E0FCD011
:100B5300E0FDD0E0FED0E0FF222521C582C0E0E524
:100B63002234FFC583C0E0E521C3958224F810AF8A
:100B7300088583228582218008858322858221D26C
:100B8300AFCEF0A3E520F0A37808E608F0A3DEFAE1
:100B9300EFF0A3E58124FAF8E608F0A3E608F0A352
:100BA300E608F0A30808E608F0A3E608F0A3158119
:100BB3001581D0E0FED0E0F8158115811581E8C0DC
:100BC300E0EEC0E022121437B90003020C1AE490DD
:100BD3000401780879168002F0A3D8FCD9FA7823A7
:100BE3009000867A01BA00028007E493A3F608DA3C
:100BF300F97A087B19900087789979028015E49334
:100C0300A3AD82AE838A828B83F0A3AA82AB838D4A
:100C1300828E83D8E9D9E775820A758382740612B6
:100C230010B57582B975832E74001210B5C0D02526
:100C330021C582C0E0E52234FFC583C0E0E521C3BE
:100C4300958224F310AF088583228582218008854D
:100C53008322858221D2AFC8F0A3E9F0A3EAF0A3EF
:100C6300EBF0A37908E709F0A3D8FAECF0A3EDF0D1
:100C7300A3EEF0A3EFF0A3D0E0F0A3D0E0F0A3D075
:100C8300E0F0A3E520F0A3E5F0F0A322852283851D
:100C93002182E0C0E0A3E0F9A3E0FAA3E0FBA3789C
:100CA30008E0F608A3DFFAE0FCA3E0FDA3E0FEA35F
:100CB300E0FFA3E0C0E0A3E0C0E0A3E0F5D0A3E041
:100CC300F520A3E0A3F5F010AF08858322858221E8
:100CD3008008858322858221D2AFD082D083D0E061
:100CE300F8D0E032FF75F0108E248F258582298598
:100CF3008328852182852283E0CEA3E0CF852982C4
:100D0300852883EBC9EAC8EDCBECCAC3E833C8E94D
:100D130033C9EA33CAEB33CBC3EA9EF527EB9FF51E
:100D230026B35004AB26AA27EC33CCED33CDD5F054
:100D3300DAAE24AF25221213DE601C1213C0601733
:100D430012144C700712145E7001D322C0D0121417
:100D53005E7006D0D0B322C32233D0D0501430E01B
:100D6300F6C3E7960809E7960809E7960809E796A0
:100D7300B32220E0D5E6970809E6970809E6970825
:100D830009E697B322D083D082ECC0E0EDC0E0E463
:100D930093A3FCE493A3FDED4C600D120EF7EC243A
:100DA300FFFCED34FFFD80EFE493A3FCE493A3FD8C
:100DB300ED4C600D120FC0EC24FFFCED34FFFD8001
:100DC300EFD0E0FDD0E0FCE493A3C0E0E493C0E007
:100DD300221213DE601B1213C0601612144C70072C
:100DE30012145E600CB322C0D012145E7005D0D012
:100DF30022C32233D0D0501330E0EBC3E796080967
:100E0300E7960809E7960809E7962220E0E4E697C3
:100E13000809E6970809E6970809E69722C0E074EF
:100E2300F2120C30A2AFE433FED2AFE58AA2E35054
:100E3300057902121803758A00C2EB752300EEA22E
:100E4300E092AF7F01020C8FC0E074F2120C30A26B
:100E5300AFE433FED2AFE58BA2E05005790412185C
:100E630003758B00C2E880D3852283852182E0A3AA
:100E7300FEE0A3F5207808E0A3F608DFFAE0A3FF7D
:100E8300E0A3C0E0E0A3C0E0E0A3C0E0E0A3C0E0D3
:100E9300E0A3C0E010AF0885822185832280088506
:100EA3008221858322D2AFD083D0820210BBD0832C
:100EB300D082E9C0E0E493A3C386F0C5F095F0F9CE
:100EC30008E493A386F0C5F095F0700BE493A3C3F5
:100ED300994005E9048002A3E475F002A42582F594
:100EE30082E5F03583F583D0E0F9E493A3C0E0E431
:100EF30093C0E022C0E0C3E493960874019396186C
:100F0300400FE493667008087401936618700070CC
:100F130019A3A3C3E49396087401939618A3A3405B
:100F23000DD0E0D0E0D0E0020DC4A3A3A3A3A3A3FC
:100F3300D0E0227404800474028000CCC0E0EDC0D1
:100F4300E0E521C39CCCAD2250011D10AF068C21DE
:100F53008D2280068C218D22D2AF121037D0E0FD76
:100F6300D0E0FC2274028000CCC0E0EDC0E0E521BB
:100F7300C39CCCAD2250011D10AF068C218D228065
:100F8300068C218D22D2AF121015D0E0FDD0E0FCEB
:100F9300221213DE60251213C0602012144C70035A
:100FA30002145E080808E76670101819E766700AED
:100FB3001819E76670041819E76622F422C0E0C026
:100FC300F088F0E493667008087401936618700063
:100FD300A8F0A3A3700BD0F0D0E0D0E0D0E0020DD6
:100FE300C4A3A3D0F0D0E022D083D082CCC0E0E46D
:100FF30093A360061210581470FAE493A3600612C8
:1010030011D81470FAD0E0FCE493A3C0E0E493C0D9
:10101300E022CAC0E0E493A3C582CCC582C583CDD8
:10102300C583F0A3C582CCC582C583CDC583DAE56C
:10103300D0E0CA22CAC0E0E0A3C582CCC582C58382
:10104300CDC583F0A3C582CCC582C583CDC583DA64
:10105300E6D0E0CA22C0E0E493A3D39C5010E4930B
:10106300A3C39C400AD0E0D0E0D0E0021008A3A3C1
:10107300A3D0E022C008C3E096F50808A3E0964297
:101083000808A3E096420808A3E09645087001D338
:10109300D008227009080808226016181818C6C359
:1010A30033C608C633C608C633C608C633C6D5E03A
:1010B300EA22C09FF59FE473D09F22D083D082C0E1
:1010C3009FE493C0E0740193C0E0740293F59F2200
:1010D300C5822521C582C583352210AF07F5228538
:1010E30082218007F522858221D2AFC58322C0E009
:1010F300C0D0E8C0E0A8A8D2AFC2C7752300E8A259
:10110300E792AFD0E0F8D0D0D0E0322521F58210BD
:10111300AF08F521400C15228008F5214002152265
:10112300D2AF852283227404800A7403800674027A
:1011330080027401C0E0F40412110ED0E01213FA1D
:101143002200C0D0252110AF08F521500C052280C4
:1011530008F52150020522D2AFD0D022BB0102E70D
:1011630022C082C08389828A83BB0003E08002E4B9
:1011730093D083D082226016080808C6C313C6180A
:10118300C613C618C613C618C613C6D5E0EA22C3CB
:10119300E0C696F608A3E0C696F608A3E0C696F660
:1011A30008A3E0C696F6222521F8E43522F9222584
:1011B30021FAE43522FB222521FCE43522FD2225F8
:1011C3002110AF08F521400C15228008F5214002BB
:1011D3001522D2AF22C0E0E493A36C7009D0E0D013
:1011E300E0D0E0021008A3A3D0E022E0667010086C
:1011F300A3E066700A08A3E066700408A3E0662211
:10120300C3E7960809E7960809E7960809E796A24F
:10121300D265D03322E76670100809E766700A08C2
:1012230009E76670040809E76622C3E09608A3E0AD
:101233009608A3E09608A3E096A2D265D0332218BD
:101243001818E4C396F608E496F608E496F608E45C
:1012530096F622C3E096F008A3E096F008A3E09682
:10126300F008A3E096F022C3E697F60809E697F69E
:101273000809E697F60809E697F622181818E6080B
:1012830046087009E626087005E633F42208221999
:101293001919E70947097009E727097005E733F4C6
:1012A300220922C3E4939608740193960874029367
:1012B30096087403939622E627F60809E637F6089C
:1012C30009E637F60809E637F622700422600D189E
:1012D300C6C333C608C633C6D5E0F41822E657F6AC
:1012E3000809E657F60809E657F60809E657F6220D
:1012F300E026F608A3E036F608A3E036F608A3E0F6
:1013030036F622E026F008A3E036F008A3E036F034
:1013130008A3E036F022E056F008A3E056F008A355
:10132300E056F008A3E056F022E647F60809E64740
:10133300F60809E647F60809E647F622E056F608F6
:10134300A3E056F608A3E056F608A3E056F622609B
:101353000D08C6A2E713C618C613C6D5E0F322C606
:10136300F4C608C6F4C608C6F4C608C6F4C622C343
:10137300E09608A3E09608A3E09608A3E09622C3AC
:10138300E7960809E7960809E7960809E79622759C
:10139300D00075813F75210175220400020BC860DE
:1013A3000C08C6C313C618C613C6D5E0F422E6F06C
:1013B30008A3E6F008A3E6F008A3E6F022E709474E
:1013C30009C3134709336002E733F422E0F608A3A5
:1013D300E0F608A3E0F608A3E0F622E6084608C311
:1013E300134608336002E633F422800100E9F874FF
:1013F300FF28F90470F622CAC0E0E6F0A308DAFA7F
:10140300D0E0FA22E0F8A3E0F9A3E0FAA3E0FB229C
:10141300E8F0A3E9F0A3EAF0A3EBF022EAF0A3EBF0
:10142300F0A3ECF0A3EDF022E0FAA3E0FBA3E0FCD1
:10143300A3E0FD22E5C754F84401F5C7790122254D
:1014430021F582E43522F58322E62618461846184C
:101453004622C2AF75D69F02000022E7271947191B
:10146300471947221210BE91AF031210BE19B003E1
:101473001210BED4B0031210BE37B1031210BE7BDC
:10148300B1031210BE15B2031210BE93B2031210B1
:10149300BEC6B2031210BED4B3031210BEF4B3031C
:1014A3001210BE48B4031210BE30B5031210BE3280
:1014B300B7031210BED4B7031210BE24BA0312101E
:1014C300BEA8BA031210BEADBD031210BEE1BF0326
:1014D3001210BE19C0031210BE78C1031210BE82CF
:1014E300C1031210BED1C1031210BEA3C303121055
:1014F300BEEF83061210BE2384061210BE76840646
:101503001210BE7985061210BEBAF9051210BE1864
:10151300FA051210BE5AFA051210BE7CFA05121013
:10152300BE36FB051210BE7AFB051210BEAFFB05DB
:101533001210BE03EF011210BE7FEF011210BEB2F4
:10154300EF011210BEE0EF011210BE1EF0011210E7
:10155300BE59F2011210BE78F2011210BEBDF201A3
:101563001210BE53F3011210BE9FF3011210BE33CB
:10157300F4011210BE0BF5011210BE67F501121033
:10158300BEC5F5011210BE42F6011210BE78F60177
:101593001210BEC3F6011210BEE9F6011210BE7995
:1015A300F7011210BE10F8011210BE5CF801121000
:1015B300BE8DF8011210BEC4F8011210BE4AFA0122
:1015C3001210BE14FB011210BEE4FB011210BE6F19
:1015D3009B051210BE799B051210BE8A9B05121043
:1015E300BEA29B051210BE0E9C051210BE399C05AF
:1015F3001210BE4C9C051210BE679C051210BE76DD
:101603009C051210BEAB9C051210BED39C05121094
:10161300BEFB9C051210BE2A9D051210BE279E0517
:101623001210BE749E051210BE899E051210BE1BB9
:101633009F051210BE6A9F051210BE929F051210DD
:10164300BEB7A0051210BE84A2051210BE27A505C1
:101653001210BE41A5051210BE08E6051210BE34D5
:10166300E6051210BE54E6051210BE7BE605121005
:10167300BEC2E7051210BEF5E7051210BEB3E805BA
:101683001210BE4DE9051210BE9A9A061210BE9FA3
:101693009A061210BED29A061210BEAFF8021210AA
:1016A300BE95F9021210BEEBF9021210BE06FA0241
:1016B3001210BE35FA021210BE54FA021210BEAA5C
:1016C300FA021210BEF7FB021210BEB8FD0212108E
:1016D300BE63FE021210BEE4FE021210BE47FF02FA
:1016E3001210BE85FF021210BE92FF021210BE9F9F
:1016F300FF021210BEC5FF021210BE9CFA031210A5
:10170300BEF1FA031210BE35FB031210BE3FFB03FA
:101713001210BE49FB031210BEA5FB031210BE1923
:10172300FC031210BE7DFD031210BE91FE031210C6
:10173300BE9BFE031210BE60FF031210BE7AFF03AE
:101743001210BE83FF031210BE757D001210BE3C43
:101753007E001210BE4E7E001210BEC97E00121013
:10176300BE3594061210BE4694061210BEE49406CB
:101773001210BEEF94061210BE0795061210BEF6A5
:10178300FF011210BEE3FF011210BE1695061210E0
:10179300BE2695061210BE3B95061210BEEF9506A7
:1017A3001210BE4191061210BEC491061210BE2A39
:1017B30092061210BEDEFD051210BEF2FD051210D8
:1017C300BE59FE051210BEA2FE051210BECAFE05CA
:1017D3001210BEEEFE051210BE11FF051210BE4917
:1017E300FF051210BE71FF051210BEACFF051210EB
:1017F300BE828B061210BE0B8C061210BE1A8C060C
:101803001210BE4A8C061210BE948C061210BEAB88
:101813008C061210BEE4DE051210BEF2DE051210B5
:10182300BE6BDF051210BE43E0051210BE06E205D3
:101833001210BE4BE2051210BE70E2051210BEF884
:101843007F001210BE0080061210BE3880061210F0
:10185300BE8381061210BE0782061210BE70C40535
:101863001210BE9CC4051210BEE0C6051210BE20A5
:10187300C7051210BE60C7051210BE74C70512104B
:10188300BE8DC7051210BE7FC8051210BE24C90540
:101893001210BE38C9051210BE8087061210BEA4EE
:1018A30087061210BEBD87061210BEEF8706121000
:1018B300BE1F88061210BE4C88061210BE5688063C
:1018C3001210BEB888061210BEC788061210BED109
:1018D30088061210BEDE88061210BE8EF2051210A4
:1018E300BEAEF2051210BEEDF2051210BE08F305EE
:1018F3001210BE27F3051210BE8DF3051210BE960B
:10190300F3051210BEF3F3051210BE02F405121014
:10191300BE26F4051210BEE7F4051210BEF4F4055A
:101923001210BE05F5051210BEE897061210BE3060
:1019330098061210BE5C98061210BEBFBF051210A7
:10194300BE19C1051210BE27C1051210BE3AC1054A
:101953001210BE4FC1051210BE64C1051210BE772E
:10196300C1051210BEEBC1051210BE50C205121004
:10197300BED8C2051210BE54C3051210BE18C4054A
:101983001210BE28C4051210BE37C4051210BE4F74
:1019930097061210BE7397061210BE9B970612107D
:1019A300BEC397061210BE33F5051210BE5AF505D5
:1019B3001210BE78F5051210BEEBF5051210BEBB72
:1019C300EF051210BED4EF051210BEE0EF051210A2
:1019D300BEF4EF051210BE12F0051210BE1CF00586
:1019E3001210BE26F0051210BE39F0051210BEBF4C
:1019F300F0051210BE34F1051210BE63F10512108A
:101A0300BEB1F1051210BE00F2051210BE1BF205A5
:101A13001210BE25F2051210BE36F2051210BE7961
:101A2300F2051210BEDC98061210BE27990612109A
:101A3300BE18AF051210BE42AF051210BE5FAF0550
:101A43001210BE72AF051210BE88AF051210BEE6AB
:101A5300AF051210BE1EB0051210BE12B40512104F
:101A6300BE57B5051210BE8AB5051210BEEDB505F9
:101A73001210BE4DB7051210BE75B7051210BE8AFF
:101A8300B7051210BE9AB7051210BEDEB7051210C5
:101A9300BE39B8051210BE49B8051210BEEF8D0647
:101AA3001210BE098E061210BE318E061210BE4AE7
:101AB3008E061210BE6E8E061210BE8C8E0612108B
:101AC300BEA38E061210BED18E061210BEEC8E0679
:101AD3001210BEF595061210BE3996061210BE837B
:101AE300E2051210BE93E2051210BE98E305121030
:101AF300BECAE3051210BEFAE3051210BE1DE405CB
:101B03001210BE34E4051210BE6EE4051210BED3EB
:101B1300E4051210BE15E5051210BE54E5051210BA
:101B2300BE85E5051210BEB0E5051210BEBD8C06DC
:101B33001210BEDB8C061210BE3B8D061210BEDAED
:101B43008D061210BE4393061210BE3E8A06121073
:101B5300BE628B061210BE3F91051210BEA69405FD
:101B63001210BE9796051210BECD97051210BEAE89
:101B730098051210BE2A9A051210BEF69A05121085
:101B8300BE4A9B051210BED385061210BEF485060D
:101B93001210BE1987061210BE4387061210BEBE6E
:101BA300FF031210BECEFF031210BED8FF031210A4
:101BB300BE0080051210BE0380051210BE9B870570
:101BC3001210BEA788051210BE268A051210BEE8A1
:101BD3008A051210BECE8B051210BEC58C051210DD
:101BE300BEB38D051210BE708E051210BEA08E05F9
:101BF3001210BE5190051210BEE888061210BEFAEC
:101C030088061210BE0E8A061210BE118A06121022
:101C1300BE3D90061210BE7390061210BE89900648
:101C23001210BECB90061210BEDB90061210BE1F20
:101C330091061210BE2991061210BE79B805121032
:101C4300BEBCB8051210BE21B9051210BE3EB905BF
:101C53001210BE57B9051210BEF9B9051210BE0213
:101C6300BA051210BE47BA051210BE70BA0512109B
:101C7300BE7DBA051210BEF8BA051210BE83BB05AD
:101C83001210BEC8BB051210BE13BC051210BE78DD
:101C9300BC051210BE9BBC051210BE0CBD05121074
:101CA300BE61BD051210BE9CBD051210BED1BD059F
:101CB3001210BEE3BD051210BEF5BD051210BE1411
:101CC300BE051210BE1DBE051210BED0BE051210F9
:101CD300BE13BF051210BE51BF051210BE339906C5
:101CE3001210BE4CC9051210BE8CCA051210BEAF2D
:101CF300CA051210BEC0CA051210BE92CC0512103E
:101D0300BEB2CC051210BE84F7051210BEBAF70599
:101D13001210BE02F8051210BE5BF9051210BE2A9E
:101D2300DC041210BE43DD041210BE7DDD0412106C
:101D3300BE2BDF041210BE59DF041210BEBFE10434
:101D43001210BEFFE1041210BEA3E3041210BE334F
:101D5300E4041210BE87E4041210BE29E504121035
:101D6300BE6BE5041210BEADE5041210BE0AE70413
:101D73001210BE58E8041210BE8FEA041210BEBD42
:101D8300EA041210BEE4EA041210BEEDEA041210D3
:101D9300BE44EB041210BEDFEB041210BEE7EE04E8
:101DA3001210BE6EEF041210BEA796061210BEBF2D
:101DB30096061210BEC996061210BE1D9706121083
:101DC300BEE9CD051210BEFFCD051210BEA0CE0593
:101DD3001210BEDFCE051210BEFCCE051210BE2DB2
:101DE300CF051210BE7ACF051210BEADCF0512106B
:101DF300BEE8CF051210BEE3D1051210BE4BD205CB
:101E03001210BE4392061210BEA292061210BEE03A
:101E130092061210BE2193061210BE90990612105C
:101E2300BEBDCC021210BEC9CC021210BE2BCD0215
:101E33001210BE35CD021210BEC6CD021210BE0264
:101E4300CE021210BEF2CE021210BE3FCF0212100B
:101E5300BECECF021210BE04D0021210BE7FD0023B
:101E63001210BE4ED2021210BE48D4021210BE2669
:101E7300D5021210BE44D6021210BE8AD802121026
:101E8300BECDD9021210BE7CDA021210BE1CDF02D4
:101E93001210BE10E0021210BEB4E0021210BED93E
:101EA300E0021210BE75E1021210BE8AE1021210A6
:101EB300BEAEE1021210BE1CE2021210BE39E202F3
:101EC3001210BE63E2021210BEF9E3021210BE1A30
:101ED300E4021210BEC0E4021210BE08E5021210A2
:101EE300BE5DE5021210BEFDE5021210BE61E60200
:101EF3001210BEBFE6021210BE68E7021210BED671
:101F0300E7021210BE09E8021210BE77E8021210AF
:101F1300BEB2E9021210BE28EB021210BEC5EB02DC
:101F23001210BE03EE021210BE6CEE021210BE9629
:101F3300EE021210BEB2F0021210BE59F3021210DA
:101F4300BE82F4021210BE1398041210BE219A042A
:101F53001210BE559B041210BEDE9B041210BE2A43
:101F63009C041210BE89A0041210BEBBA10412105F
:101F7300BEF1A1041210BE6AA2041210BE70A30423
:101F83001210BEE9A3041210BEFCA3041210BE1E5D
:101F9300A4041210BE76A4041210BEDAA404121014
:101FA300BEACA5041210BEC3A5041210BEE2A50464
:101FB3001210BEFDA5041210BE24A6041210BEE624
:101FC300AE041210BE3F9A061210BE7AFA04121023
:101FD300BE07FB041210BE81FB041210BEA2FB0459
:101FE3001210BE7EFC041210BEEBFD041210BE459F
:101FF300C6041210BE77C6041210BEEFC604121038
:10200300BEF2C7041210BE4EC8041210BEC5C904E6
:102013001210BEE1C9041210BE33CA041210BE76F8
:10202300CA041210BE89CA041210BEDBCA041210FD
:10203300BE34CB041210BEEFCB041210BE69CC0425
:102043001210BE93CC041210BECBCC041210BE47A8
:10205300CE041210BE20CF041210BE6FD004121093
:10206300BE42D1041210BECAD1041210BE14D2044F
:102073001210BE2ED2041210BE75D2041210BE95D9
:10208300D2041210BE2BD3041210BEA5D304121017
:10209300BEB0D3041210BE05D4041210BE5FD40424
:1020A3001210BEEEAB051210BE41D7041210BE646F
:1020B300D8041210BEA0D8041210BE92D904121074
:1020C300BEBAD9041210BE44AF031210BEC7D9045E
:1020D3001210BEDAD9041210BE59DA041210BE8FE0
:1020E300DA041210BEBBDA041210BEE2DA041210D4
:1020F300BE06DB041210BE77DB041210BE85DB04C0
:102103001210BE9BDB041210BEBCDB041210BEEA2D
:10211300DB041210BE00DC041210BE18DC04121023
:10212300BE5F98061210BE6B98061210BEDAA803A3
:102133001210BEF9FF011210BE38C5031210BE5BA8
:10214300C5031210BEA1C6031210BEEAC6031210C5
:10215300BE52C7031210BEACC7031210BEAFC703F3
:102163001210BEFBC7031210BE6EC8031210BEF6D8
:10217300C8031210BEF9C8031210BE83C90312109C
:10218300BEC4C9031210BE99CD031210BE31CF03D2
:102193001210BE6BCF031210BED2CF031210BE209B
:1021A300D3031210BEABD3031210BE96D403121086
:1021B300BED4D5031210BEF1D6031210BEB4D7039A
:1021C3001210BE1FD9031210BEBBD9031210BEC812
:1021D300DA031210BEB4DC031210BE77DE03121052
:1021E300BE0080041210BEAA80041210BE10810427
:1021F3001210BE2981041210BEA581041210BEE97B
:1022030081041210BE0483041210BE408304121012
:10221300BEC083041210BE0B84041210BE72840469
:102223001210BEED85041210BE1B87041210BEA04F
:1022330087041210BEA689041210BE4F8A0412101E
:10224300BEF38A041210BE528B041210BEC78B0455
:102253001210BE1F8D041210BEE78D041210BE3182
:102263008E041210BE4D8E041210BEF38E04121093
:10227300BE3F8F041210BECB8F041210BE1B9104FD
:102283001210BECD92041210BE8F94041210BE40E1
:1022930095041210BEAA95041210BECA9604121019
:1022A300BE2BE0031210BE9FE0031210BEE7E00353
:1022B3001210BE2BE1031210BE74E1031210BEBE56
:1022C300E1031210BEF6E1031210BE74E203121012
:1022D300BECEE2031210BE22E4031210BEB3E40327
:1022E3001210BE0BE5031210BE25E5031210BE4DFE
:1022F300E5031210BEA5E5031210BE14E803121085
:10230300BE33E8031210BE17E9031210BE47EA03F7
:102313001210BEC4EA031210BE13EB031210BE74F4
:10232300EB031210BE1AEC031210BEE8ED031210F9
:10233300BEE8EE031210BE66F0031210BE47F203AE
:102343001210BEADF4031210BE5DF6031210BE2DC3
:10235300F7031210BE9BF7031210BEB2F70312105D
:10236300BEAAF8031210BE9AF9031210BE05FA03AF
:102373001210BE7FE9051210BECBEA051210BE880B
:10238300EB051210BEECEB051210BE60EC0512104B
:10239300BEBDFC011210BED8FC011210BE1CFD0113
:1023A3001210BE42FD011210BE68FD011210BE8064
:1023B300FD011210BEE3FD011210BEF8FD01121063
:1023C300BE1BFF011210BE24FF011210BE2DFF0120
:1023D3001210BE36FF011210BE40FF011210BE588C
:1023E300D2051210BE57D6051210BE5CD6051210C8
:1023F300BE5ED6051210BE7C82061210BEDA7F00C6
:102403001210BEE5EC051210BE1F8F061210BE9609
:10241300FF041210BECFFB051210BECEFF02121036
:10242300BEF9DA051210BEE899061210BEF8990635
:102433001210BEC5D6051210BE0080031210BE33A3
:1024430080031210BE9F80031210BE3A8103121044
:10245300BED781031210BE1C82031210BE3E82033C
:102463001210BE5782031210BE7D82031210BE9F4C
:1024730082031210BEDD82031210BE2183031210E9
:10248300BE4383031210BEA583031210BE6C8403E4
:102493001210BE2385031210BE9585031210BE6071
:1024A30086031210BEB386031210BE1987031210DF
:1024B300BE5387031210BEA587031210BE138803F1
:1024C3001210BE7E88031210BE8188031210BE0252
:1024D30089031210BE9989031210BEFA89031210E0
:1024E300BEEA8A031210BE098B031210BE6D8C0361
:1024F3001210BE7A8C031210BE868D031210BE9387
:102503008D031210BE9C8D031210BE748F03121024
:10251300BE8E90031210BE0791031210BE79910371
:102523001210BE9B91031210BE2F92031210BE0312
:1025330094031210BEDA97031210BEEE9703121023
:10254300BEFE97031210BE0898031210BE11980323
:102553001210BE1A98031210BE2498031210BE5113
:1025630098031210BE7A98031210BE8598031210B6
:10257300BEA998031210BECD98031210BE3799035B
:102583001210BE7D99031210BE9A99031210BE1742
:102593009A031210BE4E9A031210BE8D9A031210A4
:1025A300BEDA9A031210BE609B031210BE2E9D0367
:1025B3001210BEC39D031210BEA79E031210BE0EBF
:1025C300A1031210BE67A1031210BEB1A103121022
:1025D300BE0CA3031210BE4AA3031210BE9CA30396
:1025E3001210BE51A4031210BE00A5031210BE3D6B
:1025F300A5031210BED2A5031210BE3EA6031210ED
:10260300BE0080021210BE3280021210BE60800231
:102613001210BE3682021210BE1683021210BE6E54
:1026230083021210BEA984021210BEF58402121096
:10263300BE1E88021210BE118B021210BE618C02E4
:102643001210BEF78C021210BE038D021210BE359B
:102653008D021210BEB88E021210BE6990021210C3
:10266300BEFD90021210BE4091021210BEBE910236
:102673001210BEDB91021210BE0B92021210BE406A
:1026830092021210BE1093021210BEB993021210DE
:10269300BE3F96021210BE5F97021210BE4A980206
:1026A3001210BECC98021210BE009D021210BE3D45
:1026B3009D021210BE959D021210BEC89D021210FB
:1026C300BE329E021210BE689E021210BEF39E021C
:1026D3001210BE4B9F021210BE22A0021210BEDBCC
:1026E300A0021210BE76A1021210BE7EA402121026
:1026F300BE9AA5021210BE3DA9021210BE31AA0253
:102703001210BE34AA021210BE63AA021210BE69CE
:10271300AC021210BE42AD021210BE85AD02121001
:10272300BEDBAE021210BE1AAF021210BEA3AF027E
:102733001210BED7AF021210BE9CB0021210BEB46C
:10274300B2021210BE25B3021210BE65B3021210FC
:10275300BEF3B3021210BE15B5021210BED7B502F6
:102763001210BEDEB7021210BEF6B7021210BE0A76
:10277300B8021210BE42B8021210BE70B802121094
:10278300BEEFB9021210BE14BB021210BE71BB021F
:102793001210BE23BC021210BE4ABC021210BE119C
:1027A300BD021210BEA9BD021210BECFBF0212108D
:1027B300BE04C0021210BE67C0021210BE96C10250
:1027C3001210BE3EC2021210BE6FC2021210BE87AA
:1027D300C2021210BE16C3021210BECAC5021210E4
:1027E300BEA2C7021210BEBEC7021210BEDAC702D3
:1027F3001210BEA8C8021210BE9BCC021210BE69F2
:1028030035001210BE9B35001210BE8A390012101B
:10281300BED639001210BE1C3A001210BEBE3A00DA
:102823001210BE1A3B001210BE5F3B001210BEA670
:102833003C001210BEBA3D001210BEA94100121096
:10284300BE2D42001210BE3A43001210BE96430042
:102853001210BE8645001210BEFB45001210BE05C5
:1028630046001210BE1246001210BE3D4600121062
:10287300BE2447001210BECE47001210BE4C4800C3
:102883001210BE6C48001210BE9548001210BEB75D
:1028930048001210BE174B001210BEDD4B00121081
:1028A300BE224C001210BE9F4C001210BE504D00B1
:1028B3001210BE824D001210BEC84D001210BE048D
:1028C3004E001210BE544E001210BEA84E0012103D
:1028D300BEFE4E001210BE4A4F001210BEB74F008C
:1028E3001210BE3250001210BEFD51001210BEFD78
:1028F30052001210BE2254001210BE615700121073
:10290300BE745A001210BE315B001210BE755B001C
:102913001210BE255D001210BE395D001210BE43B9
:102923005D001210BE4D5D001210BE595D00121005
:10293300BE755D001210BE205E001210BE5F5E0009
:102943001210BE695E001210BE735E001210BEE369
:102953005E001210BE2E5F001210BE436000121004
:10296300BE9F60001210BE2061001210BEDF610026
:102973001210BEE862001210BE1C64001210BE0AE0
:1029830065001210BE2265001210BE7D6500121094
:10299300BE9B65001210BEE365001210BE0A6600FE
:1029A3001210BEA566001210BE6B67001210BEFDAA
:1029B30067001210BE7768001210BE9169001210F2
:1029C300BE3E6A001210BE666B001210BEB66B00EC
:1029D3001210BE1A6C001210BE7C6C001210BEAA3C
:1029E3006C001210BECE6C001210BE036D001210EC
:1029F300BE346D001210BE676D001210BE876D00ED
:102A03001210BEEF6D001210BEE36E001210BE3E38
:102A13006F001210BE676F001210BEEF6F0012102E
:102A2300BE7270001210BE9D70001210BE82710043
:102A33001210BE6072001210BE9872001210BEB95E
:102A430072001210BEFB72001210BE5D73001210F2
:102A5300BE6773001210BE7773001210BEB273000C
:102A63001210BE9277001210BE7F79001210BE655D
:102A73007B001210BEFC7B001210BE9E7C00121065
:102A8300BE3CC3011210BEBAC3011210BE16C4016C
:102A93001210BE61C4011210BE7CC4011210BEA785
:102AA300C4011210BEC4C4011210BED0C40112105E
:102AB300BE67C6011210BE80C6011210BE05C70153
:102AC3001210BE18C7011210BE37C7011210BEDBA9
:102AD300C7011210BE5CC9011210BE0FCB01121048
:102AE300BEA5CB011210BEA8CB011210BE18CC019B
:102AF3001210BE36CC011210BECDCC011210BE1581
:102B0300CD011210BE18CD011210BEDECD01121080
:102B1300BE4BCE011210BE71CE011210BEFCCE010F
:102B23001210BE1ACF011210BE60CF011210BE14D4
:102B3300D0011210BE5ED0011210BE8DD001121052
:102B4300BEEAD0011210BE1FD1011210BE4BD1013B
:102B53001210BE59D1011210BEA6D1011210BE1619
:102B6300D2011210BE5FD2011210BEABD2011210FD
:102B7300BED7D2011210BEE2D2011210BE00D301A1
:102B83001210BEEBD3011210BEF5D3011210BE30EA
:102B9300D4011210BE40D4011210BE49D401121048
:102BA300BE9DD4011210BEB1D4011210BEE0D501F6
:102BB3001210BEF7D5011210BE0CD6011210BE9A28
:102BC300D6011210BEDFD6011210BE6BD701121050
:102BD300BE76D7011210BEB8D8011210BED3D801E9
:102BE3001210BE1FD9011210BE8ED9011210BEC71A
:102BF300D9011210BEE1D9011210BE23DA0112105D
:102C0300BEF3DC011210BEA0DD011210BE0DDE0109
:102C13001210BE4DE0011210BE65E0011210BE6835
:102C2300E0011210BE74E0011210BE88E001121020
:102C3300BE90E0011210BEC3E0011210BEC5E10157
:102C43001210BE4CE2011210BEBCE2011210BE3ED5
:102C5300E3011210BEFFE3011210BE1EE4011210C5
:102C6300BEBFE4011210BE1CE5011210BE1FE50138
:102C73001210BE4CE5011210BE61E5011210BED563
:102C8300E5011210BE24E7011210BE2AE80112105A
:102C9300BEB5E8011210BED0E9011210BE98EA01D8
:102CA3001210BEC9EA011210BEECEA011210BEF501
:102CB300EA011210BE24EB011210BEB4EB01121094
:102CC300BE6AEC011210BEDFEC011210BE86ED01EC
:102CD3001210BEFBED011210BE32EE011210BE70D7
:102CE300EE011210BEA6EE011210BE17AF031210B2
:102CF300BE51AB051210BE47AB051210BEF1AA05BB
:102D03001210BEDDAA051210BE3CAA051210BE4069
:102D1300A9051210BE6AA8051210BE73A6051210EB
:102D2300BEC6A5051210BE58A5051210BE15C604D1
:102D33001210BE80AE031210BEBDD9041210BE0B1A
:102D4300C6041210BEA0C5041210BE1BA8031210A5
:102D5300BE78A7031210BEF4C3041210BEB2C3049C
:102D63001210BED2C2041210BEBCC2041210BE7D29
:102D7300C2041210BED8C1041210BED2BE04121077
:102D8300BEC0BC041210BE8DBC041210BE28BC040D
:102D93001210BEBBBB041210BE7ABB041210BEB32A
:102DA300BA041210BE4EBA041210BEF9B9041210BE
:102DB300BE9CB9041210BE73B8041210BE10B8043E
:102DC3001210BE5AB7041210BE55B7041210BE49F2
:102DD300B7041210BEFCB3041210BE37A7031210BF
:102DE300BE18A7031210BEE5A6031210BED0A60399
:102DF3001210BEA5A6031210BED2AE051210BE9AC3
:102E0300AE051210BED6B3041210BE7BB30412106B
:102E1300BE26B3041210BEE7B2041210BE43AE05C1
:102E23001210BED4B2041210BEC9B2041210BEA551
:102E3300B2041210BEB4B0041210BE33B0041210A8
:102E4300BE21AC031210BEEFAF041210BE9F980652
:102E53001210BEC3AF041210BE1CFA041210BEDE61
:102E6300F9041210BEB1F9041210BE7DF904121058
:102E7300BE1CF9041210BE04F9041210BEE0F804DB
:102E83001210BEA9F5041210BE75F3041210BE5C35
:102E9300F1041210BEEBF0041210BE9AF0041210EB
:102EA300BE54F0041210BEBDEF041210BEACAC054C
:102EB3001210BEB0D40400000080FB000022E473B3
:102EC30087000100181A35000400E11925000200EB
:102ED300E51926000200E71927000200E919280076
:102EE3000100F31929000100F41984000400F61607
:102EF3008600010016192A000100F5192B000100B4
:102F0300F6192C000100FA192D00080002172E00F3
:102F13000100FB192F000100FC1930000100FD190D
:102F230031000100FE19320001000A1733000100CD
:102F33000B1734000100FF19360001000C1738008D
:102F43000100001A39000100F91983000200161A62
:102F530063000100181764000100F7196500010000
:102F6300F8196D000100191771000800FA166600C0
:102F73000100151A43000100061A44000200071A53
:102F830045000100091A460002000A1A470008001A
:102F93001017480001000C1A4B0001000D1A040021
:102FA3000100191AA10001001C1A370001001B1AA5
:102FB300880001001A1A3C0001000D173D000100B2
:102FC300011A490002000E1A670001001A174D008A
:102FD3000200101A4E000100121A4F000200131AC9
:102FE3003E000100051A510001000E1752000100B6
:102FF300031A53000100041A540001000F170000C4
:103003000000000000000000200117C200000100C2
:10301300200112C200000200200114C200000300BC
:10302300200116C200000400420172C00000050026
:10303300420140BF00000600420162BF00000700DA
:10304300300115C200000040420162BF0000FDFFD5
:1030530021010EC20100200020051E1901002100DC
:1030630020051F19010003F02127A4190A000000FD
:10307300E227DA15040204F01027A619020400005F
:103083002905D215020401F021279419020402F044
:1030930021279C19030400002905D41503041000FB
:1030A3002905D6150304140028058D19030401F01E
:1030B30021279619030402F021279E190504000015
:1030C3002105D815050401F021279819050402F0FC
:1030D3002127A01900013636010100010201000178
:1030E3000301000104010606050200000701003484
:1030F3000801000F090401010D0100FF0E08000083
:1031030017020000190100FF1A0100011B0100FE54
:103113001C0100081D0200001F0100012001000125
:10312300210200002301000F2402000026010001F8
:1031330027010008280200FF2A0100072B01024093
:103143002C0100002D0100012E0100012F0100FFC1
:1031530030010B1D310800003A0100083B01000F4C
:103163003C0100013D0100FF3E0400004204000059
:10317300460400004A0400004E040000520400000C
:10318300560400005A040000010371030103010304
:1031930001030103010322030203010310030003DC
:1031A30000030003000300030003000342030003C2
:1031B300240306030003000304031203250323036C
:1031C3002503230304030403000300030003440350
:1031D3000003000323030003650321003503810378
:1031E3000003050300030003000300032503230377
:1031F3000302710230016002110270020102020235
:1032030002028002100261023A004100630273026B
:10321300720262024302000213023800000200023B
:10322300040212020002000200020002040204026D
:10323300370037003C02440200023900000200025A
:103243006502000235028102000205028202830246
:1032530000020300710030016000110070003102B0
:10326300200350048000100061000000140063007C
:1032730073007200620043000000130006000000A8
:103283000000040012000000000000000000040021
:103293000400370037003C02440000000000000037
:1032A30000006500000035008100000005000000FB
:1032B30083000000010171010101010111010101FC
:1032C3003101010101018001100161013B00140082
:1032D30063017301720162014301000113010601DD
:1032E3003D0135000401120100010001000100014C
:1032F30004010401330133013C014401320136006E
:103303000001000165010001350081010001050193
:1033130082018301000136000100060000000F0056
:1033230000000000000000000000000003FFFF0099
:10333300000403FFFF0000FFFF0FF4010005C404B6
:103343000320000100000B00000000000000000348
:10335300010F00000000000000000000000000005A
:10336300000000000000000000000000000000005A
:1033730000000000051F2F1F0B1F3F1E111F351FCD
:10338300111F411F171F3F1E111F351F1D1F3F1EFA
:1033930000000000231F3F1E00000000000000008B
:1033A300291F3F1E00000000000000000000000075
:1033B300000000000000000000000000000000000A
:1033C30000000000000000000000000000000000FA
:1033D30000001D2201001D2202005D2102805721F1
:1033E300030063210400692104806F210500752116
:1033F3000600812130009F21310099213300AB2148
:103403003400B1211100B7211400BD21150093210F
:10341300FFFF0000030003000400080010001F006A
:103423003E007B00F600EC01D703AF075D0FB91E2A
:10343300713D0000060000001001E01506040000C5
:103443001805E1150604100021278E190604110042
:1034530021279019000400002105DE15000401F066
:1034630021279A19000400F021279219000402F081
:103473002127A21907ECFDFDFDECDCDCCCBCACACD8
:103483009C9C8C7C7C6C6C5C5C5C4C4C3C3C2C2C29
:103493001C1C03EAF5E5D5D5C5B5A59595858575B8
:1034A30075656555554545353525251515050A7742
:1034B30028024128054D280747280C29280D3528BF
:1034C300FF000000160F00000B150B020002220F75
:1034D3003300000E0F5A6967426565416C6C696180
:1034E3006E63653039D0D1D2D3D4D5D6D7D8D9DA13
:1034F300DBDCDDDEDF303017181921301B1D1F30F8
:1035030000034D4C4651181A2505020001191618DF
:10351300161618230300303016181920231A1C1E00
:1035230030003C40423A3F3F392F47300C0E020BEC
:10353300040B0A0708000F0204020101010109023A
:10354300E803000000BE040A010024000300E803AE
:1035530004091A0404031E1E030A0C04100828029B
:103563000C0508150F0574F7120B5CE99017EDF0C5
:103573009017A2E4F0121BF9901805E4F0A3F09061
:1035830017EEF0A3F01229C7121BFF90172AE4F0DD
:10359300A3F01223C1024ECF74F0120B5C74D3124A
:1035A30011C212692B548060669017EDE0F9121C6A
:1035B300778A088B09AF09EA4F604C7C0080010CC5
:1035C300EC75F003A4F8A9F074B128F582743439CA
:1035D300F583E493F46029E493F88A828B83E068AB
:1035E30070DDEC75F003A4F874B228F582743439F5
:1035F300F583E493C0E0740193F583D082122EC166
:10360300AA08EFFB121C6512705D648002396A859B
:103613002182852283A3E05420601F1228DD8A08BB
:103623008B09AF09EA4F600A122835AA08EFFB128B
:103633001C6512705D642002396A852182852283AC
:10364300E0A2E050429017A7E0640F702E90084A62
:1036530012706890084AC3E094E9A3E09403400A17
:103663007A007B8090161A124FB1790012280BE969
:1036730060099019E112142B1228238521828522D7
:1036830083E0640102394F542070030239547A20D5
:103693007B009017EDE0F9121DEBEA4B4C4D701ACD
:1036A300901801121407E8494A4B700E750801750A
:1036B3000900750A00750B00806D750C00750D000F
:1036C300750E00750F00121DFD8A088B098C0A8D7B
:1036D3000B901801121407E8494A4B603190180106
:1036E3007808121077400E750CFF750DFF750EFFED
:1036F300750F7F801985080C85090D8C0E8D0F9031
:103703001801780C1211927401780C121179850C3E
:1037130008850D09850E0A850F0BE5084509450A3D
:10372300450B70030238AE7C0079047A007B0012EB
:1037330028B38A0C8B0DAE0CAF0D0237F274021254
:10374300144274FFF0740312144274FFF0740412F1
:10375300144274FF1250241267E574071211BA124F
:103763006A9BE96401706A1239764480F8A3E0F930
:103773007428121442E8F0A3E9126D2FE0C0E0743C
:103783002A121442D0E01250115408601674281201
:103793001442A3E04401123983C0E0742C12144292
:1037A300D0E0F012696E6011E8240B124169F874DD
:1037B30016121442E8F0A3E4F090C194120F367489
:1037C300061211BA740B1211B212252F74041211BE
:1037D300448E828F83A3A3A3A3A3A3A3A3A374064B
:1037E300123983F91228957405121442126AF2EE03
:1037F3004F70030238AE7C007904EEFAEFFB122817
:10380300B37405121442EAF0A3EB124D3BE0F50C3E
:10381300A3E0F50DE4F50EF50F7808790C12138289
:103823004023EE2404F8E43FF985080C85090D884C
:1038330082F583C3E0950CF0A3E0950D127152E875
:103843004970A4800C8E828F83A3A3A3A3E4F0A367
:10385300F08E828F83A3A3A3A3A3A3A3A3A3A3E015
:1038630064018E828F83A3A3A3A3A3A37020E05438
:103873000460030237408E828F83A3A3A3A3A3A371
:10388300A3A3A37406F07AB7123AA90237EAA3A353
:10389300A3A3E060030237408E828F83A3A3A3A375
:1038A300A3A3A3A3A37401F00237EA1228837C0025
:1038B30079017A007B001228B3EA4B6003124FAA06
:1038C3007C0079047A007B001228B3EA4B701380E2
:1038D300448A828B83A3A3A3A3126B0AEE98EF9966
:1038E300400B8A828B83A3A3A3A3126AF27C007981
:1038F300041228B38B0BA90BEA4970D5C3E5089EC4
:10390300E5099F500DC3EE9508FEEF9509FFEE4FB5
:10391300700D124FAA90180112397CA3F08024EE87
:103923002EFEEF338E08F509E4F50AF50B7808123D
:1039330011297A20123B52121144121DFD901801D5
:1039430012141F852182852283E06420FAA3E0807C
:1039530016A3E0540460131261C2122E11790112EE
:10396300433012705D6404FB80047A007B00742D85
:1039730002694AEE126958E022E4F0A3F0A3F022B0
:10398300125016A3A3E022C082C08374EA1211C2AC
:103993007C167D007900AA21AB22121C4774081201
:1039A30014427402F09017961263FE1239CA740916
:1039B3001214421264167413121442E41260951224
:1039C30023B574160252E0E8F0A3E9F09017A012B1
:1039D3006ADA2274F7120B5C74DA1211C2EAFEEB94
:1039E300FFEA4F602DAC21AD221228FB740612149E
:1039F30042E0601E7417121442E0FD740112144277
:103A0300E0FCEEFAEFFB79001227E1E9600479A408
:103A1300800279007426024ECC74F7120B5CEAFE26
:103A2300EBFF8A82F583A3A3A3A3A3A3E05440607F
:103A3300178A828B8312690B1251EF60067AFF7B20
:103A4300FF801512690780039017961267E574FECD
:103A53006A700374FF6B604112690712693112299E
:103A630091E98E828F83600B1264F412711DE4F06E
:103A7300A3800312710CF07C117D288E828F831238
:103A83004865E9F5087015EE4F60097901EEFAEF24
:103A9300FB12288FA908024ECF7508CDAA08123A47
:103AA300A9E960E380EE8E828F831264F8240CF51B
:103AB30082E438F583E0F912281D2274F6120B5CB8
:103AC300E9FEEAFF7A0F7B00121C5FEA4B601A8A59
:103AD300828B83740CF0EEA3A3F0EF8A828B8312A4
:103AE3004C8A1260F37900802BEEF91228B98B0906
:103AF300A909EA49601C8A828B83A3A3A3A3A3A376
:103B0300A3A3A37406124C93E0F91225D1EEF91284
:103B130028957910025EDE74F4120B5C8A088B0917
:103B23008C0A8D0B9017A7E0640F701EEA4B4C4D67
:103B330060189017A2E064086005E06404700B78D5
:103B430008121129123B50121144023DB57A017B30
:103B5300009017EDE0F9121DD974042274F4120BCE
:103B63005C74FC1211C2EAFEEBFF8A82F583A3A305
:103B7300E0F91228B98A088B09EA4B7003023C98D2
:103B83008E828F83A3A882A983E0C0E0EA1260E952
:103B9300D0E0124AF964F160288E828F83A3E06437
:103BA300CD601E8E828F83A3E0641A60148E828F91
:103BB30083A3E064E9600A8E828F83A3E064E170EB
:103BC30033790012288FE9602BE5082404F50AE411
:103BD3003509F50B850882850983A3A3A3A3A3A3B2
:103BE300124BCF124AD7121C0B850A82850B831204
:103BF300693180708E828F83A3E0C0E07402121457
:103C030042D0E01252EE12541112457FC0E0740309
:103C1300121442D0E0F0E508126DDA124228E0AA4D
:103C230021AB22700512252980031229797402120F
:103C33001442E064E9702D85088285098312438E5E
:103C4300750A01780A121135750AE9780A121135D5
:103C5300124AAB12454CFCA3E0FD8A828B831245CA
:103C630076121144850882850983A3A3A3A3A3A382
:103C7300A3A3A3E064027012850882850983A3A32A
:103C8300A3A3A3A3A3A3A37406F08E828F83A3A3EA
:103C9300E0F91228951228839019E712419A7404C7
:103CA300023DB274F4120B5CEAFEEBFF7508008A66
:103CB30082F583A3A3A3A3A3E06038750808126762
:103CC300D879FF122661EA4B601075082C8E828F1B
:103CD30083A3A3A3A3A3E0D2E0F08E828F83A3A345
:103CE300A3A3A3E0540364016003023DA1430811AD
:103CF300023DA1EA24181256D76036EA241A125656
:103D0300D76003F47013126ABA7003A3E069600307
:103D1300023DA1750822023DA1EA241B123DA52400
:103D23001A1256D7FAEE24191256D7F91225BF8064
:103D33006D8A828B83A3A3A3A3A3A3A3A3A31241EB
:103D43008570037508018E828F83126ABE7003A388
:103D5300E0697006E508D2E1F508E50860158E8292
:103D63008F83A3A3E07006E508D2E58004E508D2BB
:103D7300E6F5081251E264017006E508D2E0F508A1
:103D83008E828F83A3A3E06015EE241D1259F6F9EA
:103D930012297FE964016006E508C2E0F508A90875
:103DA3008010F582E43FF583127175EA22740912DB
:103DB30011447F04020E6B74F0120B5C74D7121162
:103DC300C2EAFEEBFF8A82F583A3A3A3A3E0600EFE
:103DD3009019E512697560069019E512419A74030A
:103DE3001211BA8E828F83A3A3A31262C11267E357
:103DF3001228FBE97003023F4B7801740512144249
:103E0300E0C39402400278007407121442E0C394A2
:103E13000240027800740C121442E064F87003A3A9
:103E2300E0F47003023F4B740C121442E064F97027
:103E330003A3E0F47003023F4B740C121442E064DA
:103E4300FA7003A3E0F47003023F4B740C121442A4
:103E5300E064FB7003A3E0F47003023F4B740612AB
:103E63001442E0F9901790E0696003023F4BE8A227
:103E7300E04003023F4B7427121442E06003023F09
:103E83004BEE2413126AD074221214421262CB2412
:103E93001C126AD07410121442126416740912149C
:103EA30042E0601D741A121442E0FD7404121442BD
:103EB300E0FC8E828F831267E379011227E1E970B8
:103EC3003B74031211B212282FE9F50C7409121472
:103ED30042E0702C90178AE06026742259642260B5
:103EE3001F74425964427014742012144212417FA9
:103EF300600E742012144212417860047ACF804A13
:103F0300E9A2E6504D74201214421259FC24FD60BC
:103F13000F14600C24FD600824FD600424FE702847
:103F23007420121442124171700E74201214421242
:103F33006022A3E0640D601A74031211B21229A95E
:103F4300E96401700D0241617AD37B0012213302CF
:103F53004161EE242DF582E43FF58312438570031E
:103F6300A3E069701D7508007808121135780812EE
:103F73001135EE242F1256D7F912418B12457612C2
:103F830011447409121442E0700302402912418B58
:103F93001267E51229F78A0E8B0FEA4B7003024072
:103FA300BA7404121442E0F88E828F83A3A3E0282C
:103FB300F8A3E03400F9E8240D124169F88A828BF2
:103FC30083A3A3A3E068600EE88A828B83A3A3A3E1
:103FD300124C8312397D7904E91214421256F6A366
:103FE300E02AF8A3E034008882F583A3AA82AB8396
:103FF300121C538A088B098C0A8D0B850E82850F40
:1040030083A3A3A3A378081210774003024161900E
:10401300C10878081212F3850E82850F83A3A312B9
:10402300717BA312541A9017A2E064046008E06441
:10403300096003024161E50CA2E540030240F4EE8E
:10404300242F1256DFF0EE24301256D7C0E074014D
:10405300121442D0E0F0EE24311256D7C0E07402BD
:10406300121442D0E0F07414121442E0640170267A
:10407300740E121442124AD224131256D7687003D4
:10408300A3E0697011740C12144212418570077415
:1040930014121442E4F0EE2425F582E43FF5831272
:1040A3000F3674041211BA74071211B212252F7449
:1040B300041211440241619017E7E06401600302B6
:1040C3004029742012144212417F7009E50CA2E6C4
:1040D30050030240297410121442E0F47003A3E069
:1040E300F4607BEEFCEFFD74031211B212283B80E7
:1040F3006DA2E6506974201214421265047016749E
:104103001A121442E06402705574031211B279005A
:104113001229738049742012144212417870147466
:104123001A121442E06404703574031211B2122996
:1041330067802B7420121442124171700C79007441
:10414300031211B21229B5801574201214421260A1
:1041530022E0640C700874031211B21229C174298D
:1041630002694AE82406F582E439F583E0221269FC
:1041730011E0640322126911E0640722125A0064F9
:1041830006221251F3640222EE242BF582E43F123D
:104193007173EE1251C822E0F508A3E0AA08FBE40C
:1041A300FCFD1228232274F4120B5CEAFEEBFF8C55
:1041B300088D0990170AE0600F126ABA7003A3E032
:1041C3006970051225AD805379001267D81225DD79
:1041D3008A828B83E5824583602CA3A3A3A3A3A335
:1041E300E054186021E508241C124225120F3A12EC
:1041F3004221120F3AEE241812455D125CBD126A79
:1042030092121144801579008E828F83A3A3A31287
:1042130064EA125CBD1267E51225B3023DB5E508F9
:104223002413F582E43509F5832274F7120B5C74C9
:10423300F71211C2EAFEEBFF9017A2E06403600DD0
:10424300E064016008E06409600302432B8A828B07
:1042530083A3E060030242F97C007D007A027B00C5
:10426300121C05126B378A82126AD4901793126458
:104273001679531223A39017A2E0640960099017DB
:10428300A01267E51229F185218285228374011228
:10429300603A9017A27404F074011211B2794A12B1
:1042A300239D74011211BA7A987B17121E1590166A
:1042B3001DE0640B70057406F0800579001243302D
:1042C3009017931264F07A037B00121C05901796E3
:1042D3001264F07A047B00121C0590178DE0A2E3B0
:1042E3005004D2F08002C2F01260279019E1121438
:1042F3002B122823802FFC7D007A037B10121C05D0
:1043030090161DE0640B7003740AF090170EE4F02E
:10431300FA7B40125E178E828F83A3E0F91243303B
:104323009017A2E4F01228657409024ECC9017A0EE
:104333001267E912254122C082C08390172A1269AD
:104343007570179017A2E024FB6005146007800ABC
:10435300901730801F901732801AE8496007124186
:10436300666401700C8A828B83A3E0F91225358081
:104373000E90181C1269756006126023122EC1027A
:104383005B6E126ADA9017A0E06822126ADAE8FA22
:10439300E9FB2274F5120B5C74D81211C28A088BE4
:1043A300098A828B83A3A3A3A3A3A3A3A3E0C39498
:1043B3000F50030245478A828B83A3A3A3126AF299
:1043C30074151211BA8A828B83A3A3A3A3A3A3A3F5
:1043D300A312454CFAA3E0FB122871741512144280
:1043E300E0702E850882850983A3A3A3A3A3A3A3B7
:1043F300A3E0C3940B401A8E828F83A3A3A3A3A32A
:10440300A3A3A3E064027009EE240B1256D7F46051
:10441300030245477417121442E060076402600305
:104423000245479017A2E06402601CE0640660172F
:1044330090172A1269757003024547124166640199
:104443006003024547802590172A126975701D7510
:10445300080078081211357808121135EE2410126D
:10446300455D8E828F831245761211448E828F832F
:1044730012714A124B02126AD67402121442126269
:10448300CB123977C0E07404121442D0E012457F96
:10449300F508A3E0F509740F78081213A274051246
:1044A3001442E508F07419121442E0C0E0740612D5
:1044B3001442D0E0F0741B121442E0C0E0740712FF
:1044C3001442D0E0F07416121442E0C0E0740912F2
:1044D3001442D0E0F07417121442E0C0E0740812E2
:1044E3001442D0E0F0EE24101256D7C0E0740A1242
:1044F3001442D0E0F0741A121442E0C0E0740B12BC
:104503001442D0E0F07427121442E0C0E0740C129D
:104513001442D0E0F0741C121442A982AA838908C1
:104523008A09750A00780812112D7C087D00741021
:10453300121442AA82AB831256CE121144AA21ABA3
:104543002212253B742802502AE0F98A828B83A326
:10455300A3A3A3A3A3A3A3A3E022F582E43FF5832C
:10456300E0F98E828F83A3A3A3A3A3A3A3A3A31280
:104573007175221267E9122931740222F0EE125C7E
:10458300C2E02274F2120B5C74F81211C28A0A8B15
:104593000B8C0C8D0D890890C0AFAC21AD22740833
:1045A300121037C200AC0AAD0BAA21AB2212676608
:1045B3007002D2009017EE8013AC0AAD0BEE240B01
:1045C300FAE43FFB126766701B1251B9124E4C603E
:1045D3001EA20040E48E828F83E0650C7004A3E08A
:1045E300650D70E58E828F83A3A3E0650870DAEE14
:1045F300FAEFFB7408024B0FC082C0839017EE02E0
:104603005B6BC082C0839017EEE4F0A30248617431
:10461300F7120B5C9017EE127063800FEA2414F507
:1046230082E4126AEF121D19EEFAEFFBEA4B70EC0B
:104633009017EEE4F0A3F0024ECF74F2120B5C8AF3
:104643000C8B0DEDFF890B8A828B83E08C828D832B
:10465300F0A3A882A9838A828B83124706124C7D1A
:10466300E0C454F0FA88828983E04AF0EC2402F82B
:10467300E43FF9850C828B83A3A3124706124719E3
:10468300E0333354FC12470DE033333354F812470D
:104693000DA3E0A2E0E4331313FA88828983E04A8E
:1046A300F0EC2403FE50010FE50C2407F508E43574
:1046B3000DF509750A00780812112D7C087D00EEAE
:1046C300FAEF1256CD121144EE2408FE50010FE505
:1046D3000C240FF508E4350DF509780812112D7C2B
:1046E300037D00EEFAEF1256CD121144E50BC3948D
:1046F3000F400DE50C2412F582E4350D125CD1F068
:10470300024B12A3E08882898322FA88828983E09C
:104713004A124719A322F0850C828B83A3A3A3A378
:104723002274F2120B5CEBFF8C0C8D0D8A82F583E5
:10473300E08C828D83127134A3A882A983E0125B7B
:1047430016124AF8C4125B10F0EA12713E125B1D96
:10475300124AF6A2E2E4338C828D83124AF51313D4
:1047630013541F125B16A3124AF5A2E7E4338C829B
:104773008D83A3A3A3A3A3A3F0EA2403FE50010FF5
:10478300F5088F09750A00780812112D7C087D0041
:10479300E50C24071256C9121144EE2408FE5001F9
:1047A3000FF5088F09780812112D7C037D00E50CA5
:1047B300240F1256C91211448E828F83A3A3A3E040
:1047C300C0E012715AD0E0F0024B1274F6120B5C87
:1047D300EAFEEBFF8A82F583A3858208858309E0DD
:1047E300F9122559850882850983E064EB601E8EE2
:1047F300828F83A3E064E160148E828F83A3E064DD
:10480300F1600A8E828F83A3E0641A70078E828F11
:1048130083A3E4F09019E112142B122823750801E5
:1048230078081211358E828F83A3E0F50878081279
:10483300113579009017A01264F0901796124576FF
:10484300121144122883025EDEC082C083E99018ED
:10485300007003E4800274018004EAF0A3EBF00229
:104863005B6E1267E91223BB2274F6120B5C90187D
:1048730000E0701B7C0079017A007B001228B3EA08
:104883004B600C8A828B83126975600312281702AE
:104893005EDEC082C083124D2C401079FF1228AD1A
:1048A300E9F8903563E493C3985004790180027961
:1048B30000025B6E74F2120B5C8A0A8B0B8909C2CD
:1048C300008A828B83A3A3A3A3A3A3A3A3E0F912C8
:1048D30028B98A0C8B0DAE0CAF0D750801EA4F6039
:1048E30003024998850A82850B831264EA850A824A
:1048F300850B83A3A3A3A3A3A3A3124AD71228A11F
:104903008A0C8B0DAE0CAF0DEA4F7003024AA48ADA
:10491300828B83A3A3A3A3E4F0A3F0E50A240CFAF8
:10492300E4350BFB8A82F583E0C0E0124AABD0E0AA
:10493300F0E50A240D124ACB240D126410122997B4
:104943001251D1126931E50A2411124ACB241112F2
:104953006410E50A2413126B01C0E01251C3D0E0C6
:10496300F0D200EE2406F8E43FF9124ABE124AF9E7
:1049730054046003024A0A9019F3E0F50A750B0028
:104983007407780A1212CD8E828F83A3A3A3A3A3E5
:10499300A3124AB5F08E828F83A3A3A3A3A3A3E09C
:1049A300F50AA3E0F50B7407780A1213A2E50A547B
:1049B30007FCE50960618E828F83A3A3A3A3A3A34E
:1049C300A3A3A37402125024124DC1600B90178E3F
:1049D300125757A3A3126416EC7003024A7BEE240A
:1049E30006F8E43FF9E8FAE9124ABEF0EC24FFF5D1
:1049F3000AE434FFF50B7407780A1212CD8A828910
:104A030083124AB5F080718E828F83A3A3A3A3A3DD
:104A1300A3E04480024997EC700575080080598E25
:104A2300828F83A3A3A3A3A3A3E05420600C121C2F
:104A330059EA547F7900245F80198E828F83A3A360
:104A4300A3A3A3A3E05410601A121C59EA540F79CC
:104A530000240A5001098E828F83A3A3A3A3F0A38A
:104A6300E9800D8E828F83A3A3A3A37401F0A3E433
:104A7300124B027404124D42A20050288E828F837F
:104A8300A3A3A3A31267EFF9EEFAEFFB1228A7E99A
:104A9300601212696E6003124AE4EEFAEFFB121D14
:104AA30019750800A9088067EE240CF582E43FF528
:104AB3008322E0450AF0A3E0450B228882F583E0D8
:104AC300547FF0A3E054FC22F582E4350BF5831206
:104AD3006ADAEE22A3E0F9850A82850B831267E97D
:104AE30022124AEB124F4122EE240FF582E43FF5E6
:104AF3008322A3A3A3A3124AFD22126B1DE0221259
:104B03004B062212501AA3A3A32274031211447F4B
:104B130006020E6B74F4120B5C74F71211C27E0062
:104B23001228B9EA4B7003024BCA8A828B83A3A370
:104B3300A3A3A3A3A3A3A3E064066003024BCA8AAF
:104B4300828B83A3A3A3A3A3A3A3E0FF8A828B8364
:104B53001270FCE0C0E07408121442D0E0124EF26E
:104B63001264031264161228CBEF54086057852190
:104B7300828522831264F07A007B0012289BEA4B21
:104B830070431271657C007D007A007B0080228E69
:104B9300828F831259FCF47003A3E0F4602790170B
:104BA300A0124BCF124ED4601C7C007D00EEFAEFB6
:104BB300FB12289B8A0A8B0BAE0AAF0BEE4F70CF0A
:104BC30079001223D37E01EEF9023DB0124BD322BA
:104BD300E0FCA3E0FD8E828F8322C082C0838A82A1
:104BE3008B83E5824583700990180580068A828B42
:104BF30083A3A3124DF560208A828B83A3A3A3A36F
:104C0300A3A3A3E0540860E5EC4D6010124DFB70C4
:104C130003A3E06D70D780047A007B00025B6E749F
:104C2300F2120B5C8A088B09890AECFEEDFF7A14F9
:104C33007B00121D13EA4B60378A828B83A3A3A3E5
:104C4300A3A3A3A3A3A3E4124C93E50A124EDEEE9F
:104C5300F0A3EF124C83124EF9124C8A8A828B8393
:104C630012717D124C7612686CA3124C7DF0A3F086
:104C7300024B12EA240FF582E422127138A3A32215
:104C8300124EE4E4F0A322A3F01270F512686C2232
:104C9300124C9722124EE8A3A3A3A32274F5120B7E
:104CA3005CEAFEEBFF890A8C088D09EA4F60757494
:104CB3000169701279011228ADE9F8903565E49322
:104CC300C3985015800A7404697009124D2C500959
:104CD30079118052740269704B8E828F83A3A3A3D0
:104CE300A3A3A3A3A3A3E50A124D3B125411126974
:104CF300F6A3E4F0A3F09018051269756018800319
:104D0300126AD688828983A3A3124DF58882898388
:104D1300A3A370EC8003901805EEF0A3EF124D42AD
:104D23007900800279C102502D79041228ADE9F887
:104D3300903564E493C398221269FAA3A3A322F0E3
:104D43007A207B009017EDE0F9121CA122C082C0EB
:104D530083E9F87900901805801D8A828B83A3A3C9
:104D6300A3A3A3A3A3A3A3E068600574FF687001D2
:104D7300098A828B83A3A3124DF570DE025B6E74E6
:104D8300F7120B5CEA4B700590180580068A828B3C
:104D930083A3A3124DF5601F8A828B83A3A3A3A3CE
:104DA300A3A3A3A3A3E06970E4EC600F8A828B83BF
:104DB300124DC170D880047A007B00024ECF12716D
:104DC30015E0540422C082C08390180580068A82AD
:104DD3008B83A3A3124DF560128A828B83A3A3A3B3
:104DE300A3A3A3A3A3E06970E580047A007B000278
:104DF3005B6E1267E9EA4B228A828B83125A006C3C
:104E03002274F2120B5C8A0A8B0B8C0C8D0D7508C5
:104E130000750900EA4B602A90180580068E828F80
:104E230083A3A3124E4C601AAC0CAD0DEEFAEFFB4C
:104E3300850A82850B83122EC1E9640170DF8E0817
:104E43008F09AA08AB09024B12E0FEA3E0FFEE4F65
:104E53002274F7120B5C901805126AD67C007D0051
:104E6300800DE8FCE9FD88828983A3A3126AD6E852
:104E7300496030EA687002EB6970E79018051267C1
:104E8300E5E86A7002E96B88828983A3A37008123C
:104E93006AD69018058009126AD68C828D83A3A3E3
:104EA300126416802774F7120B5CEAFEEBFFEA4FDD
:104EB30060151228C5124F2D12696E6003124AE461
:104EC300EEFAEFFB121D1980031211447F01020E4B
:104ED3006B1267E91223C7E9641A22124EE4A3A3F3
:104EE30022124EE822F08A828B83A3A3A3A3221269
:104EF3007138125A0022124C97A32274F6120B5CDB
:104F0300901805126AF28014126B0F124F2D124A79
:104F1300E4EEFAEFFB121D19AE08AF09EE4F70E88D
:104F2300901805E4F0A3F0025EDE8E828F83127088
:104F3300E9F583124F418E828F83124F4122E0FAAB
:104F4300A3E0FB121D1922C082C083EAFCEBFDEA39
:104F53004D6017EA24FBF582EB34FF126973700787
:104F6300124F9FE0F46007121C657905802B9017A0
:104F7300EDE0C0E0124F9FD0E0F090355CE493F990
:104F83007A077B18121C9BE96401700B7A007B2063
:104F9300124FAE790080027904025B6EEA24FFF5BA
:104FA30082EB34FFF583227A207B009017EDE0F942
:104FB300121CA12274F4120B5CA2AFE433F508C2F5
:104FC300AF901807124E4C6038EE24FBF582EF3495
:104FD300FF1269737A007B209017ED6005124FB1C1
:104FE3008005E0F9121CA7E4F50AF50B780A121103
:104FF30031EEFCEFFD7A077B18121C957402121137
:1050030044E508A2E092AFEEFAEFFB023DB5125081
:1050130016E02212501A22125024A3A3A3A3A3A37F
:1050230022F08E828F83221211447F03020E6B744F
:10503300F2120B5C74FA1211C2EAFEEBFF7508FE62
:105043007509FF122889E9600579110251B41256D6
:10505300D4603C901A0DE0C43354E0F8E033335489
:10506300FC48C0E0EE1260E33FF583D0E0126B3101
:10507300FAA3E0FB79FF122661EA4B60127508FF81
:10508300EE240F1256D74404F01256D4D2E0F08E19
:10509300828F831251ED6006EE2412126B49EE24C7
:1050A300131256D7700D90355AE493C0E01251C3D2
:1050B300D0E0F08E828F83E0A2E75004540380197E
:1050C300EE24141256D7701290177FE0C0E01251ED
:1050D300B9D0E0F090177FE004F0EE24111256D718
:1050E300640170169019F7E0600D90178AE0700A5A
:1050F3008E828F83E07003126B468E828F83E0640F
:10510300017013EE240B1259F664027009EE240F9A
:105113001256D74440F0AC21AD22EEFAEFFB122831
:10512300F58A0A8B0B74FE6508700374FFF4700331
:10513300126B0FEA4B60768E828F83E0C0E07401BE
:10514300121442D0E0F07404121442EEF0A3EFF014
:10515300EE241E126AD074021214421264167401F1
:105163001211AA880C890D780C121131EE24201229
:1051730051D61211351251D1120F3AEE240E12519B
:10518300D6121135901793120F3A7408121442E095
:10519300F9AC08AD091228EF7408121144E9FE7442
:1051A300106E700BAA0AAB0B121D1980027E10EE53
:1051B300F97406024B0FEE2414F582E43FF58322C3
:1051C300EE1251C8222413F582E43FF58322EE1236
:1051D3004AEC22F582E43FF583E0F50C780C228E4D
:1051E300828F83A3A3A3A3A3A3A3A3A31251F322F5
:1051F300E0FAA3E0FB122991E922C082C08374D7AD
:105203001211C290BA1974031211BA74261210370C
:105213008A828B83A3A3A3A3126AD6740E121442A9
:1052230012697B126AD6740C1214421252F6240DC0
:105233001252E6C0E0741A121442D0E0F0126872FF
:10524300126AD474201214421252F624151252E632
:10525300C0E07408121442D0E0F0EA241CF582E4A2
:105263003B126AD474121214421252F624111252CF
:10527300E6C0E07409121442D0E0F0EA241212529C
:10528300E6C0E07407121442D0E0F0EA241EF5826F
:10529300E43B126AD474241214421252F6242012EC
:1052A30052E6C0E07426121442D0E01252EE74FFAC
:1052B300F0740112144274FFF0740212144274FF6A
:1052C300F090C194120F3674041211BA74071211BC
:1052D300B212252F74041211447900742912114457
:1052E300025B6EF582E43BF583E022F08521828543
:1052F300228322E8F0A3E9F0EA2274F4120B5C742F
:10530300EC1211C28A0A8B0B8C088D09E9FF7E10FF
:105313007A217B00121D13852182852283EAF0A363
:10532300EB126985E849700302540A7C217D0079F8
:1053330000852182852283E0FA121C479017A01270
:1053430067E58521828522831264F42409F582E4CA
:1053530038F5831269317420121442126AD674111B
:10536300121442E8125A6512693738F5837402122F
:105373005A681271037402125A52125411125A6863
:105383001270E0EFF07422121442125A13F9A3E0E0
:10539300C9126DDA39F583E8125728A3E0C9241F2F
:1053A300F582E43912541874231214421267E57417
:1053B300061214421269317408121442E8F074267A
:1053C30012144212690BC082C083740C121442ACD3
:1053D30082AD83D083D082740512103774251214E2
:1053E30042E0C0E07413121442D0E0F07900AA2125
:1053F300AB2212288FE9640170047E0080098521A5
:1054030082852283124AE7EEF97414023DB2E5085D
:10541300F0A3E50922F583E50AF0A3E50BF0227476
:10542300F0120B5C74FF1211C2EAFEEBFF8C088DC5
:10543300098A82F583A37408F0EA24161256D7600A
:10544300088A828B83A37410F0EA24171256D7605C
:10545300098A828B83A3E02408F0EA1256D56008F8
:105463008A828B83A3E004F08A828B83A3A3A3A302
:10547300A3A3E060198A828B83A3A3A3A3A3A3A3FB
:10548300E0C3332402F88A828B83A3E028F0EA2462
:10549300111256DF6004740E8001E4F0901A05E0E7
:1054A300640170168A828B83E06401600D90170E8D
:1054B300E060071256BF740180041256BFE412570E
:1054C300288A828B83A3E0F8EA12397728298C8211
:1054D3008D83F0EA24111256D76005125D0029F07E
:1054E300850882850983E0C394754009750C0075AE
:1054F3000D000256B6E0FA7B00121D138A0C8B0DC9
:10550300EA4B70030256B68E828F83E0FA901790AF
:10551300125721740278081212CDEA4508FAAB0932
:10552300EE241212571B740678081212CDA808EA4B
:1055330048FCEBFD1256D46004780180027800EE3B
:105543002416FAE43FFBE4C8F9ED49FDEE241112F9
:1055530056D7F5088809740978081212CDED450964
:10556300FD8A828B83125721740B78081212CDEDBA
:105573004509FDEE241712571B740C78081212CD3F
:10558300ED4509FD8E828F83A3A3A3A3A3A3125783
:1055930021740A78081212CDED4509FDEE24231279
:1055A300571B740D78081212CDED4509F9EC850CE3
:1055B30082850D83F0E9A3F0EE24021256FE125702
:1055C3003DF0EE24041256FEA3A312573DA3A3F00D
:1055D300EE241312570EF0EE241412570EA3F07597
:1055E3000B088A828B83E060151269E71264F0E589
:1055F3000C2408FAE4350DFB121E15750B10EE246E
:10560300171256D760191265731264F0A80BE50CD4
:1056130028FAE4350DFB121E157408250BF50B8EC5
:10562300828F83A3A3A3A3A3A3E0604EEE2407F575
:105633000EE43FF50F850E82F583E0C0E01256EDD0
:10564300D0E012572DE0C0E0081256EFD0E0125719
:105653002DA312696112112D850E82850F83E0122D
:1056630059C7A80BE50C281256C9121144850E829E
:10567300850F83E0C333250BF50B1256D46008C0A6
:10568300E01256EDD0E0F0125CBD12696112112DEB
:10569300123976FC7D0074031214421256F6E0F8B8
:1056A300E50C28F8E4350DF9E82AFAE4391256CD69
:1056B300121144AA0CAB0D740102694AEA2423F5C2
:1056C30082E43FF58322FAE4350DFB121C3B74039D
:1056D30022EE2415F582E43FF583E022F582E43FD0
:1056E300F583E085218285228322A80BE50C28120D
:1056F30059DA22E0FA8E828F83A322F8E43FF988F5
:1057030082F583E0850C82850D8322F582E43FF5E3
:1057130083125747A3A3A322F582E43FF583E0F561
:105723000875090022127126F922F0050B8E828F6B
:1057330083A3A3A3A3A3A3A3A322A3A3126B1DA326
:1057430012574722E0850C82850D83A3A3A32274FD
:1057530003023DB2126ADA8E828F83A3A32274F00E
:10576300120B5C74FD1211C212692B7402121442E3
:10577300E9F08C0C8D0D750B017C267D007900AA58
:105783000CAB0D121C477402121442E0C394085070
:1057930003025950125706F0AC0CAD0D85218285DA
:1057A30022831259FCFA85218285228312602212F8
:1057B3005CF9E96003750B008521828522831269F8
:1057C3000B125A1DE0F9EA850C82850D83A3A3A36E
:1057D300A3A3A3A3A3A3F0A3E9125A52A3A3125A08
:1057E3001DA3A3E0F9E50C12698AEA125A65126453
:1057F300E0C0E0E50C241112715ED0E0125A682477
:1058030007F582E438F583E0C0E012715AD0E01264
:10581300691E7408125A49A3E060268521828522F5
:1058230083E02408F8A3E03400F9E50C2413F5829F
:10583300E4350D126414850C82850D83A3E02408DE
:10584300F0850C82850D83A3A3A3A3A3A3A3A3E045
:10585300602A850C82850D83A385820E85830F12B2
:105863005A0AF8A3E03400F9E50C1260E3350D128F
:105873006414850E82850F83E02408F01259CEE468
:10588300F01259E2E4F0A312691EA3A3A3A3E060FC
:1058930011125A2E850C82850D83A3A3A3A3A312F1
:1058A3005A5AE50C1259EFE0700302593C125A2E72
:1058B300FA1259CEEA125A5AF8852182852283E0D8
:1058C30028FBA3E034008B82F583E0F8E50C241A6F
:1058D30012715EE8125A5AE8C39AE50C50561259EF
:1058E300EAF890355DE493C39850047E0C8006E596
:1058F3000C1259EAFE850C82850D83125A09F508AC
:10590300A3E03400F509750A00780812112DEE1290
:1059130059C77AC07B091256CE1211441259E27448
:10592300C0F0A37409F0EEC333F8850E82850F83AC
:10593300E02880041259EFE4F0850C82850D83A3DF
:10594300E0F8850C82850D83E0C3985004790080CC
:1059530070125A09FAA3E03400FBE50C126B4012F3
:105963007161126931850C82850D83E0C398C0E0B3
:10597300E50C241712715ED0E0125A49E06040E54D
:105983000C2417FEE4350DFF8E82F583E024F2F03C
:10599300E50C241DF8E4350DF98882F583E0240E27
:1059A300FAA3E03400FB8882898312693190178B54
:1059B300E0F91227E7E9F88E828F83E0C398F0A914
:1059C3000B02694825E0FCE433FD22E50C1259D4AF
:1059D3002224191259DA22F582E4350DF58322E5E2
:1059E3000C241B1259DA221259D4E022126918121C
:1059F30059DD22F582E43FF583125A0022126ADF51
:105A0300F5838882E022A3125A0E22125A13282207
:105A1300E0F8852182852283E022A3A3E0FA852191
:105A230082852283126911A3A3A322850C82850D8B
:105A330083A385820E85830F125A0EFAA3E03400E6
:105A43008A82F583E022126922A3A3A3A3A32212CD
:105A53005A6DF583888222F0850E82850F83E004D8
:105A6300F022F0A3E9125A6DC82212712AF8A3E0BA
:105A73002274F4120B5C8A088B09EA125B1DA3A340
:105A8300F0EA1313543F125B10A3F0EAC41313128A
:105A93005B1D125B277409780A1213A2125B07A31A
:105AA300A3A3A3A3A3F0EB125B09125B26740A78EA
:105AB3000A1213A2E50A5401C0E0EC1269183DF57D
:105AC30083D0E0125B2B740B780A1213A2125B07CC
:105AD300125B24740C780A1213A2125B07A3125BE5
:105AE30024740D780A1213A2E50A5401C0E0EC24D1
:105AF30024F582E43DF583D0E0F0740E78081213A8
:105B0300A2023DA1E50A54018C828D8322125B1609
:105B1300A3A322540F8C828D832254038C828D8302
:105B230022A3A3A3A3A3A3A3F08A0A8B0B22C0825D
:105B3300C08379008A828B83A3A3A3A3A3A3E0904A
