:020000040000FA
:060000000213A20208A396
:03002B00021101BE
:03003300020E5B5F
:030053000207D2CF
:03007B00020E3042
:1000830002083401010000000000F8FF07FFFF0031
:10009300000504000000030001FFFFFFFF004510FF
:1000A3001410270000800000002801000038AD0B69
:1000B3000010000080110018000020FD0002000065
:1000C300611B000000000000C11B000000000000D5
:1000D300000000000000000000000000000000001D
:1000E3000000000000000000000006FFFF1E208744
:1000F3001F000000000000000000000000000000DE
:1001030000000000000000FF14001400450032004E
:100113000100E8030A000A000A000A000A001E00A0
:100123001032302F30382F323032312031333A34DD
:10013300370104010C000201E5C3048CC20304016E
:1001430007010200000002DDC30404010C000200E9
:10015300000001EDC3010400001817000000E803CC
:100163000000FFFF69170188130000E80300006423
:10017300006400B801A0BB0D00A0BB0D0002020289
:10018300070401051E02051E020A0A0101080801EF
:1001930003B80B02803E0102FEFFE8030A050001DB
:1001A300FFFF020A1401E00100B0423BAAB83F8CF2
:1001B300906339AA0CA33A00941E3C8042633DCF5E
:1001C300FE753E1572313FF304353F8096184B00A0
:1001D3000080BF2292D43EDD9B2A3F04000040FFF3
:1001E300FF7F7FFFFF7FFF010080341872313F02E2
:1001F300000000050301010F0300030003000300D7
:100203000300030003000300030005000A001400B9
:1002130028004F009E0000004232000000007831A9
:1002230000000000FF000000FF001213D060461220
:1002330013EE603DE9687008F618F618F618F62212
:10024300748067F7120261090909748067F7221243
:1002530013EE601D1213D07005191919801A1212AA
:100263008E701F1212A2C37003E667331919194067
:10027300071818182208080874FFF618F618F61855
:10028300F6221212A2601712146E702192F0121449
:100293005C7019501720F014080808090909E7F6DB
:1002A3001819E7F61819E7F61819E7F62212145C7D
:1002B30060E6E869701F0808E62480F608E436F66D
:1002C30018547FB47F0CE654806007F6E418F618E0
:1002D300F622181822E9C6CC08C6CD08C6CE08C631
:1002E300CFC0E0E8C0E0EAC0E0EBC0E009E9F8090C
:1002F300E7FA09E7FBE6F918E6F8C3EC98ED99EE9F
:100303009AEBC2E7F5F0EFC2E795F0500E600CEB05
:10031300CFFBEACEFAE9CDF9E8CCF8EAA2E7D2E7D7
:10032300FAEB33FB13F5F0EEA2E7D2E7FEEF33FF70
:10033300C5F013A2E730E601B313C5F0C3C0E0C0B4
:10034300F07F00C39BFB605E9418600F401D146038
:100353001AD0E023F9D0E0F80204338AF0E94860C8
:1003630003D2F0E4AFF0FAF9F8803BEB30E40D8907
:10037300F0EA6003D2F0E4AFF0F9CAF8EB30E30D32
:1003830088F0EF6002D2F0AFF0E4CAC9F8EB54078B
:100393006014FBC3EA13FAE913F9E813F8EF1350F7
:1003A30002D2E0FFDBEDD0E0C0E030E739C3E49FE9
:1003B300FFF5F0EC98FC42F0ED99FD42F0EE9AFE69
:1003C30042F0D0E0F9D0E0F8E5F0607AE923F9EE05
:1003D30020E742D8028067C3EF33FFEC33FCED33F1
:1003E300FDEE33FE80EAEC28FCED39FDEE3AFED05B
:1003F300E023F9D0E0F84002801BC3EE13FEED13B7
:10040300FDEC13FCEF135002D2E0FF08B800067FA7
:100413007F74FF802EEF3350178CF020F0026010B2
:100423000CBC000C0DBD00080EBE000408E860DF24
:10043300E933E813FFEE2313FE4F4D4C8008E954D4
:1004430080FFE4FEFDFCEE33EF33F47004FCFD7E2D
:1004530080D0E0FBD0E0FAD0E0F8D0E0CFC618CEF1
:10046300C618CDC618CCC6F9221213EE700418189C
:1004730018221213D0700D74FFF61819F61819F616
:100483001819F622E7548066F612145C700F1214E2
:100493006E70F014F608F608F608F680D112146EA2
:1004A300700CF608F608768008E6447F80EC12129A
:1004B300A5700C12129160BFE65480F6E480BB1263
:1004C3001291700519191980A5E869700C763F1807
:1004D300768018F618F6E8F922E6CDC0E018ECC0ED
:1004E300E0E633CD33CDD313F6E719FCE71919331F
:1004F300CC33C3947F400ECD9D502408E65480F640
:10050300E418F6800FF4043D14501408E6447FF613
:10051300187680E418F618F6D0E0FCD0E0FD22CC83
:10052300D313CCFD18E4C6CBC0E018E4C6CAC0E0C0
:100533000808ED08C633E613F618E433C675F0036E
:10054300C3CA97CA09CB97CB199C40047D08802E58
:10055300BD000302061516B6FF050606081618C3E6
:10056300CA33CACB33CB33CA27CA09CB37CB193CDF
:10057300C37D08803E187D0820E75CC633C6CA33B6
:10058300CACB33CB33DDF1D5F0EB30E77BCA97CA67
:1005930009CB974ACB199C406F4B7025E620E0218D
:1005A3008066187D08C3CA97CA09CB97CB199CD319
:1005B300C633C6CA33CACB33CB3350C9DDE7D5F014
:1005C300E1D3E4C636C608C636C608C636C608C66C
:1005D30036C61818188031C3CA97CA09CB97CB19E6
:1005E3009CB34097C633C6CA33CACB33CB33DD344F
:1005F300D5F02EC6A2E0C640C8CA27CA09CB371910
:100603004A70BECB3CB480B90808E63308E63360D1
:100613001F181818D0E0FAD0E0FBD0E0FCD0E0FDC2
:1006230022187D08CA27CA09CB37CB193CD380804F
:1006330013F618E4B67F11F618B6FF0EF618C604C3
:1006430070D20808768080CAF618F618F680C500BE
:100653001213EE604F1213D06012E7548066F61245
:10066300128E701112146E703B090909F4F618F614
:1006730018F618F6221212A2701512145C08080854
:1006830060EAE6447FF618768018E4F618F622123C
:10069300145C601612146E7012E4F608F608F6087D
:1006A300E65480F609090918181822EAC0E0EBC0DD
:1006B300E0ECC0E0EDC0E0E687F0A4FBACF008E6B8
:1006C30087F0A42CFCE435F0FA1809E687F0A42C93
:1006D3004B60027401CA35F0FCE433FB09E687F092
:1006E300D2F7A42CCB35F0FC1908E687F0A42BCC69
:1006F30035F0FBE433FD0819E687F0D2E7A42C4A72
:10070300CB35F0CD3400FC09E687F0D2E7A42DCC3D
:1007130035F0FDE433FA0918E687F0D2F7A42CCDBF
:1007230035F0CA3400FC08E687F0D2E7D2F7A42AF2
:10073300CC35F07A7E20E70B0ACB33CBCD33CDCC4F
:1007430033CC33CB3350147004ED30E00ED2F1E4EC
:10075300CD3DCDCC3CCC3B5005DA05C2F1EB547F0B
:10076300C63308E63392F0FBE73309E733C39A5005
:100773002D2B70190C0D4C4D70151806E608C3335C
:10078300700D20F10AA2F013F6E418800B4024E464
:10079300F630F002768018F618F618F68024D33B6C
:1007A30014501074FFA2F013F6187680E418F618AC
:1007B300F6800FA2F013F618E63303F618ECF618DA
:1007C300EDF6D0E0FDD0E0FCD0E0FBD0E0FA22C0B3
:1007D300E074F1120C3EA2AFE433F509D2AF85A762
:1007E30008AFA1EF5508FE74105E60061218D375AA
:1007F300A1EF74085E60081218D975A1F78024EF81
:10080300A2E092F0E508A2E082F05017906198E030
:10081300F8900661E0C398A2D265D0335002E8F0A5
:1008230075A1FE752300E509A2E092AF7F02020CD9
:100833009DC0E074F2120C3EA2AFE433FED2AF903F
:1008430061A4E0F8759B00E5915854086008759120
:10085300F71219278023E59158541060087591EF1A
:1008630012192D8014E591A2E092F0E8A2E082F043
:100873005007E0C2E0F0121A839061A3E0F8E5E9C3
:10088300585404600E121A5975E9FB906193E0A263
:10089300E640F2752300EEA2E092AF7F01020C9DC9
:1008A300C0E074F2120C3EA2AFE433FED2AF90610B
:1008B300A5E0F8E5BF585404600675BFFB121A9B08
:1008C30080D112091A30F04312095F803E8A088BE7
:1008D300098C0A8D0B780812091A20F01430E72BC3
:1008E30074FFFCFBFA747F8022E4FCFBFA748080C3
:1008F3001AB48008BC00F2BB00EF800F50EBF9E4A0
:10090300C39AFAE49BFBE49CFCE499C6CC18C6CBDF
:1009130018C6CA18C6F922E4C9C608CAC608CBC68F
:10092300D3330308CCC63392F0C3947F402E94187C
:100933004019C9B90704CACBCC225025C309CA330D
:10094300CACB33CBCC33CC33D9F422F4600DC9CC2E
:10095300C313CB13CBCA13CAD9F6CC22E4FCFBFADC
:100963002214FCFBFA22C3E498F8E499F91209AAC9
:100973008026C3E49AFAE49BFBE920E7E91209AA7B
:10098300E498F8E499F922C3E498F8E499F9120990
:10099300AAE498F8E499F9C3E49AFAE49BFB22EBFE
:1009A30020E7CFE920E7E0B90010BB0008E88AF0B0
:1009B30084F8AAF022E4FBC8FA22EB70227B10C869
:1009C30033C8C933C9335007C39AC3DBF280069ACD
:1009D30050012ADBEAC833F4C8C933F4C9FA2275D3
:1009E300F008E4C833C8C933C933C99AC99B500452
:1009F300C92AC93BD5F0ECFBC833F4C8E4C9FA22D1
:100A0300080808EAC0E0EBC0E086F0E7A4FA18099A
:100A130086F0E7A42AFA180986F0E7A42AFA180947
:100A230086F0E7A42AFA1986F0E7A4FBE5F02AFA90
:100A3300190886F0E7A42BFBE5F03AFA190886F0CB
:100A4300E7A42BFBE5F03AFA18180986F0E7A4C5EA
:100A5300F02BFBE43AFA1908E7C5F0C6A426F6E53D
:100A6300F03BFBE43AFA1886F0E7A4F6E5F0082633
:100A7300F6E43B08F6E43A08F6D0E0FBD0E0FA22CD
:100A8300080808E630E711121252120A9B080808F8
:100A9300C64480C618181822181818E9799EC60883
:100AA300CAC608CBC608CCC6C370207996CACBCCBD
:100AB3007019798ECBCC70137986CC700EF9802A9D
:100AC300CA33CACB33CBCC33CC331930E7F2CCCBDC
:100AD300CA3350147004EA30E00DE4CA3ACACB3B7F
:100AE300CBCC3CCC500209C3E913C6CC182313C6A4
:100AF300CB18C6CA18C6F922E4CFC0E0E4CEC0E0E2
:100B0300E4CDC0E0E4CCC0E075F020E626F608E6CC
:100B130033F608E633F608E633F6181818EC33FC18
:100B2300ED33FDEE33FEEF33FFC3EC9709ED970989
:100B3300EE9709EF97191919400FFFEC97FC09ED90
:100B430097FD09EE97FE191906D5F0BFECF709EDED
:100B5300F709EEF709EFF7191919D0E0FCD0E0FD1A
:100B6300D0E0FED0E0FF222521C582C0E0E522349B
:100B7300FFC583C0E0E521C3958224F810AF088543
:100B830083228582218008858322858221D2AFCE6C
:100B9300F0A3E520F0A37808E608F0A3DEFAEFF06F
:100BA300A3E58124FAF8E608F0A3E608F0A3E60833
:100BB300F0A30808E608F0A3E608F0A31581158161
:100BC300D0E0FED0E0F8158115811581E8C0E0EE94
:100BD300C0E022121447B90003020C28E490050177
:100BE300780679168002F0A3D8FCD9FA782390000E
:100BF300867A01BA00028007E493A3F608DAF97A49
:100C0300067B1A90008778A779028015E493A3AD39
:100C130082AE838A828B83F0A3AA82AB838D828E7A
:100C230083D8E9D9E775820A75838274061210C5E1
:100C33007582B175832E74001210C5C0D02521C5ED
:100C430082C0E0E52234FFC583C0E0E521C395827D
:100C530024F310AF088583228582218008858322AF
:100C6300858221D2AFC8F0A3E9F0A3EAF0A3EBF0A9
:100C7300A37908E709F0A3D8FAECF0A3EDF0A3EE0B
:100C8300F0A3EFF0A3D0E0F0A3D0E0F0A3D0E0F026
:100C9300A3E520F0A3E5F0F0A3228522838521823A
:100CA300E0C0E0A3E0F9A3E0FAA3E0FBA37808E047
:100CB300F608A3DFFAE0FCA3E0FDA3E0FEA3E0FF58
:100CC300A3E0C0E0A3E0C0E0A3E0F5D0A3E0F520FB
:100CD300A3E0A3F5F010AF08858322858221800865
:100CE300858322858221D2AFD082D083D0E0F8D011
:100CF300E03200002275F0108E248F25858229852D
:100D03008328852182852283E0CEA3E0CF852982B3
:100D1300852883EBC9EAC8EDCBECCAC3E833C8E93D
:100D230033C9EA33CAEB33CBC3EA9EF527EB9FF50E
:100D330026B35004AB26AA27EC33CCED33CDD5F044
:100D4300DAAE24AF25221213EE601C1213D0601703
:100D530012145C700712146E7001D322C0D01214E7
:100D63006E7006D0D0B322C32233D0D0501430E0FB
:100D7300F6C3E7960809E7960809E7960809E79690
:100D8300B32220E0D5E6970809E6970809E6970815
:100D930009E697B322D083D082ECC0E0EDC0E0E453
:100DA30093A3FCE493A3FDED4C600D120F07EC2419
:100DB300FFFCED34FFFD80EFE493A3FCE493A3FD7C
:100DC300ED4C600D120FD0EC24FFFCED34FFFD80E1
:100DD300EFD0E0FDD0E0FCE493A3C0E0E493C0E0F7
:100DE300221213EE601B1213D0601612145C7007EC
:100DF30012146E600CB322C0D012146E7005D0D0E2
:100E030022C32233D0D0501330E0EBC3E796080956
:100E1300E7960809E7960809E7962220E0E4E697B3
:100E23000809E6970809E6970809E69722C0E074DF
:100E3300F2120C3EA2AFE433FED2AFE58AA2E35036
:100E430005790212180D758A00C2EB752300EEA214
:100E5300E092AF7F01020C9DC0E074F2120C3EA23F
:100E6300AFE433FED2AFE58BA2E05005790412184C
:100E73000D758B00C2E880D3852283852182E0A390
:100E8300FEE0A3F5207808E0A3F608DFFAE0A3FF6D
:100E9300E0A3C0E0E0A3C0E0E0A3C0E0E0A3C0E0C3
:100EA300E0A3C0E010AF08858221858322800885F6
:100EB3008221858322D2AFD083D0820210CBD0830C
:100EC300D082E9C0E0E493A3C386F0C5F095F0F9BE
:100ED30008E493A386F0C5F095F0700BE493A3C3E5
:100EE300994005E9048002A3E475F002A42582F584
:100EF30082E5F03583F583D0E0F9E493A3C0E0E421
:100F030093C0E022C0E0C3E493960874019396185B
:100F1300400FE493667008087401936618700070BC
:100F230019A3A3C3E49396087401939618A3A3404B
:100F33000DD0E0D0E0D0E0020DD4A3A3A3A3A3A3DC
:100F4300D0E0227404800474028000CCC0E0EDC0C1
:100F5300E0E521C39CCCAD2250011D10AF068C21CE
:100F63008D2280068C218D22D2AF121047D0E0FD56
:100F7300D0E0FC2274028000CCC0E0EDC0E0E521AB
:100F8300C39CCCAD2250011D10AF068C218D228055
:100F9300068C218D22D2AF121025D0E0FDD0E0FCCB
:100FA300221213EE60251213D0602012145C70031A
:100FB30002146E080808E76670101819E766700ACD
:100FC3001819E76670041819E76622F422C0E0C016
:100FD300F088F0E493667008087401936618700053
:100FE300A8F0A3A3700BD0F0D0E0D0E0D0E0020DC6
:100FF300D4A3A3D0F0D0E022D083D082CCC0E0E44D
:1010030093A360061210681470FAE493A3600612A7
:1010130011E81470FAD0E0FCE493A3C0E0E493C0B9
:10102300E022CAC0E0E493A3C582CCC582C583CDC8
:10103300C583F0A3C582CCC582C583CDC583DAE55C
:10104300D0E0CA22CAC0E0E0A3C582CCC582C58372
:10105300CDC583F0A3C582CCC582C583CDC583DA54
:10106300E6D0E0CA22C0E0E493A3D39C5010E493FB
:10107300A3C39C400AD0E0D0E0D0E0021018A3A3A1
:10108300A3D0E022C008C3E096F50808A3E0964287
:101093000808A3E096420808A3E09645087001D328
:1010A300D008227009080808226016181818C6C349
:1010B30033C608C633C608C633C608C633C6D5E02A
:1010C300EA22C09FF59FE473D09F22D083D082C0D1
:1010D3009FE493C0E0740193C0E0740293F59F22F0
:1010E300C5822521C582C583352210AF07F5228528
:1010F30082218007F522858221D2AFC58322C0E0F9
:10110300C0D0E8C0E0A8A8D2AFC2C7752300E8A248
:10111300E792AFD0E0F8D0D0D0E0322521F58210AD
:10112300AF08F521400C15228008F5214002152255
:10113300D2AF852283227404800A7403800674026A
:1011430080027401C0E0F40412111ED0E012140AEC
:101153002200C0D0252110AF08F521500C052280B4
:1011630008F52150020522D2AFD0D022BB0102E7FD
:1011730022C082C08389828A83BB0003E08002E4A9
:1011830093D083D082226016080808C6C313C618FA
:10119300C613C618C613C618C613C6D5E0EA22C3BB
:1011A300E0C696F608A3E0C696F608A3E0C696F650
:1011B30008A3E0C696F6222521F8E43522F9222574
:1011C30021FAE43522FB222521FCE43522FD2225E8
:1011D3002110AF08F521400C15228008F5214002AB
:1011E3001522D2AF22C0E0E493A36C7009D0E0D003
:1011F300E0D0E0021018A3A3D0E022E0667010084C
:10120300A3E066700A08A3E066700408A3E0662200
:10121300C3E7960809E7960809E7960809E796A23F
:10122300D265D03322E76670100809E766700A08B2
:1012330009E76670040809E76622C3E09608A3E09D
:101243009608A3E09608A3E096A2D265D0332218AD
:101253001818E4C396F608E496F608E496F608E44C
:1012630096F622C3E096F008A3E096F008A3E09672
:10127300F008A3E096F022C3E697F60809E697F68E
:101283000809E697F60809E697F622181818E608FB
:1012930046087009E626087005E633F42208221989
:1012A3001919E70947097009E727097005E733F4B6
:1012B300220922C3E4939608740193960874029357
:1012C30096087403939622E627F60809E637F6088C
:1012D30009E637F60809E637F622700422600D188E
:1012E300C6C333C608C633C6D5E0F41822E657F69C
:1012F3000809E657F60809E657F60809E657F622FD
:10130300E026F608A3E036F608A3E036F608A3E0E5
:1013130036F622E026F008A3E036F008A3E036F024
:1013230008A3E036F022E056F008A3E056F008A345
:10133300E056F008A3E056F022E647F60809E64730
:10134300F60809E647F60809E647F622E056F608E6
:10135300A3E056F608A3E056F608A3E056F622608B
:101363000D08C6A2E713C618C613C6D5E0F322C6F6
:10137300F4C608C6F4C608C6F4C608C6F4C622C333
:10138300E09608A3E09608A3E09608A3E09622C39C
:10139300E7960809E7960809E7960809E79622758C
:1013A300D00075813F75210175220500020BD660BF
:1013B3000C08C6C313C618C613C6D5E0F422E6F05C
:1013C30008A3E6F008A3E6F008A3E6F022E709473E
:1013D30009C3134709336002E733F422E0F608A395
:1013E300E0F608A3E0F608A3E0F622E6084608C301
:1013F300134608336002E633F422800100E9F874EF
:10140300FF28F90470F622CAC0E0E6F0A308DAFA6E
:10141300D0E0FA22E0F8A3E0F9A3E0FAA3E0FB228C
:10142300E8F0A3E9F0A3EAF0A3EBF022EAF0A3EBE0
:10143300F0A3ECF0A3EDF022E0FAA3E0FBA3E0FCC1
:10144300A3E0FD22E5C754F84401F5C7790122253D
:1014530021F582E43522F58322E62618461846183C
:101463004622C2AF75D69F02000022E7271947190B
:10147300471947221210CE91AF031210CE19B003B1
:101483001210CED4B0031210CE37B1031210CE7B9C
:10149300B1031210CE15B2031210CE93B203121081
:1014A300CEC6B2031210CED4B3031210CEF4B303DC
:1014B3001210CE48B4031210CE30B5031210CE3240
:1014C300B7031210CED4B7031210CE24BA031210EE
:1014D300CEA8BA031210CEADBD031210CEE1BF03E6
:1014E3001210CE19C0031210CE78C1031210CE828F
:1014F300C1031210CED1C1031210CEA3C303121025
:10150300CEEF83061210CE2384061210CE76840605
:101513001210CE7985061210CE2CF9051210CE8A40
:10152300F9051210CECCF9051210CEEEF905121002
:10153300CEA8FA051210CEECFA051210CE21FB0547
:101543001210CEE0F0011210CE5CF1011210CE8F1A
:10155300F1011210CEBDF1011210CEFBF1011210F8
:10156300CE36F4011210CE55F4011210CE9AF401C6
:101573001210CE30F5011210CE7CF5011210CE10F0
:10158300F6011210CEE8F6011210CE44F701121044
:10159300CEA2F7011210CE1FF8011210CE55F8019A
:1015A3001210CEA0F8011210CEC6F8011210CE56BA
:1015B300F9011210CEEDF9011210CE39FA01121011
:1015C300CE6AFA011210CEA1FA011210CE27FC0145
:1015D3001210CEF1FC011210CEC1FD011210CEED9E
:1015E30094051210CEF794051210CE08950512102B
:1015F300CE2095051210CE8C95051210CEB7950509
:101603001210CECA95051210CEE595051210CEF430
:1016130095051210CE2996051210CE51960512107B
:10162300CE7996051210CEA896051210CEA5970571
:101633001210CEF297051210CE0798051210CE990C
:1016430098051210CEE898051210CE1099051210C5
:10165300CE359A051210CE029C051210CEA59E051A
:101663001210CEBF9E051210CE54E2051210CE808A
:10167300E2051210CEA0E2051210CEC7E205121049
:10168300CE0EE4051210CE41E4051210CEFFE405A0
:101693001210CE99E5051210CE0399061210CE084A
:1016A30099061210CE3B99061210CED7BB05121025
:1016B300CE6BBC051210CE79BC051210CE8CBC05C6
:1016C3001210CEA7BC051210CED6BC051210CEF850
:1016D300BC051210CE80BD051210CEE5BD0512105B
:1016E300CE22BE051210CE3FBE051210CE52BE054D
:1016F3001210CEFFBE051210CE09BF051210CEA1E7
:10170300C0051210CEB2C0051210CEEAB6051210F3
:10171300CE37B7051210CE7BB7051210CE85B705AD
:101723001210CE8FB7051210CEEBB7051210CE5F95
:10173300B8051210CEC3B9051210CED7BA051210D0
:10174300CE79BB051210CE93BB051210CE9CBB0500
:101753001210CE637D001210CE2A7E001210CE3CF2
:101763007E001210CEB77E001210CEDF920612104A
:10177300CEF092061210CE8E93061210CE999306D7
:101783001210CEB193061210CEF47F001210CED6F3
:10179300FF031210CEC093061210CED09306121080
:1017A300CEE593061210CE9994061210CEEB8F0657
:1017B3001210CE6E90061210CED490061210CE5098
:1017C300FD051210CE64FD051210CECBFD051210DF
:1017D300CE14FE051210CE3CFE051210CE60FE059F
:1017E3001210CE83FE051210CEBBFE051210CEE3FF
:1017F300FE051210CE1EFF051210CE2C8A06121003
:10180300CEB58A061210CEC48A061210CEF48A060A
:101813001210CE3E8B061210CE558B061210CE3010
:10182300DB051210CE3EDB051210CEB7DB0512101E
:10183300CE8FDC051210CE52DE051210CE97DE05D8
:101843001210CEBCDE051210CEF87F001210CE00AF
:1018530080061210CE3880061210CE838106121035
:10186300CE0782061210CEBCC0051210CEE8C0050A
:101873001210CE2CC3051210CE6CC3051210CEACC1
:10188300C3051210CEC0C3051210CED9C305121062
:10189300CECBC4051210CE70C5051210CE84C5057B
:1018A3001210CE8087061210CEA487061210CEBD6A
:1018B30087061210CEEF87061210CE1F880612106D
:1018C300CE4C88061210CE5688061210CEB8880663
:1018D3001210CEC788061210CED188061210CEDEA3
:1018E30088061210CE00F2051210CE20F205121057
:1018F300CE5FF2051210CE7AF2051210CE99F205E0
:101903001210CEFFF2051210CE08F3051210CE65A9
:10191300F3051210CE74F3051210CE98F3051210CE
:10192300CE59F4051210CE66F4051210CE77F405E5
:101933001210CEF195061210CE3996061210CE650E
:1019430096061210CE39B2051210CE93B3051210BB
:10195300CEA1B3051210CEB4B3051210CEC9B30590
:101963001210CEDEB3051210CEF1B3051210CE6500
:10197300B4051210CECAB4051210CE52B50512101A
:10198300CECEB5051210CE92B6051210CEA2B60574
:101993001210CEB1B6051210CE5895061210CE7C99
:1019A30095061210CEA495061210CECC95061210F1
:1019B300CEA5F4051210CECCF4051210CEEAF40530
:1019C3001210CE5DF5051210CE2DEF051210CE4686
:1019D300EF051210CE52EF051210CE66EF0512106E
:1019E300CE84EF051210CE8EEF051210CE98EF05C0
:1019F3001210CEABEF051210CE31F0051210CEA6A9
:101A0300F0051210CED5F0051210CE23F1051210F9
:101A1300CE72F1051210CE8DF1051210CE97F1059D
:101A23001210CEA8F1051210CEEBF1051210CE461E
:101A330097061210CE9197061210CE96A805121093
:101A4300CEC0A8051210CEDDA8051210CEF0A80551
:101A53001210CE06A9051210CE64A9051210CE9C51
:101A6300A9051210CE90AD051210CED5AE051210F9
:101A7300CE08AF051210CE6BAF051210CECBB0055A
:101A83001210CEF3B0051210CE08B1051210CE1805
:101A9300B1051210CE5CB1051210CEB7B10512100C
:101AA300CEC7B1051210CE998C061210CEB38C0698
:101AB3001210CEDB8C061210CEF48C061210CE1848
:101AC3008D061210CE368D061210CE4D8D061210D5
:101AD300CE7B8D061210CE968D061210CE9F9406E5
:101AE3001210CEE394061210CECFDE051210CEDF15
:101AF300DE051210CEE4DF051210CE16E00512103B
:101B0300CE46E0051210CE69E0051210CE80E00546
:101B13001210CEBAE0051210CE1FE1051210CE61ED
:101B2300E1051210CEA0E1051210CED1E10512108D
:101B3300CEFCE1051210CE678B061210CE858B0604
:101B43001210CEE58B061210CE848C061210CEED49
:101B530091061210CEE888061210CE0C8A061210D7
:101B6300CEBD8A051210CE248E051210CE15900517
:101B73001210CE4B91051210CE2C92051210CEA846
:101B830093051210CE7494051210CEC8940512104A
:101B9300CED385061210CEF485061210CE19870611
:101BA3001210CE4387061210CEB3FF021210CEC31B
:101BB300FF021210CECDFF021210CEB9EE041210A6
:101BC300CEBCEE041210CE54F6041210CE60F7040D
:101BD3001210CEDFF8041210CEA1F9041210CE8732
:101BE300FA041210CE7EFB041210CE6CFC04121009
:101BF300CE29FD041210CE59FD041210CE0AFF04A3
:101C03001210CE9AFE011210CEACFE011210CEC0FD
:101C1300FF011210CEC3FF011210CEE78E06121081
:101C2300CE1D8F061210CE338F061210CE758F067F
:101C33001210CE858F061210CEC98F061210CED386
:101C43008F061210CEAFF8021210CEF2F802121065
:101C5300CE57F9021210CE74F9021210CE8DF9028A
:101C63001210CE2FFA021210CE38FA021210CE7DC5
:101C7300FA021210CEA6FA021210CEB3FA02121012
:101C8300CE2EFB021210CEB9FB021210CEFEFB02C7
:101C93001210CE49FC021210CEAEFC021210CED1AD
:101CA300FC021210CE42FD021210CE97FD0212105A
:101CB300CED2FD021210CE07FE021210CE19FE0282
:101CC3001210CE2BFE021210CE4AFE021210CE5379
:101CD300FE021210CE06FF021210CE49FF021210AE
:101CE300CE87FF021210CE9D97061210CE98C5051F
:101CF3001210CED8C6051210CEFBC6051210CE0C9C
:101D0300C7051210CEDEC8051210CEFEC80512108C
:101D1300CEF6F6051210CE2CF7051210CE74F70589
:101D23001210CECDF8051210CE26DB041210CE3FD2
:101D3300DC041210CE79DC041210CE27DE0412105C
:101D4300CE55DE041210CEBBE0041210CEFBE0042D
:101D53001210CE9FE2041210CE2FE3041210CE8392
:101D6300E3041210CE25E4041210CE67E40412102B
:101D7300CEA9E4041210CE06E6041210CE54E704F2
:101D83001210CE8BE9041210CEB9E9041210CEE082
:101D9300E9041210CEE9E9041210CE40EA0412104D
:101DA300CEDBEA041210CEE3ED041210CE6AEE0489
:101DB3001210CE5AFF051210CE72FF051210CE7C00
:101DC300FF051210CED0FF051210CE35CA05121032
:101DD300CE4BCA051210CEECCA051210CE2BCB0582
:101DE3001210CE48CB051210CE79CB051210CEC6F9
:101DF300CB051210CEF9CB051210CE34CC05121040
:101E0300CE2FCE051210CE97CE051210CEED900632
:101E13001210CE4C91061210CE8A91061210CECB20
:101E230091061210CEFA97061210CEBDCC021210F4
:101E3300CEC9CC021210CE2BCD021210CE35CD025C
:101E43001210CEC6CD021210CE02CE021210CEF266
:101E5300CE021210CE3FCF021210CECECF021210FE
:101E6300CE04D0021210CE7FD0021210CE4ED20278
:101E73001210CE48D4021210CE26D5021210CE4430
:101E8300D6021210CE8AD8021210CECDD902121069
:101E9300CE7CDA021210CE1CDF021210CE10E0024A
:101EA3001210CEB4E0021210CED9E0021210CE7599
:101EB300E1021210CE8AE1021210CEAEE10212103C
:101EC300CE1CE2021210CE39E2021210CE63E202FD
:101ED3001210CEF9E3021210CE1AE4021210CEC091
:101EE300E4021210CE08E5021210CE5DE5021210D4
:101EF300CEFDE5021210CE61E6021210CEBFE6025D
:101F03001210CE68E7021210CED6E7021210CE09E5
:101F1300E8021210CE77E8021210CEB2E9021210D4
:101F2300CE28EB021210CEC5EB021210CE03EE0246
:101F33001210CE6CEE021210CE96EE021210CEB23A
:101F4300F0021210CE59F3021210CE82F4021210D4
:101F5300CE1398041210CEFE99041210CE079B04E0
:101F63001210CE709B041210CEC49F041210CE0325
:101F7300A1041210CE33A1041210CEBAA104121080
:101F8300CEDAA2041210CE61A3041210CE74A304FD
:101F93001210CE9EA3041210CE69A4041210CEC256
:101FA300A4041210CE94A5041210CEABA5041210F3
:101FB300CEBCA5041210CED7A5041210CEA9980644
:101FC3001210CE9CFA031210CE29FB031210CEA3DB
:101FD300FB031210CEC4FB031210CEA0FC0312109D
:101FE300CE0DFE031210CE41C5041210CE73C504EC
:101FF3001210CEEBC5041210CEEEC6041210CE4A58
:10200300C7041210CEC1C8041210CEDDC8041210CA
:10201300CE2FC9041210CE72C9041210CE85C90482
:102023001210CED7C9041210CE30CA041210CEEB50
:10203300CA041210CE65CB041210CE8FCB0412103B
:10204300CEC7CB041210CE43CD041210CE1CCE0447
:102053001210CE6BCF041210CE3ED0041210CEC697
:10206300D0041210CE10D1041210CE2AD1041210B3
:10207300CE71D1041210CE91D1041210CE27D20406
:102083001210CEA1D2041210CEACD2041210CE0183
:10209300D3041210CE5BD3041210CEACD3041210AF
:1020A300CE3DD6041210CE6CA5051210CE9CD704DB
:1020B3001210CE8ED8041210CEB6D8041210CEB998
:1020C300D8041210CEC3D8041210CE44AF0312109A
:1020D300CE55D9041210CE8BD9041210CEB7D90421
:1020E3001210CEDED9041210CE02DA041210CE730F
:1020F300DA041210CE81DA041210CE97DA04121029
:10210300CEB8DA041210CEE6DA041210CEFCDA04EA
:102113001210CE14DB041210CE6896061210CE7481
:1021230096061210CEA896061210CEF0FF011210DA
:10213300CEDAA8031210CE5BC5031210CEA1C603DC
:102143001210CEEAC6031210CE52C7031210CEAC41
:10215300C7031210CEAFC7031210CEFBC703121072
:10216300CE6EC8031210CEF6C8031210CEF9C80300
:102173001210CE83C9031210CEC4C9031210CE9914
:10218300CD031210CE31CF031210CE6BCF0312103A
:10219300CED2CF031210CE20D3031210CEABD30373
:1021A3001210CE96D4031210CED4D5031210CEF152
:1021B300D6031210CEB4D7031210CE1FD9031210B8
:1021C300CEBBD9031210CEC8DA031210CEB4DC038F
:1021D3001210CE77DE031210CE0080041210CEAAA6
:1021E30080041210CE1081041210CE298104121023
:1021F300CEA581041210CEE981041210CE0483040B
:102203001210CE4083041210CEC083041210CE0BE2
:1022130084041210CE7284041210CEED85041210C1
:10222300CE1B87041210CEA087041210CEA68904F9
:102233001210CE4F8A041210CEF38A041210CE521B
:102243008B041210CEC78B041210CE1F8D041210F4
:10225300CEE78D041210CE318E041210CE4D8E04B3
:102263001210CEF38E041210CE3F8F041210CECB79
:102273008F041210CE1B91041210CECD92041210B3
:10228300CE8F94041210CE4095041210CEAA95045A
:102293001210CECA96041210CE2BE0031210CE9F5A
:1022A300E0031210CEE7E0031210CE2BE10312106D
:1022B300CE74E1031210CEBEE1031210CEF6E10399
:1022C3001210CE74E2031210CECEE2031210CE220D
:1022D300E4031210CEB3E4031210CE0BE503121085
:1022E300CE25E5031210CE4DE5031210CEA5E5036E
:1022F3001210CE14E8031210CE33E8031210CE17D7
:10230300E9031210CE47EA031210CEC4EA031210F7
:10231300CE13EB031210CE74EB031210CE1AEC03A0
:102323001210CEE8ED031210CEE8EE031210CE66C3
:10233300F0031210CE47F2031210CEADF4031210C5
:10234300CE5DF6031210CE2DF7031210CE9BF703CA
:102353001210CEB2F7031210CEAAF8031210CE9ABF
:10236300F9031210CE05FA031210CECBE5051210B5
:10237300CE17E7051210CED4E7051210CE38E805C4
:102383001210CEACE8051210CE31E9051210CE4C76
:10239300E9051210CE90E9051210CEB6E905121028
:1023A300CEDCE9051210CEF4E9051210CE57EA058A
:1023B3001210CE6CEA051210CE8FEB051210CE98D8
:1023C300EB051210CEA1EB051210CEAAEB051210ED
:1023D300CEB4EB051210CEA4CE051210CEA3D205B7
:1023E3001210CEA8D2051210CEAAD2051210CE7C9E
:1023F30082061210CEB8FF031210CE57EC0512104E
:10240300CEC98D061210CEDD96061210CE41FB0505
:102413001210CEC87F001210CE45D7051210CE522F
:1024230098061210CE6298061210CE11D305121020
:10243300CE0080031210CE3380031210CE9F800390
:102443001210CE3A81031210CED781031210CE1C84
:1024530082031210CE3E82031210CE578203121053
:10246300CE7D82031210CE9F82031210CEDD820333
:102473001210CE2183031210CE4383031210CEA574
:1024830083031210CE6C84031210CE238503121023
:10249300CE9585031210CE6086031210CEB3860349
:1024A3001210CE1987031210CE5387031210CEA534
:1024B30087031210CE1388031210CE7E88031210E6
:1024C300CE8188031210CE0289031210CE9989039C
:1024D3001210CEFA89031210CEEA8A031210CE0923
:1024E3008B031210CE6D8C031210CE7A8C03121054
:1024F300CE868D031210CE938D031210CE9C8D03C6
:102503001210CE748F031210CE8E90031210CE07CA
:1025130091031210CE7991031210CE9B91031210E6
:10252300CE2F92031210CE0394031210CEDA970328
:102533001210CEEE97031210CEFE97031210CE08A0
:1025430098031210CE1198031210CE1A980312108A
:10255300CE2498031210CE5198031210CE7A98030A
:102563001210CE8598031210CEA998031210CECD67
:1025730098031210CE3799031210CE7D99031210CF
:10258300CE9A99031210CE179A031210CE4E9A03C5
:102593001210CE8D9A031210CEDA9A031210CE6067
:1025A3009B031210CE2E9D031210CEC39D03121057
:1025B300CEA79E031210CE0EA1031210CE67A10365
:1025C3001210CEB1A1031210CE0CA3031210CE4AE7
:1025D300A3031210CE9CA3031210CE51A403121016
:1025E300CE00A5031210CE3DA5031210CED2A50333
:1025F3001210CE3EA6031210CE0080021210CE326D
:1026030080021210CE6080021210CE3682021210A7
:10261300CE1683021210CE6E83021210CEA984024C
:102623001210CEF584021210CE1E88021210CE11A3
:102633008B021210CE618C021210CEF78C02121094
:10264300CE038D021210CE358D021210CEB88E023B
:102653001210CE6990021210CEFD90021210CE40DD
:1026630091021210CEBE91021210CEDB9102121013
:10267300CE0B92021210CE4092021210CE10930291
:102683001210CEB993021210CE3F96021210CE5FF3
:1026930097021210CE4A98021210CECC9802121052
:1026A300CE009D021210CE3D9D021210CE959D02CA
:1026B3001210CEC89D021210CE329E021210CE68A6
:1026C3009E021210CEF39E021210CE4B9F021210E6
:1026D300CE22A0021210CEDBA0021210CE76A102EF
:1026E3001210CE7EA4021210CE9AA5021210CE3D75
:1026F300A9021210CE31AA021210CE34AA0212106D
:10270300CE63AA021210CE69AC021210CE42AD0201
:102713001210CE85AD021210CEDBAE021210CE1A0D
:10272300AF021210CEA3AF021210CED7AF02121017
:10273300CE9CB0021210CEB4B2021210CE25B30258
:102743001210CE65B3021210CEF3B3021210CE15DF
:10275300B5021210CED7B5021210CEDEB702121098
:10276300CEF6B7021210CE0AB8021210CE42B80249
:102773001210CE70B8021210CEEFB9021210CE149E
:10278300BB021210CE71BB021210CE23BC02121078
:10279300CE4ABC021210CE11BD021210CEA9BD0248
:1027A3001210CECFBF021210CE04C0021210CE6799
:1027B300C0021210CE96C1021210CE3EC2021210F7
:1027C300CE6FC2021210CE87C2021210CE16C302FF
:1027D3001210CECAC5021210CEA2C7021210CEBE6C
:1027E300C7021210CEDAC7021210CEA8C802121006
:1027F300CE9BCC021210CE5735001210CE89350075
:102803001210CE7839001210CEC439001210CE0A3D
:102813003A001210CEAC3A001210CE083B00121050
:10282300CE4D3B001210CE943C001210CEA83D00BA
:102833001210CE9741001210CE1B42001210CE2868
:1028430043001210CE8443001210CE7445001210C0
:10285300CEE945001210CEF345001210CE0046001B
:102863001210CE2B46001210CE1247001210CEBC0F
:1028730047001210CE3A48001210CE5A48001210E8
:10288300CE8348001210CEA548001210CE054B008F
:102893001210CECB4B001210CE104C001210CE8D66
:1028A3004C001210CE3E4D001210CE704D0012108F
:1028B300CEB64D001210CEF24D001210CE424E0095
:1028C3001210CE964E001210CEEC4E001210CE38DF
:1028D3004F001210CEA54F001210CE205000121040
:1028E300CEEB51001210CEEB52001210CE1054005A
:1028F3001210CE4F57001210CE625A001210CE1F84
:102903005B001210CE635B001210CE135D00121039
:10291300CE275D001210CE315D001210CE3B5D005C
:102923001210CE475D001210CE635D001210CE0E62
:102933005E001210CE4D5E001210CE575E001210D4
:10294300CE615E001210CED15E001210CE1C5F006D
:102953001210CE3160001210CE8D60001210CE0E18
:1029630061001210CECD61001210CED6620012109B
:10297300CE0A64001210CEF864001210CE10650067
:102983001210CE6B65001210CE8965001210CED1E5
:1029930065001210CEF865001210CE936600121077
:1029A300CE5967001210CEEB67001210CE65680097
:1029B3001210CE7F69001210CE2C6A001210CE5472
:1029C3006B001210CEA46B001210CE086C00121014
:1029D300CE6A6C001210CE986C001210CEBC6C0044
:1029E3001210CEF16C001210CE226D001210CE55D3
:1029F3006D001210CE756D001210CEDD6D00121039
:102A0300CED16E001210CE2C6F001210CE556F0077
:102A13001210CEDD6F001210CE6070001210CE8B3C
:102A230070001210CE7071001210CE4E7200121090
:102A3300CE8672001210CEA772001210CEE9720079
:102A43001210CE4B73001210CE5573001210CE65C8
:102A530073001210CEA073001210CE8077001210F4
:102A6300CE6D79001210CE537B001210CEEA7B009C
:102A73001210CE8C7C001210CE19C5011210CE9705
:102A8300C5011210CEF3C5011210CE3EC6011210BD
:102A9300CE59C6011210CE84C6011210CEA1C601B2
:102AA3001210CEADC6011210CE44C8011210CE5D75
:102AB300C8011210CEE2C8011210CEF5C8011210DF
:102AC300CE14C9011210CEB8C9011210CE39CB01F0
:102AD3001210CEECCC011210CE82CD011210CE8595
:102AE300CD011210CEF5CD011210CE13CE0112106E
:102AF300CEAACE011210CEF2CE011210CEF5CE0127
:102B03001210CEBBCF011210CE28D0011210CE4E20
:102B1300D0011210CED9D0011210CEF7D00112106D
:102B2300CE3DD1011210CEF1D1011210CE3BD20114
:102B33001210CE6AD2011210CEC7D2011210CEFCEF
:102B4300D2011210CE28D3011210CE36D3011210A7
:102B5300CE83D3011210CEF3D3011210CE3CD40195
:102B63001210CE88D4011210CEB4D4011210CEBFED
:102B7300D4011210CEDDD4011210CEC8D50112102B
:102B8300CED2D5011210CE0DD6011210CE1DD60114
:102B93001210CE26D6011210CE7AD6011210CE8E86
:102BA300D6011210CEBDD7011210CED4D701121008
:102BB300CEE9D7011210CE77D8011210CEBCD801BE
:102BC3001210CE48D9011210CE53D9011210CE954E
:102BD300DA011210CEB0DA011210CEFCDA011210B3
:102BE300CE6BDB011210CEA4DB011210CEBEDB01D3
:102BF3001210CE00DC011210CED0DE011210CE7DF9
:102C0300DF011210CEEADF011210CE2AE201121008
:102C1300CE42E2011210CE45E2011210CE51E20182
:102C23001210CE65E2011210CE6DE2011210CEA099
:102C3300E2011210CEA2E3011210CE29E401121018
:102C4300CE99E4011210CE1BE5011210CEDCE50192
:102C53001210CEFBE5011210CE9CE6011210CEF944
:102C6300E6011210CEFCE6011210CE29E701121084
:102C7300CE3EE7011210CEB2E7011210CE01E901F8
:102C83001210CE07EA011210CE92EA011210CEAD55
:102C9300EB011210CE75EC011210CEA6EC0112104E
:102CA300CEC9EC011210CED2EC011210CE01ED010F
:102CB3001210CE91ED011210CE47EE011210CEBCD0
:102CC300EE011210CE63EF011210CED8EF011210F5
:102CD300CE0FF0011210CE4DF0011210CE83F00191
:102CE3001210CE17AF031210CECFA4051210CEC50B
:102CF300A4051210CE6FA4051210CE5BA40512100A
:102D0300CEBAA3051210CEBEA2051210CEE8A105BD
:102D13001210CEF19F051210CE449F051210CED68D
:102D23009E051210CE11C5041210CE80AE031210F0
:102D3300CED6D8041210CE07C5041210CE9CC404FC
:102D43001210CE1BA8031210CE78A7031210CEF0D8
:102D5300C2041210CEAEC2041210CECEC1041210A1
:102D6300CEB8C1041210CE79C1041210CED4C0045F
:102D73001210CECEBD041210CEBCBB041210CE89ED
:102D8300BB041210CE24BB041210CEB7BA04121027
:102D9300CE76BA041210CEAFB9041210CE4AB904DB
:102DA3001210CEF5B8041210CE98B8041210CE6FDC
:102DB300B7041210CE0CB7041210CE56B60412107C
:102DC300CE51B6041210CE45B6041210CEF8B2049A
:102DD3001210CE37A7031210CE18A7031210CEE598
:102DE300A6031210CED0A6031210CEA5A60312106E
:102DF300CE50A8051210CE18A8051210CED2B204D8
:102E03001210CE77B2041210CE22B2041210CEE307
:102E1300B1041210CEC1A7051210CED0B104121006
:102E2300CEC5B1041210CEA1B1041210CEB0AF04BE
:102E33001210CE2FAF041210CE21AC031210CEEB22
:102E4300AE041210CE38C5031210CEBFAE0412105A
:102E5300CE5F8A051210CE218A051210CEF48905A1
:102E63001210CEC089051210CE5F89051210CE470D
:102E730089051210CE2389051210CEEC8505121098
:102E8300CEB883051210CE9F81051210CE2E810578
:102E93001210CEDD80051210CE9780051210CE00E1
:102EA30080051210CE2AA6051210CE60D7040000AA
:102EB3000080FBE47387000100241B35000400ED50
:102EC3001A25000200F11A26000200F31A27000255
:102ED30000F51A28000100FF1A29000100001B84D5
:102EE300000400F41786000100141A2A00010001EF
:102EF3001B2B000100021B2C000100061B2D0008E8
:102F03000000182E000100071B2F000100081B30D2
:102F1300000100091B310001000A1B3200010008F7
:102F230018330001000918340001000B1B3600019F
:102F3300000A18380001000C1B39000100051B832F
:102F4300000200221B630001001618640001000345
:102F53001B65000100041B6D0001001718710008B8
:102F630000F81766000100211B43000100121B44F7
:102F7300000200131B45000100151B46000200164A
:102F83001B470008000E1848000100181B4B0001E6
:102F930000191B04000100251BA1000100281B3799
:102FA300000100271B88000100261B3C0001000BC9
:102FB300183D0001000D1B490002001A1B670001A8
:102FC3000018184D0002001C1B4E0001001E1B4F71
:102FD3000002001F1B3E000100111B510001000CE9
:102FE30018520001000F1B53000100101B54000175
:102FF300000D18000000000000000000002001F494
:10300300C3000001002001EFC3000002002001F112
:10301300C3000003002001F3C30000040042011FAA
:10302300C200000500420142C10000060042013116
:10303300C1000007003001F2C3000000404201312B
:10304300C10000FDFF2101EBC30100200020051C8E
:103053001A0100210020051D1A010030004223A29D
:103063001A010003F02127A01A020400002905D445
:1030730016020401F02127901A020402F021279876
:103083001A030400002905D616030410002905D8E5
:1030930016030414002805891A030401F02127925A
:1030A3001A030402F021279A1A050400002105DA05
:1030B30016050401F02127941A050402F021279C28
:1030C3001A0001363601010001020100010301006B
:1030D300010401060605020000070100340801008F
:1030E3000F090401010D0100FF0E08000017020083
:1030F30000190100FF1A0100011B0100FE1C010061
:10310300081D0200001F010001200100012102002F
:10311300002301000F240200002601000127010003
:1031230008280200FF2A0100072B0102402C01009E
:10313300002D0100012E0100012F0100FF30010BC2
:103143001D310800003A0100083B01000F3C01005B
:10315300013D0100FF3E040000420400004604005C
:10316300004A0400004E040000520400005604000C
:10317300005A040000010371030103010301030169
:1031830003010322030203010310030003000300EE
:1031930003000300030003000342030003240306A8
:1031A300030003000304031203250323032503235E
:1031B30003040304030003000300034403000300A8
:1031C3000323030003650321003503810300030583
:1031D3000300030003000300032503230303027119
:1031E3000230016002110270020102020202028037
:1031F30002100261023A004100630273027202622A
:103203000243020002130238000002000204021209
:103213000200020002000200020402040237003727
:10322300003C024402000239000002000265020071
:1032330002350281020002050282028302000203B8
:103243000071003001600011007000310220035052
:10325300048000100061000000140063007300721A
:103263000062004300000013000600000000000499
:1032730000120000000000000000000400040037FA
:103283000037003C0244000000000000000000651D
:1032930000000035008100000005000000830000ED
:1032A300000101710101010101110101013101015C
:1032B3000101018001100161013B001400630173EE
:1032C300017201620143010001130106013D013551
:1032D30000040112010001000100010001040104C6
:1032E30001330133013C0144013201360000010086
:1032F300016501000135008101000105018201839F
:1033030001000136000100060000000F000000006C
:1033130000000000000000000003FFFF00000403A2
:10332300FFFF0000FFFF0FF4010005C404032000AA
:103333000100000B000000000000000003010F006B
:10334300000000000000000000000000000000007A
:10335300000000000000000000000000000000006A
:10336300000F1F391F151F491E1B1F3F1F1B1F4B1C
:103373001F211F491E1B1F3F1F271F491E0000003F
:10338300002D1F491E0000000000000000331F49EC
:103393001E0000000000000000000000000000000C
:1033A300000000000000000000000000000000001A
:1033B30000000000000000000000000000000015F5
:1033C30022010015220200552102804F2103005BD8
:1033D30021040061210480672105006D2106007925
:1033E3002130009721310091213300A3213400A91A
:1033F300211100AF211400B52115008B21FFFF001F
:1034030000030003000400080010001F003E007BBF
:1034130000F600EC01D703AF075D0FB91E713D0045
:1034230000060000001001DE16060400001805DF88
:10343300160604100021278A1A0604110021278C7E
:103443001A000400002105DC16000401F021279670
:103453001A000400F021278E1A000402F021279E8F
:103463001A07ECFDFDFDECDCDCCCBCACAC9C9C8C0D
:103473007C7C6C6C5C5C5C4C4C3C3C2C2C1C1C03C2
:10348300EAF5E5D5D5C5B5A59595858575756565C4
:1034930055554545353525251515050A6F28023936
:1034A30028054528073F280C21280D2D28FF00005B
:1034B30000160F00000B150B020002220F33000051
:1034C3000E0F5A6967426565416C6C69616E63658D
:1034D3003039D0D1D2D3D4D5D6D7D8D9DADBDCDDC5
:1034E300DEDF303017181921301B1D1F3000034D4C
:1034F3004C4651181A2505020001191618161618FC
:10350300230300303016181920231A1C1E30003CE8
:1035130040423A3F3F392F47300C0E020B040B0A4F
:103523000708000F020402010101010902E8030078
:103533000000BE040A010024000300E803FF04099D
:10354300190404031E1E030A0C04100828020C05A8
:1035530008150F0574F7120B6AE99018EBF0901831
:10356300A0E4F0121C03901903E4F0A3F09018EC0C
:10357300F0A3F01229BF121C09901828E4F0A3F05D
:103583001223B9024EBD74F0120B6A74D31211D216
:10359300126919548060669018EBE0F9121C818A55
:1035A300088B09AF09EA4F604C7C0080010CEC7575
:1035B300F003A4F8A9F0749E28F582743439F583D6
:1035C300E493F46029E493F88A828B83E06870DDE6
:1035D300EC75F003A4F8749F28F582743439F583ED
:1035E300E493C0E0740193F583D082122EB6AA0847
:1035F300EFFB121C6F12704B6480023958852182D5
:10360300852283A3E05420601F1228D58A088B09E2
:10361300AF09EA4F600A12282DAA08EFFB121C6FAC
:1036230012704B6420023958852182852283E0A2DF
:10363300E050429018A5E0640F702E900948127074
:1036430056900948C3E094E9A3E09403400A7A0042
:103653007B80901718124F9F7900122803E96009A5
:10366300901AED12143B12281B852182852283E0D8
:10367300640102393D542070030239427A207B00F1
:103683009018EBE0F9121DF5EA4B4C4D701A9018A7
:10369300FF121417E8494A4B700E750801750900AB
:1036A300750A00750B00806D750C00750D00750EA5
:1036B30000750F00121E078A088B098C0A8D0B9068
:1036C30018FF121417E8494A4B60319018FF780825
:1036D300121087400E750CFF750DFF750EFF750FE9
:1036E3007F801985080C85090D8C0E8D0F9018FFAE
:1036F300780C1211A27401780C121189850C0885BB
:103703000D09850E0A850F0BE5084509450A450B8A
:10371300700302389C7C0079047A007B001228AB8A
:103723008A0C8B0DAE0CAF0D0237E07402121452EB
:1037330074FFF0740312145274FFF07404121452E1
:1037430074FF1250121267D374071211CA126A89D6
:10375300E96401706A1239644480F8A3E0F97428BB
:10376300121452E8F0A3E9126D1DE0C0E0742A12AE
:103773001452D0E0124FFF540860167428121452EA
:10378300A3E04401123971C0E0742C121452D0E04A
:10379300F012695C6011E8240B124157F874161299
:1037A3001452E8F0A3E4F090C3BD120F467406125E
:1037B30011CA740B1211C212252774041211548EEC
:1037C300828F83A3A3A3A3A3A3A3A3A374061239E2
:1037D30071F912288D7405121452126AE0EE4F70BB
:1037E3000302389C7C007904EEFAEFFB1228AB74D9
:1037F30005121452EAF0A3EB124D29E0F50CA3E0F5
:10380300F50DE4F50EF50F7808790C1213924023A9
:10381300EE2404F8E43FF985080C85090D8882F548
:1038230083C3E0950CF0A3E0950D127140E8497055
:10383300A4800C8E828F83A3A3A3A3E4F0A3F08EB2
:10384300828F83A3A3A3A3A3A3A3A3A3A3E064013E
:103853008E828F83A3A3A3A3A3A37020E054046049
:103863000302372E8E828F83A3A3A3A3A3A3A3A3B1
:10387300A37406F07AB7123A970237D8A3A3A3A387
:10388300E0600302372E8E828F83A3A3A3A3A3A397
:10389300A3A3A37401F00237D812287B7C0079011B
:1038A3007A007B001228ABEA4B6003124F987C002E
:1038B30079047A007B001228ABEA4B701380448AA8
:1038C300828B83A3A3A3A3126AF8EE98EF99400B0C
:1038D3008A828B83A3A3A3A3126AE07C00790412D8
:1038E30028AB8B0BA90BEA4970D5C3E5089EE50904
:1038F3009F500DC3EE9508FEEF9509FFEE4F700D37
:10390300124F989018FF12396AA3F08024EE2EFE0E
:10391300EF338E08F509E4F50AF50B78081211392F
:103923007A20123B40121154121E079018FF1214F2
:103933002F852182852283E06420FAA3E08016A3E9
:10394300E0540460131261B0122E09790112431E70
:1039530012704B6404FB80047A007B00742D0269AF
:1039630038EE126946E022E4F0A3F0A3F0221250ED
:1039730004A3A3E022C082C08374EA1211D27C168E
:103983007D007900AA21AB22121C51740812145233
:103993007402F09018941263EC1239B8740912147B
:1039A300521264047413121452E41260831223AD8E
:1039B30074160252CEE8F0A3E9F090189E126AC87A
:1039C3002274F7120B6A74DA1211D2EAFEEBFFEAE1
:1039D3004F602DAC21AD221228F37406121452E06D
:1039E300601E7417121452E0FD7401121452E0FCAD
:1039F300EEFAEFFB79001227D9E9600479A480027B
:103A030079007426024EBA74F7120B6AEAFEEBFFD2
:103A13008A82F583A3A3A3A3A3A3E0544060178AD8
:103A2300828B831268F91251DD60067AFF7BFF8077
:103A3300151268F580039018941267D374FE6A70A8
:103A43000374FF6B60411268F512691F122989E93B
:103A53008E828F83600B1264E212710BE4F0A380F9
:103A6300031270FAF07C097D288E828F83124853EB
:103A7300E9F5087015EE4F60097901EEFAEFFB12D4
:103A83002887A908024EBD7508CDAA08123A97E9FE
:103A930060E380EE8E828F831264E6240CF582E469
:103AA30038F583E0F91228152274F6120B6AE9FE41
:103AB300EAFF7A0F7B00121C69EA4B601A8A828B39
:103AC30083740CF0EEA3A3F0EF8A828B83124C78FD
:103AD3001260E17900802BEEF91228B18B09A90954
:103AE300EA49601C8A828B83A3A3A3A3A3A3A3A3F2
:103AF300A37406124C81E0F91225C9EEF912288D40
:103B03007910025ECC74F4120B6A8A088B098C0A52
:103B13008D0B9018A5E0640F701EEA4B4C4D601896
:103B23009018A0E064086005E06404700B78081244
:103B33001139123B3E121154023DA37A017B0090CE
:103B430018EBE0F9121DE374042274F4120B6A7487
:103B5300FC1211D2EAFEEBFF8A82F583A3A3E0F9FC
:103B63001228B18A088B09EA4B7003023C868E82C5
:103B73008F83A3A882A983E0C0E0EA1260D7D0E0D4
:103B8300124AE764F160288E828F83A3E064CD60DC
:103B93001E8E828F83A3E0641A60148E828F83A3A8
:103BA300E064E9600A8E828F83A3E064E170337975
:103BB30000122887E9602BE5082404F50AE4350997
:103BC300F50B850882850983A3A3A3A3A3A3124BA3
:103BD300BD124AC5121C15850A82850B8312691F03
:103BE30080708E828F83A3E0C0E07402121452D0DF
:103BF300E01252DC1253FF12456DC0E0740312143D
:103C030052D0E0F0E508126DC8124216E0AA21ABCB
:103C13002270051225218003122971740212145295
:103C2300E064E9702D85088285098312437C750A57
:103C330001780A121145750AE9780A121145124AE8
:103C43009912453AFCA3E0FD8A828B8312456412E4
:103C53001154850882850983A3A3A3A3A3A3A3A3C4
:103C6300A3E064027012850882850983A3A3A3A33A
:103C7300A3A3A3A3A37406F08E828F83A3A3E0F967
:103C830012288D12287B901AF31241887404023D86
:103C9300A074F4120B6AEAFEEBFF7508008A82F542
:103CA30083A3A3A3A3A3E060387508081267C679AA
:103CB300FF122659EA4B601075082C8E828F83A35E
:103CC300A3A3A3A3E0D2E0F08E828F83A3A3A3A335
:103CD300A3E0540364016003023D8F430811023DD6
:103CE3008FEA24181256C56036EA241A1256C560A4
:103CF30003F47013126AA87003A3E0696003023D22
:103D03008F750822023D8FEA241B123D93241A1259
:103D130056C5FAEE24191256C5F91225B7806D8AD5
:103D2300828B83A3A3A3A3A3A3A3A3A3124173700F
:103D3300037508018E828F83126AAC7003A3E06956
:103D43007006E508D2E1F508E50860158E828F83D9
:103D5300A3A3E07006E508D2E58004E508D2E6F502
:103D6300081251D064017006E508D2E0F5088E828E
:103D73008F83A3A3E06015EE241D1259E4F91229E1
:103D830077E964016006E508C2E0F508A908801038
:103D9300F582E43FF583127163EA22740912115428
:103DA3007F04020E7B74F0120B6A74D71211D2EAED
:103DB300FEEBFF8A82F583A3A3A3A3E0600E901A10
:103DC300F11269636006901AF112418874031211AB
:103DD300CA8E828F83A3A3A31262AF1267D1122864
:103DE300F3E97003023F3978017405121452E0C3FA
:103DF3009402400278007407121452E0C394024004
:103E0300027800740C121452E064F87003A3E0F417
:103E13007003023F39740C121452E064F97003A367
:103E2300E0F47003023F39740C121452E064FA7028
:103E330003A3E0F47003023F39740C121452E064DC
:103E4300FB7003A3E0F47003023F397406121452AB
:103E5300E0F990188EE0696003023F39E8A2E04080
:103E630003023F397427121452E06003023F39EE14
:103E73002413126ABE74221214521262B9241C1241
:103E83006ABE74101214521264047409121452E0BC
:103E9300601D741A121452E0FD7404121452E0FCF3
:103EA3008E828F831267D179011227D9E9703B740F
:103EB300031211C2122827E9F50C7409121452E0F7
:103EC300702C901888E060267422596422601F7455
:103ED300425964427014742012145212416D600EE0
:103EE300742012145212416660047ACF804AE9A208
:103EF300E6504D74201214521259EA24FD600F1437
:103F0300600C24FD600824FD600424FE70287420E6
:103F130012145212415F700E742012145212601068
:103F2300A3E0640D601A74031211C21229A1E9649B
:103F330001700D02414F7AD37B0012212B02414FB6
:103F4300EE242DF582E43FF5831243737003A3E05F
:103F530069701D750800780812114578081211451B
:103F6300EE242F1256C5F9124179124564121154E9
:103F73007409121452E07003024017124179126758
:103F8300D31229EF8A0E8B0FEA4B70030240A874F9
:103F930004121452E0F88E828F83A3A3E028F8A3BF
:103FA300E03400F9E8240D124157F88A828B83A389
:103FB300A3A3E068600EE88A828B83A3A3A3124CB9
:103FC3007112396B7904E91214521256E4A3E02AF0
:103FD300F8A3E034008882F583A3AA82AB83121C82
:103FE3005D8A088B098C0A8D0B850E82850F83A34E
:103FF300A3A3A37808121087400302414F90C31D67
:104003007808121303850E82850F83A3A3127169A7
:10401300A31254089018A0E064046008E0640960E7
:104023000302414FE50CA2E540030240E2EE242FD8
:104033001256CDF0EE24301256C5C0E074011214AE
:1040430052D0E0F0EE24311256C5C0E074021214CF
:1040530052D0E0F07414121452E064017026740E0E
:10406300121452124AC024131256C5687003A3E0F7
:10407300697011740C121452124173700774141284
:104083001452E4F0EE2425F582E43FF583120F4643
:1040930074041211CA74071211C212252774041270
:1040A300115402414F9018E5E06401600302401788
:1040B300742012145212416D7009E50CA2E65003EC
:1040C3000240177410121452E0F47003A3E0F4607A
:1040D3007BEEFCEFFD74031211C2122833806DA234
:1040E300E6506974201214521264F27016741A1294
:1040F3001452E06402705574031211C2790012293C
:104103006B804974201214521241667014741A128F
:104113001452E06404703574031211C212295F80D3
:104123002B742012145212415F700C790074031225
:1041330011C21229AD80157420121452126010E0BE
:10414300640C700874031211C21229B9742902692C
:1041530038E82406F582E439F583E0221268FFE0AB
:104163006403221268FFE06407221259EE640622F8
:104173001251E1640222EE242BF582E43F127161B5
:10418300EE1251B622E0F508A3E0AA08FBE4FCFD19
:1041930012281B2274F4120B6AEAFEEBFF8C088DC3
:1041A30009901808E0600F126AA87003A3E0697011
:1041B300051225A5805379001267C61225D58A8278
:1041C3008B83E5824583602CA3A3A3A3A3A3E0541D
:1041D300186021E508241C124213120F4A12420FE1
:1041E300120F4AEE241812454B125CAB126A80126E
:1041F3001154801579008E828F83A3A3A31264D8F0
:10420300125CAB1267D31225AB023DA3E50824135E
:10421300F582E43509F5832274F7120B6A74F712F9
:1042230011D2EAFEEBFF9018A0E06403600DE06496
:10423300016008E0640960030243198A828B83A347
:10424300E060030242E77C007D007A027B00121CDF
:104253000F126B258A82126AC29018911264047934
:104263005312239B9018A0E06409600990189E12D2
:1042730067D31229E985218285228374011260287C
:104283009018A07404F074011211C2794A12239594
:1042930074011211CA7A967B18121E1F90171BE025
:1042A300640B70057406F08005790012431E9018A4
:1042B300911264DE7A037B00121C0F90189412642F
:1042C300DE7A047B00121C0F90188BE0A2E35004EB
:1042D300D2F08002C2F0126015901AED12143B1254
:1042E300281B802FFC7D007A037B10121C0F901774
:1042F3001BE0640B7003740AF090180CE4F0FA7B73
:1043030040125E058E828F83A3E0F912431E90183C
:10431300A0E4F012285D7409024EBA90189E126749
:10432300D712253922C082C083901828126963707E
:10433300179018A0E024FB6005146007800A90180A
:104343002E801F901830801AE84960071241546488
:1043530001700C8A828B83A3E0F912252D800E90C5
:10436300191A1269636006126011122EB6025B5CA1
:10437300126AC890189EE06822126AC8E8FAE9FB3C
:104383002274F5120B6A74D81211D28A088B098A27
:10439300828B83A3A3A3A3A3A3A3A3E0C3940F50DC
:1043A300030245358A828B83A3A3A3126AE07415A3
:1043B3001211CA8A828B83A3A3A3A3A3A3A3A312C9
:1043C300453AFAA3E0FB1228697415121452E070FF
:1043D3002E850882850983A3A3A3A3A3A3A3A3E094
:1043E300C3940B401A8E828F83A3A3A3A3A3A3A377
:1043F300A3E064027009EE240B1256C5F4600302B5
:1044030045357417121452E06007640260030245D5
:10441300359018A0E06402601CE0640660179018F1
:104423002812696370030245351241546401600325
:104433000245358025901828126963701D750800A0
:1044430078081211457808121145EE241012454BD5
:104453008E828F831245641211548E828F83127160
:1044630038124AF0126AC474021214521262B91258
:104473003965C0E07404121452D0E012456DF5089A
:10448300A3E0F509740F78081213B27405121452DD
:10449300E508F07419121452E0C0E07406121452C5
:1044A300D0E0F0741B121452E0C0E07407121452EF
:1044B300D0E0F07416121452E0C0E07409121452E2
:1044C300D0E0F07417121452E0C0E07408121452D2
:1044D300D0E0F0EE24101256C5C0E0740A12145254
:1044E300D0E0F0741A121452E0C0E0740B121452AC
:1044F300D0E0F07427121452E0C0E0740C1214528E
:10450300D0E0F0741C121452A982AA8389088A0984
:10451300750A00780812113D7C087D00741012148E
:1045230052AA82AB831256BC121154AA21AB221297
:1045330025337428025018E0F98A828B83A3A3A33E
:10454300A3A3A3A3A3A3E022F582E43FF583E0F9A9
:104553008E828F83A3A3A3A3A3A3A3A3A312716395
:10456300221267D7122929740222F0EE125CB0E0FE
:104573002274F2120B6A74F81211D28A0A8B0B8C12
:104583000C8D0D890890C274AC21AD2274081210F1
:1045930047C200AC0AAD0BAA21AB221267547002CA
:1045A300D2009018EC8013AC0AAD0BEE240BFAE4A6
:1045B3003FFB126754701B1251A7124E3A601EA2A2
:1045C3000040E48E828F83E0650C7004A3E0650DE8
:1045D30070E58E828F83A3A3E0650870DAEEFAEFAD
:1045E300FB7408024AFDC082C0839018EC025B5939
:1045F300C082C0839018ECE4F0A302484F74F71212
:104603000B6A9018EC127051800FEA2414F582E4BF
:10461300126ADD121D23EEFAEFFBEA4B70EC9018E1
:10462300ECE4F0A3F0024EBD74F2120B6A8A0C8B19
:104633000DEDFF890B8A828B83E08C828D83F0A33F
:10464300A882A9838A828B831246F4124C6BE0C43E
:1046530054F0FA88828983E04AF0EC2402F8E43FBC
:10466300F9850C828B83A3A31246F4124707E03328
:104673003354FC1246FBE033333354F81246FBA3A6
:10468300E0A2E0E4331313FA88828983E04AF0EC72
:104693002403FE50010FE50C2407F508E4350DF55E
:1046A30009750A00780812113D7C087D00EEFAEFC7
:1046B3001256BB121154EE2408FE50010FE50C24D0
:1046C3000FF508E4350DF509780812113D7C037DDB
:1046D30000EEFAEF1256BB121154E50BC3940F40D0
:1046E3000DE50C2412F582E4350D125CBFF0024B8C
:1046F30000A3E08882898322FA88828983E04A12B0
:104703004707A322F0850C828B83A3A3A3A3227460
:10471300F2120B6AEBFF8C0C8D0D8A82F583E08C11
:10472300828D83127122A3A882A983E0125B0412F3
:104733004AE6C4125AFEF0EA12712C125B0B124ABB
:10474300E4A2E2E4338C828D83124AE313131354FD
:104753001F125B04A3124AE3A2E7E4338C828D8326
:10476300A3A3A3A3A3A3F0EA2403FE50010FF50818
:104773008F09750A00780812113D7C087D00E50C4D
:1047830024071256B7121154EE2408FE50010FF5F8
:10479300088F09780812113D7C037D00E50C240F76
:1047A3001256B71211548E828F83A3A3A3E0C0E0E5
:1047B300127148D0E0F0024B0074F6120B6AEAFE65
:1047C300EBFF8A82F583A3858208858309E0F912CA
:1047D3002551850882850983E064EB601E8E828FF4
:1047E30083A3E064E160148E828F83A3E064F160AD
:1047F3000A8E828F83A3E0641A70078E828F83A34D
:10480300E4F0901AED12143B12281B750801780886
:104813001211458E828F83A3E0F5087808121145A3
:10482300790090189E1264DE901894124564121158
:104833005412287B025ECCC082C083E99018FE70BC
:1048430003E4800274018004EAF0A3EBF0025B5CF2
:104853001267D71223B32274F6120B6A9018FEE084
:10486300701B7C0079017A007B001228ABEA4B6055
:104873000C8A828B83126963600312280F025ECC59
:10488300C082C083124D1A401079FF1228A5E9F89F
:10489300903551E493C39850047901800279000262
:1048A3005B5C74F2120B6A8A0A8B0B8909C2008A59
:1048B300828B83A3A3A3A3A3A3A3A3E0F91228B189
:1048C3008A0C8B0DAE0CAF0D750801EA4F60030225
:1048D3004986850A82850B831264D8850A82850BF3
:1048E30083A3A3A3A3A3A3A3124AC51228998A0C43
:1048F3008B0DAE0CAF0DEA4F7003024A928A828B86
:1049030083A3A3A3A3E4F0A3F0E50A240CFAE435FC
:104913000BFB8A82F583E0C0E0124A99D0E0F0E510
:104923000A240D124AB9240D1263FE12298F125163
:10493300BF12691FE50A2411124AB924111263FE3A
:10494300E50A2413126AEFC0E01251B1D0E0F0D2AD
:1049530000EE2406F8E43FF9124AAC124AE7540485
:1049630060030249F8901AFFE0F50A750B0074071B
:10497300780A1212DD8E828F83A3A3A3A3A3A312AB
:104983004AA3F08E828F83A3A3A3A3A3A3E0F50A74
:10499300A3E0F50B7407780A1213B2E50A5407FC77
:1049A300E50960618E828F83A3A3A3A3A3A3A3A31B
:1049B300A37402125012124DAF600B90188C125751
:1049C30045A3A3126404EC7003024A69EE2406F8BB
:1049D300E43FF9E8FAE9124AACF0EC24FFF50AE403
:1049E30034FFF50B7407780A1212DD8A8289831269
:1049F3004AA3F080718E828F83A3A3A3A3A3A3E012
:104A03004480024985EC700575080080598E828FB9
:104A130083A3A3A3A3A3A3E05420600C121C63EA03
:104A2300547F7900245F80198E828F83A3A3A3A36D
:104A3300A3A3E05410601A121C63EA540F790024F4
:104A43000A5001098E828F83A3A3A3A3F0A3E98055
:104A53000D8E828F83A3A3A3A37401F0A3E4124A50
:104A6300F07404124D30A20050288E828F83A3A3CA
:104A7300A3A31267DDF9EEFAEFFB12289FE9601298
:104A830012695C6003124AD2EEFAEFFB121D237522
:104A93000800A9088067EE240CF582E43FF5832221
:104AA300E0450AF0A3E0450B228882F583E0547FBA
:104AB300F0A3E054FC22F582E4350BF583126AC8B7
:104AC300EE22A3E0F9850A82850B831267D72212AF
:104AD3004AD9124F2F22EE240FF582E43FF58322A9
:104AE300A3A3A3A3124AEB22126B0BE022124AF4F4
:104AF30022125008A3A3A32274031211547F0602A7
:104B03000E7B74F4120B6A74F71211D27E00122812
:104B1300B1EA4B7003024BB88A828B83A3A3A3A38E
:104B2300A3A3A3A3A3E064066003024BB88A828B0A
:104B330083A3A3A3A3A3A3A3E0FF8A828B831270FF
:104B4300EAE0C0E07408121452D0E0124EE012639F
:104B5300F11264041228C3EF54086057852182853B
:104B630022831264DE7A007B00122893EA4B70439F
:104B73001271537C007D007A007B0080228E828F2D
:104B8300831259EAF47003A3E0F4602790189E128D
:104B93004BBD124EC2601C7C007D00EEFAEFFB128F
:104BA30028938A0A8B0BAE0AAF0BEE4F70CF7900B6
:104BB3001223CB7E01EEF9023D9E124BC122E0FC93
:104BC300A3E0FD8E828F8322C082C0838A828B837F
:104BD300E5824583700990190380068A828B83A33B
:104BE300A3124DE360208A828B83A3A3A3A3A3A371
:104BF300A3E0540860E5EC4D6010124DE97003A387
:104C0300E06D70D780047A007B00025B5C74F21263
:104C13000B6A8A088B09890AECFEEDFF7A147B0084
:104C2300121D1DEA4B60378A828B83A3A3A3A3A320
:104C3300A3A3A3A3E4124C81E50A124ECCEEF0A386
:104C4300EF124C71124EE7124C788A828B831271E9
:104C53006B124C6412685AA3124C6BF0A3F0024B14
:104C630000EA240FF582E422127126A3A322124E36
:104C7300D2E4F0A322A3F01270E312685A22124C7A
:104C83008522124ED6A3A3A3A32274F5120B6AEABC
:104C9300FEEBFF890A8C088D09EA4F607574016980
:104CA300701279011228A5E9F8903553E493C3985B
:104CB3005015800A7404697009124D1A500979114C
:104CC3008052740269704B8E828F83A3A3A3A3A324
:104CD300A3A3A3A3E50A124D291253FF1269E4A368
:104CE300E4F0A3F090190312696360188003126A59
:104CF300C488828983A3A3124DE388828983A3A3F3
:104D030070EC8003901903EEF0A3EF124D3079009D
:104D1300800279C102501B79041228A5E9F8903565
:104D230052E493C398221269E8A3A3A322F07A2042
:104D33007B009018EBE0F9121CAB22C082C083E920
:104D4300F87900901903801D8A828B83A3A3A3A300
:104D5300A3A3A3A3A3E068600574FF687001098A95
:104D6300828B83A3A3124DE370DE025B5C74F712A4
:104D73000B6AEA4B700590190380068A828B83A322
:104D8300A3124DE3601F8A828B83A3A3A3A3A3A3D0
:104D9300A3A3A3E06970E4EC600F8A828B83124DB6
:104DA300AF70D880047A007B00024EBD127103E01D
:104DB300540422C082C08390190380068A828B83A5
:104DC300A3A3124DE360128A828B83A3A3A3A3A39D
:104DD300A3A3A3E06970E580047A007B00025B5C17
:104DE3001267D7EA4B228A828B831259EE6C2274A4
:104DF300F2120B6A8A0A8B0B8C0C8D0D75080075E9
:104E03000900EA4B602A90190380068E828F83A3E0
:104E1300A3124E3A601AAC0CAD0DEEFAEFFB850A05
:104E230082850B83122EB6E9640170DF8E088F0929
:104E3300AA08AB09024B00E0FEA3E0FFEE4F227489
:104E4300F7120B6A901903126AC47C007D00800D6F
:104E5300E8FCE9FD88828983A3A3126AC4E8496058
:104E630030EA687002EB6970E79019031267D3E8C0
:104E73006A7002E96B88828983A3A37008126AC4EB
:104E83009019038009126AC48C828D83A3A31264D0
:104E930004802774F7120B6AEAFEEBFFEA4F6015F2
:104EA3001228BD124F1B12695C6003124AD2EEFA3C
:104EB300EFFB121D2380031211547F01020E7B129C
:104EC30067D71223BFE9641A22124ED2A3A3221278
:104ED3004ED622F08A828B83A3A3A3A32212712628
:104EE3001259EE22124C85A32274F6120B6A901902
:104EF30003126AE08014126AFD124F1B124AD2EEAB
:104F0300FAEFFB121D23AE08AF09EE4F70E89019BC
:104F130003E4F0A3F0025ECC8E828F831270D7F588
:104F230083124F2F8E828F83124F2F22E0FAA3E03A
:104F3300FB121D2322C082C083EAFCEBFDEA4D6015
:104F430017EA24FBF582EB34FF1269617007124FF5
:104F53008DE0F46007121C6F7905802B9018EBE04D
:104F6300C0E0124F8DD0E0F090354AE493F97A0512
:104F73007B19121CA5E96401700B7A007B20124F88
:104F83009C790080027904025B5CEA24FFF582EBE2
:104F930034FFF583227A207B009018EBE0F9121C92
:104FA300AB2274F4120B6AA2AFE433F508C2AF90DC
:104FB3001905124E3A6038EE24FBF582EF34FF12E6
:104FC30069617A007B209018EB6005124F9F800582
:104FD300E0F9121CB1E4F50AF50B780A121141EE5F
:104FE300FCEFFD7A057B19121C9F7402121154E524
:104FF30008A2E092AFEEFAEFFB023DA3125004E0E9
:105003002212500822125012A3A3A3A3A3A322F097
:105013008E828F83221211547F03020E7B74F2124D
:105023000B6A74FA1211D2EAFEEBFF7508FE7509DA
:10503300FF122881E9600579110251A21256C2605C
:105043003C901B19E0C43354E0F8E0333354FC487C
:10505300C0E0EE1260D13FF583D0E0126B1FFAA3DC
:10506300E0FB79FF122659EA4B60127508FFEE2424
:105073000F1256C54404F01256C2D2E0F08E828F4E
:10508300831251DB6006EE2412126B37EE241312E7
:1050930056C5700D903548E493C0E01251B1D0E08D
:1050A300F08E828F83E0A2E7500454038019EE242C
:1050B300141256C5701290187DE0C0E01251A7D0AB
:1050C300E0F090187DE004F0EE24111256C564015F
:1050D3007016901B03E0600D901888E0700A8E82B2
:1050E3008F83E07003126B348E828F83E0640170D0
:1050F30013EE240B1259E464027009EE240F1256C6
:10510300C54440F0AC21AD22EEFAEFFB1228ED8A44
:105113000A8B0B74FE6508700374FFF47003126A44
:10512300FDEA4B60768E828F83E0C0E07401121437
:1051330052D0E0F07404121452EEF0A3EFF0EE2418
:105143001E126ABE74021214521264047401121104
:10515300BA880C890D780C121141EE24201251C427
:105163001211451251BF120F4AEE240E1251C412EE
:105173001145901891120F4A7408121452E0F9ACB9
:1051830008AD091228E77408121154E9FE74106E71
:10519300700BAA0AAB0B121D2380027E10EEF9746A
:1051A30006024AFDEE2414F582E43FF58322EE1253
:1051B30051B6222413F582E43FF58322EE124ADA34
:1051C30022F582E43FF583E0F50C780C228E828F82
:1051D30083A3A3A3A3A3A3A3A3A31251E122E0FA4E
:1051E300A3E0FB122989E922C082C08374D712117C
:1051F300D290BBBB74031211CA74261210478A8261
:105203008B83A3A3A3A3126AC4740E12145212694C
:1052130069126AC4740C1214521252E4240D12520D
:10522300D4C0E0741A121452D0E0F0126860126A0B
:10523300C274201214521252E424151252D4C0E044
:105243007408121452D0E0F0EA241CF582E43B12F5
:105253006AC274121214521252E424111252D4C0AC
:10526300E07409121452D0E0F0EA24121252D4C0AE
:10527300E07407121452D0E0F0EA241EF582E43BF6
:10528300126AC274241214521252E424201252D409
:10529300C0E07426121452D0E01252DC74FFF07492
:1052A3000112145274FFF0740212145274FFF0903E
:1052B300C3BD120F4674041211CA74071211C2122D
:1052C3002527740412115479007429121154025BB6
:1052D3005CF582E43BF583E022F08521828522831D
:1052E30022E8F0A3E9F0EA2274F4120B6A74EC12D8
:1052F30011D28A0A8B0B8C088D09E9FF7E107A2163
:105303007B00121D1D852182852283EAF0A3EB1207
:105313006973E84970030253F87C217D00790085A5
:105323002182852283E0FA121C5190189E1267D3C2
:105333008521828522831264E22409F582E438F50B
:105343008312691F7420121452126AC47411121446
:1053530052E8125A5312692538F5837402125A56C9
:105363001270F17402125A401253FF125A561270FD
:10537300CEEFF07422121452125A01F9A3E0C912AB
:105383006DC839F583E8125716A3E0C9241FF582C7
:10539300E43912540674231214521267D37406129A
:1053A300145212691F7408121452E8F0742612146E
:1053B300521268F9C082C083740C121452AC82ADCD
:1053C30083D083D08274051210477425121452E0DF
:1053D300C0E07413121452D0E0F07900AA21AB227A
:1053E300122887E9640170047E0080098521828583
:1053F3002283124AD5EEF97414023DA0E508F0A306
:10540300E50922F583E50AF0A3E50BF02274F01217
:105413000B6A74FF1211D2EAFEEBFF8C088D098A26
:1054230082F583A37408F0EA24161256C560088A2D
:10543300828B83A37410F0EA24171256C560098A7D
:10544300828B83A3E02408F0EA1256C360088A82A1
:105453008B83A3E004F08A828B83A3A3A3A3A3A3D8
:10546300E060198A828B83A3A3A3A3A3A3A3E0C3AE
:10547300332402F88A828B83A3E028F0EA241112F2
:1054830056CD6004740E8001E4F0901B11E06401BA
:1054930070168A828B83E06401600D90180CE060C3
:1054A300071256AD740180041256ADE41257168AE2
:1054B300828B83A3E0F8EA12396528298C828D83D5
:1054C300F0EA24111256C56005125CEE29F0850836
:1054D30082850983E0C394754009750C00750D003E
:1054E3000256A4E0FA7B00121D1D8A0C8B0DEA4BB9
:1054F30070030256A48E828F83E0FA90188E12579F
:105503000F740278081212DDEA4508FAAB09EE249B
:1055130012125709740678081212DDA808EA48FC2B
:10552300EBFD1256C26004780180027800EE241667
:10553300FAE43FFBE4C8F9ED49FDEE24111256C528
:10554300F5088809740978081212DDED4509FD8A0A
:10555300828B8312570F740B78081212DDED450905
:10556300FDEE2417125709740C78081212DDED456D
:1055730009FD8E828F83A3A3A3A3A3A312570F7442
:105583000A78081212DDED4509FDEE2423125709AE
:10559300740D78081212DDED4509F9EC850C82854E
:1055A3000D83F0E9A3F0EE24021256EC12572BF010
:1055B300EE24041256ECA3A312572BA3A3F0EE245C
:1055C300131256FCF0EE24141256FCA3F0750B08CC
:1055D3008A828B83E060151269D51264DEE50C24A0
:1055E30008FAE4350DFB121E1F750B10EE2417127B
:1055F30056C560191265611264DEA80BE50C28FA22
:10560300E4350DFB121E1F7408250BF50B8E828FDC
:1056130083A3A3A3A3A3A3E0604EEE2407F50EE4A4
:105623003FF50F850E82F583E0C0E01256DBD0E034
:1056330012571BE0C0E0081256DDD0E012571BA33F
:1056430012694F12113D850E82850F83E01259B501
:10565300A80BE50C281256B7121154850E82850F3C
:1056630083E0C333250BF50B1256C26008C0E0126A
:1056730056DBD0E0F0125CAB12694F12113D1239C8
:1056830064FC7D0074031214521256E4E0F8E50C36
:1056930028F8E4350DF9E82AFAE4391256BB121159
:1056A30054AA0CAB0D7401026938EA2423F582E491
:1056B3003FF58322FAE4350DFB121C45740322EEF9
:1056C3002415F582E43FF583E022F582E43FF58378
:1056D300E085218285228322A80BE50C281259C874
:1056E30022E0FA8E828F83A322F8E43FF98882F5C1
:1056F30083E0850C82850D8322F582E43FF58312D6
:105703005735A3A3A322F582E43FF583E0F508759B
:10571300090022127114F922F0050B8E828F83A3E4
:10572300A3A3A3A3A3A3A322A3A3126B0BA3125705
:105733003522E0850C82850D83A3A3A32274030283
:105743003DA0126AC88E828F83A3A32274F0120B2A
:105753006A74FD1211D21269197402121452E9F01B
:105763008C0C8D0D750B017C267D007900AA0CAB8A
:105773000D121C517402121452E0C3940850030218
:10578300593E1256F4F0AC0CAD0D8521828522836F
:105793001259EAFA852182852283126010125CE78E
:1057A300E96003750B008521828522831268F91253
:1057B3005A0BE0F9EA850C82850D83A3A3A3A3A367
:1057C300A3A3A3A3F0A3E9125A40A3A3125A0BA3C2
:1057D300A3E0F9E50C126978EA125A531264CEC0B9
:1057E300E0E50C241112714CD0E0125A562407F54F
:1057F30082E438F583E0C0E0127148D0E012690C0E
:105803007408125A37A3E06026852182852283E03B
:105813002408F8A3E03400F9E50C2413F582E435F9
:105823000D126402850C82850D83A3E02408F085A4
:105833000C82850D83A3A3A3A3A3A3A3A3E0602A40
:10584300850C82850D83A385820E85830F1259F8FB
:10585300F8A3E03400F9E50C1260D1350D126402AF
:10586300850E82850F83E02408F01259BCE4F01200
:1058730059D0E4F0A312690CA3A3A3A3E06011120F
:105883005A1C850C82850D83A3A3A3A3A3125A4894
:10589300E50C1259DDE0700302592A125A1CFA1260
:1058A30059BCEA125A48F8852182852283E028FBF5
:1058B300A3E034008B82F583E0F8E50C241A12711F
:1058C3004CE8125A48E8C39AE50C50561259D8F8D6
:1058D30090354BE493C39850047E0C8006E50C127C
:1058E30059D8FE850C82850D831259F7F508A3E07C
:1058F3003400F509750A00780812113DEE1259B506
:105903007ABE7B0A1256BC1211541259D074BEF0DF
:10591300A3740AF0EEC333F8850E82850F83E02863
:1059230080041259DDE4F0850C82850D83A3E0F831
:10593300850C82850D83E0C3985004790080701232
:1059430059F7FAA3E03400FBE50C126B2E12714FEA
:1059530012691F850C82850D83E0C398C0E0E50CB6
:10596300241712714CD0E0125A37E06040E50C2442
:1059730017FEE4350DFF8E82F583E024F2F0E50C8B
:10598300241DF8E4350DF98882F583E0240EFAA38B
:10599300E03400FB8882898312691F901889E0F93B
:1059A3001227DFE9F88E828F83E0C398F0A90B02F8
:1059B300693625E0FCE433FD22E50C1259C22224AA
:1059C300191259C822F582E4350DF58322E50C241A
:1059D3001B1259C8221259C2E0221269061259CB6E
:1059E30022F582E43FF5831259EE22126ACDF58344
:1059F3008882E022A31259FC22125A012822E0F8DD
:105A0300852182852283E022A3A3E0FA8521828572
:105A130022831268FFA3A3A322850C82850D83A38F
:105A230085820E85830F1259FCFAA3E034008A8223
:105A3300F583E022126910A3A3A3A3A322125A5B46
:105A4300F583888222F0850E82850F83E004F0229D
:105A5300F0A3E9125A5BC822127118F8A3E022746A
:105A6300F4120B6A8A088B09EA125B0BA3A3F0EA10
:105A73001313543F125AFEA3F0EAC41313125B0B21
:105A8300125B157409780A1213B2125AF5A3A3A371
:105A9300A3A3A3F0EB125AF7125B14740A780A1249
:105AA30013B2E50A5401C0E0EC1269063DF583D058
:105AB300E0125B19740B780A1213B2125AF5125BD7
:105AC30012740C780A1213B2125AF5A3125B1274F1
:105AD3000D780A1213B2E50A5401C0E0EC2424F550
:105AE30082E43DF583D0E0F0740E78081213B2021D
:105AF3003D8FE50A54018C828D8322125B04A3A39C
:105B030022540F8C828D832254038C828D8322A393
:105B1300A3A3A3A3A3A3F08A0A8B0B22C082C083EF
:105B230079008A828B83A3A3A3A3A3A3E0901888FD
:105B3300600EE0701F8A828B83A3A3E0701680122D
